:020000040800F2
:10000000005000207D120008411200084312000831
:1000100045120008471200084912000800000000BD
:100020000000000000000000000000004B1200086B
:100030004D120008000000004F1200085112000885
:10004000C5120008C5120008C5120008C512000834
:10005000C5120008C5120008C5120008C512000824
:10006000C5120008C5120008C5120008C512000814
:10007000C5120008C5120008C5120008C512000804
:10008000C5120008C5120008C5120008C5120008F4
:10009000C5120008C5120008C5120008C5120008E4
:1000A000C5120008C5120008C5120008C5120008D4
:1000B0005912000869120008C5120008C51200088C
:1000C000C5120008C5120008C5120008C5120008B4
:1000D000C5120008C5120008C5120008C5120008A4
:1000E000C5120008C5120008C51200080000000073
:1000F0000000000000000000000000000000000000
:0C01000000000000000000005FF808F1A3
:10010C0010B5054C237833B9044B13B10448AFF345
:10011C0000800123237010BD0C00002000000000A3
:10012C002013000808B5034B1BB103490348AFF378
:10013C00008008BD00000000100000202013000803
:10014C0070B586B002AD0024029403940494059417
:10015C00124B9A6942F020029A619A6902F02002CD
:10016C000092009A9A6942F004029A619B6903F02A
:10017C0004030193019B0A4E22464821304600F0AD
:10018C00ABFA4823029301230393049402230593AF
:10019C002946304600F096F906B070BD00100240BA
:1001AC000008014010B50446084B984203D0084B98
:1001BC009C4205D010BD0821064800F093FAF6E7E2
:1001CC004021044800F08EFAF4E700BF70000020D4
:1001DC00280000200008014072B6FEE700B587B089
:1001EC000023029303930493059300930193144803
:1001FC004FF0804202604FF4E1524260836047F25C
:10020C003052C2600361836100F024FF90B94FF457
:10021C008053029302A90A4800F054FF60B90023EE
:10022C00009301936946064800F0CCFF30B907B043
:10023C005DF804FBFFF7D0FFFFF7CEFFFFF7CCFF15
:10024C007000002000B587B0002302930393049341
:10025C000593009301931448144A02604FF4E15241
:10026C004260836044F62062C2600361836100F0E7
:10027C00F1FE90B94FF48053029302A90A4800F0A2
:10028C0021FF60B90023009301936946064800F0F2
:10029C0099FF30B907B05DF804FBFFF79DFFFFF73E
:1002AC009BFFFFF799FF00BF2800002000040040CF
:1002BC0010B590B006AC28220021204600F0FDFFBE
:1002CC000023019302930393049305930122069256
:1002DC004FF4803307930A9202220D920E934FF43F
:1002EC00E0130F93204600F077FA78B90F230193AF
:1002FC0002210291002303934FF480620492059330
:10030C0001A800F09BFC18B910B010BDFFF764FFFA
:10031C00FFF762FF08B500F039F8FFF7C9FFFFF7E8
:10032C000FFFFFF75BFFFFF78DFF034800F06AFD3F
:10033C00024800F067FDFEE7700000202800002056
:10034C0010B504460E4B1A784FF47A73B3FBF2F3E4
:10035C000C4A1068B0FBF3F000F0A0F868B90F2C51
:10036C0001D901200AE0002221464FF0FF3000F0B5
:10037C0077F8054B1C60002000E0012010BD00BF89
:10038C0000000020080000200400002008B5074AE7
:10039C00136843F010031360032000F04FF80F2094
:1003AC00FFF7CEFF00F0A8F9002008BD00200240A6
:1003BC00034A1168034B1B780B441360704700BF52
:1003CC00B800002000000020014B1868704700BFE7
:1003DC00B8000020002808DB0901C9B200F1604018
:1003EC0000F5614080F80013704700F00F00090120
:1003FC00C9B2014B1954704714ED00E000B500F080
:10040C000700C0F1070CBCF1040F28BF4FF0040C1F
:10041C00031D062B0FD9C31E4FF0FF3E0EFA0CF036
:10042C0021EA000199400EFA03FE22EA0E0241EA8B
:10043C0002005DF804FB0023EEE70000074AD368D6
:10044C0023F4E0631B041B0C000200F4E060034384
:10045C0043F0BF6343F40033D360704700ED00E01A
:10046C0010B50446054BD868C0F30220FFF7C6FF51
:10047C0001462046FFF7AEFF10BD00BF00ED00E0C7
:10048C00002807DB00F01F02400901239340024AB9
:10049C0042F82030704700BF00E100E00138B0F1B5
:1004AC00807F0BD24FF0E0235861054AF02182F88F
:1004BC0023100020986107221A61704701207047B1
:1004CC0000ED00E070B582B00024A4469EE07C4DA7
:1004DC00AB4214D00CD8A5F58015AB420FD005F566
:1004EC007025AB420BD0A5F58015AB421FD106E0B1
:1004FC00744DAB4203D005F58035AB4217D18B68F8
:10050C00A3B1012B0DD04261082410E0CC680EE0A1
:10051C00CC6804340BE0CC68083408E0CC680C34AC
:10052C0005E00261082402E0002400E00424BEF18E
:10053C00FF0F37D806464FEA8C0233680F259540DB
:10054C0023EA050304FA02F2134333604B6813F0F9
:10055C00805F59D05C4B9A6942F001029A619B69A9
:10056C0003F001030193019B4FEA9C02951C574B2E
:10057C0053F825600CF00305AD000F23AB4026EAC1
:10058C000306534B984214D003F58063984279D0FC
:10059C0003F58063984277D003F58063984206D0C8
:1005AC00042307E0061DACF108029200C5E7032303
:1005BC0000E00023AB4033430232444D45F8223077
:1005CC004B6813F4801F61D0424A936843EA0E03D0
:1005DC0093604B6813F4001F5ED03E4AD36843EA25
:1005EC000E03D3604B6813F4003F5BD0394A536859
:1005FC0043EA0E0353604B6813F4803F58D0354ADE
:10060C00136843EA0E0313600CF1010C0B6833FA08
:10061C000CF253D0012202FA0CF203EA020E32EA77
:10062C000303F1D14B68122B3FF651AF122B3FF65F
:10063C007EAF01A555F823F00B050008190500083D
:10064C0023050008350500083B0500083B0500089C
:10065C003B0500083B0500083B0500083B0500086E
:10066C003B0500083B0500083B0500083B0500085E
:10067C003B0500083B0500083B0500081D0500086C
:10068C0029050008012395E7022393E7114A936893
:10069C0023EA0E0393609CE70E4AD36823EA0E0309
:1006AC00D3609FE70B4A536823EA0E035360A2E71B
:1006BC00084A136823EA0E031360A5E702B070BD65
:1006CC000000221000003110001002400000014018
:1006DC0000080140000401400AB10161704709049F
:1006EC0001617047C36801EA030221EA030141EA90
:1006FC00024101617047000082B00E4B9A6942F0D2
:10070C0001029A619A6902F001020092009ADA6978
:10071C0042F08052DA61DB6903F080530193019B54
:10072C00054A536823F0E06343F00073536002B052
:10073C00704700BF001002400000014000B583B0BC
:10074C000368B3F1804F05D0164A934216D003B01C
:10075C005DF804FB03F50433DA6942F00102DA6157
:10076C00DB6903F001030093009B002211461C205F
:10077C00FFF776FE1C20FFF783FEE8E70A4BDA69E9
:10078C0042F00202DA61DB6903F002030193019B80
:10079C00002211461D20FFF763FE1D20FFF770FE9F
:1007AC00D5E700BF000400400010024082B0084BA7
:1007BC001B68084AA2FB03235B0A00FB03F30193AB
:1007CC0000BF019B5A1E0192002BF9D102B0704759
:1007DC0008000020D34D6210002800F0F18170B5A4
:1007EC0082B00446036813F0010F2CD0994B5B6860
:1007FC0003F00C03042B1DD0964B5B6803F00C0329
:10080C00082B12D06368B3F5803F41D0002B55D133
:10081C0003F1804303F504331A6822F480321A6022
:10082C001A6822F480221A6037E08A4B5B6813F452
:10083C00803FE7D0874B1B6813F4003F03D06368FD
:10084C00002B00F0BF81236813F0020F75D0814B91
:10085C005B6813F00C0F5FD07E4B5B6803F00C03EE
:10086C00082B54D02369002B00F08A807A4B01228C
:10087C001A60FFF7A9FD0546764B1B6813F0020FB3
:10088C0075D1FFF7A1FD401B0228F5D903209EE18D
:10089C00704A136843F480331360636843B3FFF703
:1008AC0093FD05466B4B1B6813F4003FCBD1FFF750
:1008BC008BFD401B6428F5D9032088E1B3F5A02FEC
:1008CC0009D0644B1A6822F480321A601A6822F438
:1008DC0080221A60E1E703F18043A3F53C331A68E8
:1008EC0042F480221A601A6842F480321A60D4E70B
:1008FC00FFF76AFD0546574B1B6813F4003FA2D067
:10090C00FFF762FD401B6428F5D903205FE1514BD2
:10091C005B6813F4803FA5D14E4B1B6813F0020F9C
:10092C0003D02369012B40F04F814A4A136823F00E
:10093C00F803616943EAC1031360236813F0080FDD
:10094C0033D0A369002B5CD0434B0122C3F8802425
:10095C00FFF73AFD05463F4B5B6A13F0020F21D1BE
:10096C00FFF732FD401B0228F5D903202FE1394A4D
:10097C00136823F0F803616943EAC1031360DCE7F1
:10098C00354B00221A60FFF71FFD0546314B1B68E3
:10099C0013F0020FD1D0FFF717FD401B0228F5D939
:1009AC00032014E10120FFF701FF236813F0040F6B
:1009BC0000F09680274BDB6913F0805F34D1254B18
:1009CC00DA6942F08052DA61DB6903F080530193FB
:1009DC00019B0125214B1B6813F4807F26D0E36813
:1009EC00012B3DD0002B53D103F1804303F504338D
:1009FC001A6A22F001021A621A6A22F004021A62BE
:100A0C0033E0154B0022C3F88024FFF7DDFC0546CC
:100A1C00104B5B6A13F0020FC7D0FFF7D5FC401BDD
:100A2C000228F5D90320D2E00025D3E70B4A13683E
:100A3C0043F480731360FFF7C7FC0646074B1B6833
:100A4C0013F4807FCBD1FFF7BFFC801B6428F5D952
:100A5C000320BCE000100240000042420070004045
:100A6C005F4A136A43F001031362E36833B3FFF781
:100A7C00ABFC06465A4B1B6A13F0020F2FD1FFF743
:100A8C00A3FC801B41F288339842F3D903209EE0EB
:100A9C00052B09D0524B1A6A22F001021A621A6A0B
:100AAC0022F004021A62E0E74D4B1A6A42F004028B
:100ABC001A621A6A42F001021A62D6E7FFF784FC46
:100ACC000646474B1B6A13F0020F08D0FFF77CFC5D
:100ADC00801B41F288339842F3D9032077E0E5B9C3
:100AEC00E369002B72D03E4A526802F00C02082ACD
:100AFC0056D0022B17D03B4B00221A66FFF764FC32
:100B0C000446374B1B6813F0007F47D0FFF75CFCA3
:100B1C00001B0228F5D9032059E0314AD36923F090
:100B2C008053D361DCE72F4B00221A66FFF74CFC95
:100B3C0005462B4B1B6813F0007F06D0FFF744FCD7
:100B4C00401B0228F5D9032041E0236AB3F5803F0E
:100B5C001AD023494B6823F47413226A606A024347
:100B6C0013434B601F4B01221A66FFF72DFC044602
:100B7C001B4B1B6813F0007F0ED1FFF725FC001BED
:100B8C000228F5D9032022E0154A536823F40033D8
:100B9C00A1680B435360DCE7002018E0002016E04E
:100BAC00012B16D00E4B5B6803F48031226A914204
:100BBC0011D103F47013626A93420ED1002006E047
:100BCC0001207047012002E0012000E0002002B06B
:100BDC0070BD0120FBE70120F9E70120F7E700BF1A
:100BEC0000100240000042420F4B5B6803F00C0205
:100BFC00082A01D00D487047C3F383420C49885C26
:100C0C0013F4803F0BD0084B5B68C3F34043094A95
:100C1C00D35C064A02FB00F0B0FBF3F07047064BC6
:100C2C0003FB00F0704700BF0010024000127A0076
:100C3C003C1300083813000800093D00002800F0A0
:100C4C00A08070B50D460446524B1B6803F0070399
:100C5C008B420BD24F4A136823F007030B431360EC
:100C6C00136803F007038B4240F08D80236813F068
:100C7C00020F17D013F0040F04D0474A536843F403
:100C8C00E0635360236813F0080F04D0424A5368A2
:100C9C0043F460535360404A536823F0F003A16857
:100CAC000B435360236813F0010F31D06368012BA1
:100CBC0020D0022B25D0384A126812F0020F64D0D3
:100CCC0035494A6822F0030213434B60FFF77CFB63
:100CDC000646314B5B6803F00C036268B3EB820F82
:100CEC0016D0FFF771FB801B41F288339842F0D984
:100CFC00032045E0284A126812F4003FE0D101209D
:100D0C003EE0254A126812F0007FD9D1012037E06D
:100D1C00204B1B6803F00703AB420AD91D4A13682A
:100D2C0023F007032B431360136803F00703AB4254
:100D3C002DD1236813F0040F06D0174A536823F4FF
:100D4C00E063E1680B435360236813F0080F07D08E
:100D5C00114A536823F46053216943EAC103536079
:100D6C00FFF742FF0C4B5B68C3F303130B4AD35CD6
:100D7C00D8400B4B18600B4B1868FFF7E1FA0020BA
:100D8C0070BD012070470120FAE70120F8E701202F
:100D9C00F6E700BF00200240001002404C13000890
:100DAC00080000200400002010B4036A046A24F038
:100DBC0001040462846924F0F00C4CEA021223F062
:100DCC000A030B438261036210BC704710B4036AC0
:100DDC00046A24F010040462846924F4704C4CEA14
:100DEC00023223F0A00343EA01138261036210BCB8
:100DFC007047836823F070030B4343F00703836051
:100E0C007047000090F83D30012B27D1022380F869
:100E1C003D300268D36843F00103D3600368114A84
:100E2C00934210D0B3F1804F0DD0A2F5943293427F
:100E3C0009D002F58062934205D01A6842F0010293
:100E4C001A60002070479A6802F00702062A07D041
:100E5C001A6842F001021A600020704701207047A6
:100E6C0000207047002C0140704770477047704756
:100E7C0070B504460368DE681D6915F0020F10D0CA
:100E8C0016F0020F0DD06FF002021A6101230377E6
:100E9C0003689B6913F0030F5ED0FFF7E6FF002396
:100EAC00237715F0040F12D016F0040F0FD023681F
:100EBC006FF004021A610223237723689B6913F4F1
:100ECC00407F4FD02046FFF7D0FF0023237715F04B
:100EDC00080F12D016F0080F0FD023686FF008021D
:100EEC001A61042323772368DB6913F0030F40D0C6
:100EFC002046FFF7BAFF0023237715F0100F12D00E
:100F0C0016F0100F0FD023686FF010021A6108232F
:100F1C0023772368DB6913F4407F31D02046FFF739
:100F2C00A4FF0023237715F0010F02D016F0010F58
:100F3C002DD115F0800F02D016F0800F2FD115F0A7
:100F4C00400F02D016F0400F31D115F0200F02D017
:100F5C0016F0200F33D170BDFFF786FF2046FFF748
:100F6C0085FF9CE72046FFF77FFF2046FFF77EFFBB
:100F7C00ABE72046FFF778FF2046FFF777FFBAE78D
:100F8C002046FFF771FF2046FFF770FFC9E7236883
:100F9C006FF001021A612046FFF704F9C9E72368D4
:100FAC006FF080021A61204600F043F9C7E723680E
:100FBC006FF040021A612046FFF759FFC5E723681E
:100FCC006FF020021A61204600F032F9C3E70000EE
:100FDC0003681F4A90420AD0B0F1804F07D0A2F5A7
:100FEC009432904203D002F58062904203D123F0F8
:100FFC0070034A681343164A90420AD0B0F1804FEE
:10100C0007D0A2F59432904203D002F58062904250
:10101C0003D123F44073CA68134323F080034A6955
:10102C00134303608B68C3620B688362084B98425E
:10103C000AD001234361036913F0010F03D0036944
:10104C0023F00103036170470B690363F1E700BFF1
:10105C00002C014040B310B5044690F83D30F3B17C
:10106C00022384F83D30214651F8040BFFF7B0FF02
:10107C00012384F8463084F83E3084F83F3084F8FD
:10108C00403084F8413084F8423084F8433084F89E
:10109C00443084F8453084F83D30002010BD80F891
:1010AC003C30FFF74BFBDBE70120704710B4846842
:1010BC0024F47F4C42EA03220A4342EA0C02826087
:1010CC0010BC704790F83C30012B78D010B504461A
:1010DC00012380F83C30022380F83D30026893688D
:1010EC0023F47F4323F0770393600B68602B4CD081
:1010FC0023D8402B54D011D8202B03D00AD80BB1B5
:10110C00102B05D119462068FFF773FE002028E04C
:10111C00012026E0302BF5D0012022E0502B0AD103
:10112C00CA6849680068FFF73FFE50212068FFF746
:10113C0060FE002015E0012013E0B3F5805F3AD08B
:10114C00B3F5005F14D0702B37D1CB684A6889682F
:10115C000068FFF7ABFF2268936843F07703936056
:10116C000020012384F83D30002384F83C3010BD6E
:10117C00CB684A6889680068FFF798FF2268936813
:10118C0043F4804393600020EBE7CA684968006829
:10119C00FFF71CFE60212068FFF72BFE0020E0E724
:1011AC00CA6849680068FFF7FFFD40212068FFF717
:1011BC0020FE0020D5E70020D3E70120D1E7022054
:1011CC007047000090F83C20012A2CD010B4034644
:1011DC00012280F83C20022280F83D2002685068F1
:1011EC00946820F0700C086840EA0C0050601A6893
:1011FC000E4882420AD0B2F1804F07D0A0F594304D
:10120C00824203D000F58060824204D124F0800435
:10121C00496821439160012283F83D20002083F826
:10122C003C0010BC70470220704700BF002C0140EE
:10123C0070477047FEE7FEE7FEE7FEE7FEE7704704
:10124C007047704708B5FFF7B3F808BD08B50248FA
:10125C00FFF70EFE08BD00BF7000002008B5024865
:10126C00FFF706FE08BD00BF2800002070470000F5
:10127C00FFF7FCFF0B480C490C4A002302E0D45842
:10128C00C4500433C4188C42F9D3094A094C0023C6
:10129C0001E013600432A242FBD300F017F8FFF711
:1012AC0039F87047000000200C000020641300087F
:1012BC000C000020BC000020FEE7034602449342D1
:1012CC0000D1704703F8011BF9E7000070B5002648
:1012DC000C4D0D4B5B1B9C10A64209D1002600F057
:1012EC0019F80A4D0A4B5B1B9C10A64205D170BD28
:1012FC0055F8043B98470136EEE755F8043B984700
:10130C000136F2E75C1300085C1300085C1300085C
:10131C0060130008F8B500BFF8BC08BC9E467047C7
:0C132C00F8B500BFF8BC08BC9E46704736
:101338000102000002030405060708090A0B0C0D48
:101348000E0F10100000000000000000010203044E
:041358000607080973
:04135C003101000853
:041360000D01000873
:0C136400010000001000000000127A00E0
:040000050800127D60
:00000001FF
