:020000040800F2
:1000000000500020D5160008B9160008BB160008DD
:10001000BD160008BF160008C11600080000000049
:10002000000000000000000000000000C3160008EF
:10003000C516000800000000C7160008C916000811
:100040001D1700081D1700081D1700081D170008C0
:100050001D1700081D1700081D1700081D170008B0
:100060001D1700081D1700081D1700081D170008A0
:100070001D1700081D1700081D1700081D17000890
:100080001D1700081D1700081D1700081D17000880
:100090001D1700081D1700081D1700081D17000870
:1000A0001D1700081D1700081D1700081D17000860
:1000B0001D1700081D1700081D1700081D17000850
:1000C0001D1700081D1700081D1700081D17000840
:1000D0001D1700081D1700081D1700081D17000830
:1000E0001D1700081D1700081D170008000000005C
:1000F0000000000000000000000000000000000000
:0C01000000000000000000005FF808F1A3
:10010C0010B5054C237833B9044B13B10448AFF345
:10011C0000800123237010BD10000020000000009F
:10012C007817000808B5034B1BB103490348AFF31C
:10013C00008008BD000000001400002078170008A3
:10014C002DE9F04389B004AD002404940594069481
:10015C000794264B9A6942F010029A619A6902F050
:10016C0010020092009A9A6942F020029A619A69F0
:10017C0002F020020192019A9A6942F004029A61FB
:10018C009A6902F004020292029A9A6942F00802F9
:10019C009A619B6903F008030393039BDFF850906B
:1001AC0022464FF40051484600F03EFB114F2246C8
:1001BC000121384600F038FB4FF40053049301261C
:1001CC00059606944FF00208CDF81C802946484647
:1001DC0000F020FA049605960694CDF81C8029466A
:1001EC00384600F017FA09B0BDE8F0830010024061
:1001FC0000100140000C014010B5044600F01BF942
:10020C0090B910BD0023032B08DCE05C104A02EB14
:10021C008102D25C904205D10133F4E701233BB952
:10022C00013102E00023FAE700210029EADD002376
:10023C0033B100224FF40051064800F0F5FAE0E724
:10024C0001224FF40051034800F0EEFAD9E700BF49
:10025C00000000200010014072B6FEE708B50D4802
:10026C000D4B03604FF48273436000238360C360C3
:10027C00036143614FF4007282611022C261036218
:10028C00436283620A23C36200F0E6FE00B908BD34
:10029C00FFF7E2FF340000200030014010B590B0B1
:1002AC0006AC28220021204601F033FA00230193EA
:1002BC000293039304930593012206924FF4803327
:1002CC0007930A9202220D920E93204600F01CFB1B
:1002DC0080B90F23019302230293802303934FF4DD
:1002EC00806304930021059101A800F03FFD18B92B
:1002FC0010B010BDFFF7B0FFFFF7AEFF08B500F070
:10030C00FBF8FFF7CBFFFFF71BFFFFF7A7FF01225F
:10031C004FF40051044800F087FA00F06EF80348DF
:10032C00FFF76AFFFBE700BF001001402C00002024
:10033C0010B582B0400000F07E008DF804008DF8FE
:10034C0005100A4C00221021204600F06DFA4FF0E7
:10035C00FF33022201A9064800F0D9FE0122102128
:10036C00204600F061FA02B010BD00BF0008014049
:10037C003400002030B583B0400000F07E0040F027
:10038C0080008DF80700104C00221021204600F050
:10039C004BFA0E4D4FF0FF3301220DF107012846A9
:1003AC0000F0B5FE4FF0FF3301220DF10601284697
:1003BC0001F0B8F801221021204600F035FA9DF822
:1003CC00060003B030BD00BF00080140340000201F
:1003DC0008B50F210120FFF7ABFF08BD08B51420AD
:1003EC00FFF7C8FF10F0030F00D008BD40F003006A
:1003FC00C1B21420FFF79CFFF7E708B5FFF7E8FF41
:10040C008D212A20FFF794FF3E212B20FFF790FF30
:10041C001E212D20FFF78CFF00212C20FFF788FFD9
:10042C0040211520FFF784FF3D211120FFF780FFAD
:10043C00FFF7D4FF08BD70B5054600210D20FFF76E
:10044C0077FF00210120FFF773FF80210A20FFF7BF
:10045C006FFF93210920FFF76BFF20210920FFF785
:10046C0067FF0C210120FFF763FF4FF4FA640420AF
:10047C00FFF780FF013C02D010F0300FF7D00620C0
:10048C00FFF778FF10F01B0F01D0002070BD0A2081
:10049C00FFF770FF0646002404E00920FFF76AFF0F
:1004AC0028550134A642F8DC0120EFE710B50446CC
:1004BC000E4B1A784FF47A73B3FBF2F30C4A1068B4
:1004CC00B0FBF3F000F092F868B90F2C01D90120C1
:1004DC000AE0002221464FF0FF3000F077F8054B80
:1004EC001C60002000E0012010BD00BF04000020B3
:1004FC000C0000200800002008B5074A136843F0E0
:10050C0010031360032000F04FF80F20FFF7CEFF0D
:10051C0000F090F9002008BD00200240034A116849
:10052C00034B1B780B441360704700BF8C000020FA
:10053C0004000020014B1868704700BF8C0000209D
:10054C00002808DB0901C9B200F1604000F56140E8
:10055C0080F80013704700F00F000901C9B2014B7D
:10056C001954704714ED00E000B500F00700C0F11D
:10057C00070CBCF1040F28BF4FF0040C031D062B15
:10058C000FD9C31E4FF0FF3E0EFA0CF021EA00010A
:10059C0099400EFA03FE22EA0E0241EA02005DF8CF
:1005AC0004FB0023EEE70000074AD36823F4E06362
:1005BC001B041B0C000200F4E060034343F0BF6318
:1005CC0043F40033D360704700ED00E010B50446EF
:1005DC00054BD868C0F30220FFF7C6FF0146204642
:1005EC00FFF7AEFF10BD00BF00ED00E00138B0F129
:1005FC00807F0BD24FF0E0235861054AF02182F83E
:10060C0023100020986107221A617047012070475F
:10061C0000ED00E070B582B00024A4469EE07C4D55
:10062C00AB4214D00CD8A5F58015AB420FD005F514
:10063C007025AB420BD0A5F58015AB421FD106E05F
:10064C00744DAB4203D005F58035AB4217D18B68A6
:10065C00A3B1012B0DD04261082410E0CC680EE050
:10066C00CC6804340BE0CC68083408E0CC680C345B
:10067C0005E00261082402E0002400E00424BEF13D
:10068C00FF0F37D806464FEA8C0233680F2595408A
:10069C0023EA050304FA02F2134333604B6813F0A8
:1006AC00805F59D05C4B9A6942F001029A619B6958
:1006BC0003F001030193019B4FEA9C02951C574BDD
:1006CC0053F825600CF00305AD000F23AB4026EA70
:1006DC000306534B984214D003F58063984279D0AB
:1006EC0003F58063984277D003F58063984206D077
:1006FC00042307E0061DACF108029200C5E70323B2
:10070C0000E00023AB4033430232444D45F8223025
:10071C004B6813F4801F61D0424A936843EA0E037E
:10072C0093604B6813F4001F5ED03E4AD36843EAD3
:10073C000E03D3604B6813F4003F5BD0394A536807
:10074C0043EA0E0353604B6813F4803F58D0354A8C
:10075C00136843EA0E0313600CF1010C0B6833FAB7
:10076C000CF253D0012202FA0CF203EA020E32EA26
:10077C000303F1D14B68122B3FF651AF122B3FF60E
:10078C007EAF01A555F823F05B060008690600084A
:10079C0073060008850600088B0600088B06000807
:1007AC008B0600088B0600088B0600088B060008D9
:1007BC008B0600088B0600088B0600088B060008C9
:1007CC008B0600088B0600088B0600086D060008D7
:1007DC0079060008012395E7022393E7114A9368F1
:1007EC0023EA0E0393609CE70E4AD36823EA0E03B8
:1007FC00D3609FE70B4A536823EA0E035360A2E7CA
:10080C00084A136823EA0E031360A5E702B070BD13
:10081C0000002210000031100010024000000140C6
:10082C0000080140000401400AB10161704709044D
:10083C000161704782B00A4B9A6942F001029A61D9
:10084C009A6902F001020092009ADA6942F0805231
:10085C00DA61DB6903F080530193019B02B07047AE
:10086C000010024030B587B0002302930393049329
:10087C0005930268174B9A4201D007B030BD03F5BF
:10088C0060439A6942F480529A619A6902F48052E8
:10089C000092009A9A6942F004029A619B6903F0F3
:1008AC0004030193019BA0230293022303930323CC
:1008BC00059302AD084C29462046FFF7ABFE4023BA
:1008CC00029300230393049329462046FFF7A2FECC
:1008DC00D3E700BF003001400008014082B0084B54
:1008EC001B68084AA2FB03235B0A00FB03F301937A
:1008FC0000BF019B5A1E0192002BF9D102B0704728
:10090C000C000020D34D6210002800F0F18170B56E
:10091C0082B00446036813F0010F2CD0994B5B682E
:10092C0003F00C03042B1DD0964B5B6803F00C03F7
:10093C00082B12D06368B3F5803F41D0002B55D102
:10094C0003F1804303F504331A6822F480321A60F1
:10095C001A6822F480221A6037E08A4B5B6813F421
:10096C00803FE7D0874B1B6813F4003F03D06368CC
:10097C00002B00F0BF81236813F0020F75D0814B60
:10098C005B6813F00C0F5FD07E4B5B6803F00C03BD
:10099C00082B54D02369002B00F08A807A4B01225B
:1009AC001A60FFF7C7FD0546764B1B6813F0020F64
:1009BC0075D1FFF7BFFD401B0228F5D903209EE13E
:1009CC00704A136843F480331360636843B3FFF7D2
:1009DC00B1FD05466B4B1B6813F4003FCBD1FFF701
:1009EC00A9FD401B6428F5D9032088E1B3F5A02F9D
:1009FC0009D0644B1A6822F480321A601A6822F407
:100A0C0080221A60E1E703F18043A3F53C331A68B6
:100A1C0042F480221A601A6842F480321A60D4E7D9
:100A2C00FFF788FD0546574B1B6813F4003FA2D017
:100A3C00FFF780FD401B6428F5D903205FE1514B83
:100A4C005B6813F4803FA5D14E4B1B6813F0020F6B
:100A5C0003D02369012B40F04F814A4A136823F0DD
:100A6C00F803616943EAC1031360236813F0080FAC
:100A7C0033D0A369002B5CD0434B0122C3F88024F4
:100A8C00FFF758FD05463F4B5B6A13F0020F21D16F
:100A9C00FFF750FD401B0228F5D903202FE1394AFE
:100AAC00136823F0F803616943EAC1031360DCE7C0
:100ABC00354B00221A60FFF73DFD0546314B1B6894
:100ACC0013F0020FD1D0FFF735FD401B0228F5D9EA
:100ADC00032014E10120FFF701FF236813F0040F3A
:100AEC0000F09680274BDB6913F0805F34D1254BE7
:100AFC00DA6942F08052DA61DB6903F080530193CA
:100B0C00019B0125214B1B6813F4807F26D0E368E1
:100B1C00012B3DD0002B53D103F1804303F504335B
:100B2C001A6A22F001021A621A6A22F004021A628C
:100B3C0033E0154B0022C3F88024FFF7FBFC05467D
:100B4C00104B5B6A13F0020FC7D0FFF7F3FC401B8E
:100B5C000228F5D90320D2E00025D3E70B4A13680D
:100B6C0043F480731360FFF7E5FC0646074B1B68E4
:100B7C0013F4807FCBD1FFF7DDFC801B6428F5D903
:100B8C000320BCE000100240000042420070004014
:100B9C005F4A136A43F001031362E36833B3FFF750
:100BAC00C9FC06465A4B1B6A13F0020F2FD1FFF7F4
:100BBC00C1FC801B41F288339842F3D903209EE09C
:100BCC00052B09D0524B1A6A22F001021A621A6ADA
:100BDC0022F004021A62E0E74D4B1A6A42F004025A
:100BEC001A621A6A42F001021A62D6E7FFF7A2FCF7
:100BFC000646474B1B6A13F0020F08D0FFF79AFC0E
:100C0C00801B41F288339842F3D9032077E0E5B991
:100C1C00E369002B72D03E4A526802F00C02082A9B
:100C2C0056D0022B17D03B4B00221A66FFF782FCE2
:100C3C000446374B1B6813F0007F47D0FFF77AFC54
:100C4C00001B0228F5D9032059E0314AD36923F05F
:100C5C008053D361DCE72F4B00221A66FFF76AFC46
:100C6C0005462B4B1B6813F0007F06D0FFF762FC88
:100C7C00401B0228F5D9032041E0236AB3F5803FDD
:100C8C001AD023494B6823F47413226A606A024316
:100C9C0013434B601F4B01221A66FFF74BFC0446B3
:100CAC001B4B1B6813F0007F0ED1FFF743FC001B9E
:100CBC000228F5D9032022E0154A536823F40033A7
:100CCC00A1680B435360DCE7002018E0002016E01D
:100CDC00012B16D00E4B5B6803F48031226A9142D3
:100CEC0011D103F47013626A93420ED1002006E016
:100CFC0001207047012002E0012000E0002002B03A
:100D0C0070BD0120FBE70120F9E70120F7E700BFE8
:100D1C0000100240000042420F4B5B6803F00C02D3
:100D2C00082A01D00D487047C3F383420C49885CF4
:100D3C0013F4803F0BD0084B5B68C3F34043094A64
:100D4C00D35C064A02FB00F0B0FBF3F07047064B95
:100D5C0003FB00F0704700BF0010024000127A0045
:100D6C00941700089017000800093D00002800F0B7
:100D7C00A08070B50D460446524B1B6803F0070368
:100D8C008B420BD24F4A136823F007030B431360BB
:100D9C00136803F007038B4240F08D80236813F037
:100DAC00020F17D013F0040F04D0474A536843F4D2
:100DBC00E0635360236813F0080F04D0424A536871
:100DCC0043F460535360404A536823F0F003A16826
:100DDC000B435360236813F0010F31D06368012B70
:100DEC0020D0022B25D0384A126812F0020F64D0A2
:100DFC0035494A6822F0030213434B60FFF79AFB14
:100E0C000646314B5B6803F00C036268B3EB820F50
:100E1C0016D0FFF78FFB801B41F288339842F0D934
:100E2C00032045E0284A126812F4003FE0D101206B
:100E3C003EE0254A126812F0007FD9D1012037E03C
:100E4C00204B1B6803F00703AB420AD91D4A1368F9
:100E5C0023F007032B431360136803F00703AB4223
:100E6C002DD1236813F0040F06D0174A536823F4CE
:100E7C00E063E1680B435360236813F0080F07D05D
:100E8C00114A536823F46053216943EAC103536048
:100E9C00FFF742FF0C4B5B68C3F303130B4AD35CA5
:100EAC00D8400B4B18600B4B1868FFF7FFFA00206B
:100EBC0070BD012070470120FAE70120F8E70120FE
:100ECC00F6E700BF0020024000100240A417000803
:100EDC000C000020080000202DE9F04782B00546E8
:100EEC00884617461E46FFF725FB0A9B1B1A03EB89
:100EFC000609FFF71FFB8246284B1B68C3F3CB3355
:100F0C0009FB03F301932B689C6838EA04040CBFBB
:100F1C0001230023BB423DD0B6F1FF3FF3D0FFF7D6
:100F2C0009FBA0EB0A00484507D2019A02B14A46D8
:100F3C00019B013B01939146E5E72A68536823F036
:100F4C00E00353606B68B3F5827F0BD0AB6AB3F5EB
:100F5C00005F14D0012385F85130002385F8503000
:100F6C00032018E0AB68B3F5004F02D0B3F5806FE7
:100F7C00ECD12A68136823F040031360E6E72A6873
:100F8C00136823F4005313602A68136843F4005366
:100F9C001360DFE7002002B0BDE8F0870C000020F2
:100FAC0070B582B006460C46154600920B460122DF
:100FBC000221FFF791FF48B90095234600228021BA
:100FCC003046FFF789FF38B902B070BD736D43F03E
:100FDC00200373650320F7E7736D43F020037365FB
:100FEC000320F1E710B582B004460B464168B1F519
:100FFC00827F10D06168B1F5827F03D1A168B1F511
:10100C00806F15D00092002280212046FFF764FFEC
:10101C00E0B902B010BD8168B1F5004F02D0B1F556
:10102C00806FE7D12068016821F040010160E1E7A1
:10103C000092002201212046FFF74EFF0028E8D045
:10104C00636D43F0200363650320E2E7636D43F0B7
:10105C00200363650320DCE7002856D010B5044656
:10106C00436A33B94368B3F5827F05D00023C3616B
:10107C0002E00023036143610023A36294F8513022
:10108C00002B3CD0022384F851302268136823F0E3
:10109C0040031360636803F48273A26802F4044291
:1010AC001343E26802F400621343226902F0020265
:1010BC001343626902F001021343A26902F4007245
:1010CC001343E26902F038021343226A02F08002F1
:1010DC001343A26A02F40052216813430B60638B22
:1010EC00226803F0040353602268D36923F400637D
:1010FC00D36100206065012384F8513010BD84F861
:10110C0050302046FFF7AEFBBCE7012070472DE9BD
:10111C00F04383B00446894690461D46FFF70AFA11
:10112C0094F85130012B40F0CD800646DFB2B9F176
:10113C00000F00F0C880B8F1000F00F0C48094F8E4
:10114C005030012B00F0C380012384F8503003236E
:10115C0084F8513000236365C4F83090A4F83480CF
:10116C00A4F83680A363A387E38763642364A3682E
:10117C00B3F5004F1ED023681A6812F0400F03D14C
:10118C001A6842F040021A60E368B3F5006F1CD095
:10119C00636813B1B8F1010F5FD1226B2368127829
:1011AC001A73236B01332363E38E9BB2013B9BB217
:1011BC00E38652E02268136823F040031360226830
:1011CC00136843F480431360D5E7636813B1B8F137
:1011DC00010F15D1226B23681288DA60236B02335E
:1011EC002363E38E9BB2013B9BB2E38608E0FFF7DF
:1011FC00A1F9801BA84202D3B5F1FF3F15D1A5B1CF
:10120C00E38E9BB2002B42D023689A6812F0020F37
:10121C00EDD0226B1288DA60236B02332363E38EEA
:10122C009BB2013B9BB2E386EAE7012384F8513081
:10123C00002384F85030032745E0226B12781A7390
:10124C00236B01332363B4F836C01FFA8CFC0CF10A
:10125C00FF3C1FFA8CFCA4F836C0E38E9BB2B3B1F2
:10126C0023689A6812F0020FE7D1FFF763F9801B2D
:10127C00A84202D3B5F1FF3F01D1002DEDD10123DE
:10128C0084F85130002384F8503003271BE0324699
:10129C0029462046FFF784FE08B120236365A36826
:1012AC0033B901932368DA6801929B680193019B1F
:1012BC00012384F85130002384F85030636D13B946
:1012CC00002700E00227384603B0BDE8F083022770
:1012DC00F9E72DE9F04383B00446884691461F4652
:1012EC000A9DFFF727F9064694F851306268012BE6
:1012FC000BD0D9B2B2F5827F40F00481A368002BE9
:10130C0040F00481042940F00381B8F1000F00F093
:10131C000181B9F1000F00F0FF80002F00F0FE807A
:10132C0094F85030012B00F0FB80012384F85030EE
:10133C0094F85130042B02D0052384F8513000234B
:10134C006365C4F83890E787A787C4F83080E786D0
:10135C00A7862364636423681A6812F0400F03D1D4
:10136C001A6842F040021A60E368B3F5006F11D0BE
:10137C0063680BB1012F0BD1226B236812781A739F
:10138C00236B01332363E38E9BB2013B9BB2E38659
:10139C00012771E063680BB1012F0BD1226B23681D
:1013AC001288DA60236B02332363E38E9BB2013B1A
:1013BC009BB2E38601271BE023689A6812F0010FA9
:1013CC000ED0E28F92B25AB1DA68A36B1A80A36B7B
:1013DC000233A363E38F9BB2013B9BB2E3870127EC
:1013EC00FFF7A8F8801BA84202D3B5F1FF3F1ED12E
:1013FC00E38E9BB21BB9E38F9BB2002B62D02368A8
:10140C009A6812F0020FD7D0E28E92B2002AD3D093
:10141C00002FD1D0226B1288DA60236B0233236346
:10142C00E38E9BB2013B9BB2E3860027C4E701230A
:10143C0084F85130002384F85030032063E0236893
:10144C009A6812F0010F0ED0E28F92B25AB1DA689C
:10145C00A36B1A70A36B0133A363E38F9BB2013BA5
:10146C009BB2E3870127FFF765F8831BAB4202D3DE
:10147C00B5F1FF3F1ED1EDB1E38E9BB213B9E38FF3
:10148C009BB2FBB123689A6812F0020FD7D0E28EA0
:10149C0092B2002AD3D0002FD1D0226B12781A73BB
:1014AC00236B01332363E38E9BB2013B9BB2E38638
:1014BC000027C4E7012384F85130002384F850300E
:1014CC00032020E0324629462046FFF769FD90B9FB
:1014DC00A36833B901932368DA6801929B6801937E
:1014EC00019B012384F85130002384F85030636D44
:1014FC004BB1012007E020236365002384F85030B2
:10150C00012000E0022003B0BDE8F0830220FAE7DE
:10151C000220F8E70120F6E70120F4E70120F2E7CA
:10152C000220F0E72DE9F04383B01D4690F85130CE
:10153C00012B40F0B480044689469046DFB24368E4
:10154C00B3F5827F01D1836893B3FEF7F3FF0646B0
:10155C00B9F1000F00F0A480B8F1000F00F0A080EA
:10156C0094F85030012B00F09F80012384F8503008
:10157C00042384F8513000236365C4F83890A4F830
:10158C003C80A4F83E802363A386E38623646364D3
:10159C00A368B3F5004F15D023681A6812F0400FFA
:1015AC0003D11A6842F040021A60E368F3B143E0D9
:1015BC00042380F85130009513460A46FFF789FE44
:1015CC0007466DE02268136823F04003136022681D
:1015DC00136823F480431360DEE7FEF7ABFF801B38
:1015EC00A84202D3B5F1FF3F15D1A5B1E38F9BB251
:1015FC00002B42D023689A6812F0010FEDD0A26B39
:10160C001B7B1370A36B0133A363E38F9BB2013B72
:10161C009BB2E387EAE7012384F85130002384F876
:10162C00503003273CE0FEF785FF801BA84202D315
:10163C00B5F1FF3F19D1C5B1E38F9BB2EBB1236874
:10164C009A6812F0010FEED0DA68A36B1A80A36BC4
:10165C000233A363B4F83EC01FFA8CFC0CF1FF3CC0
:10166C001FFA8CFCA4F83EC0E6E7012384F8513045
:10167C00002384F85030032712E0324629462046D6
:10168C00FFF7B0FC08B120236365012384F85130C7
:10169C00002384F85030636D13B9002700E0022753
:1016AC00384603B0BDE8F0830227F9E7FEE7FEE712
:1016BC00FEE7FEE7FEE770477047704708B5FEF798
:1016CC002DFF08BD70470000FFF7FCFF0B480C49CD
:1016DC000C4A002302E0D458C4500433C4188C4282
:1016EC00F9D3094A094C002301E013600432A242E9
:1016FC00FBD300F017F8FEF701FE70470000002046
:10170C0010000020BC1700081000002090000020E2
:10171C00FEE703460244934200D1704703F8011BD5
:10172C00F9E7000070B500260C4D0D4B5B1B9C10AF
:10173C00A64209D1002600F019F80A4D0A4B5B1B92
:10174C009C10A64205D170BD55F8043B9847013654
:10175C00EEE755F8043B98470136F2E7B41700085A
:10176C00B4170008B4170008B8170008F8B500BF84
:10177C00F8BC08BC9E467047F8B500BFF8BC08BC66
:04178C009E467047BE
:101790000102000002030405060708090A0B0C0DEC
:1017A0000E0F1010000000000000000001020304F2
:0417B0000607080917
:0417B40031010008F7
:0417B8000D01000817
:1017BC009250ECCA010000001000000000127A00E8
:04000005080016D504
:00000001FF
