:020000040800F2
:100000000050002005190008E9180008EB18000846
:10001000ED180008EF180008F118000800000000B3
:10002000000000000000000000000000F3180008BD
:10003000F518000800000000F7180008F91800087B
:100040004D1900084D1900084D1900084D190008F8
:100050004D1900084D1900084D1900084D190008E8
:100060004D1900084D1900084D1900084D190008D8
:100070004D1900084D1900084D1900084D190008C8
:100080004D1900084D1900084D1900084D190008B8
:100090004D1900084D1900084D1900084D190008A8
:1000A0004D1900084D1900084D1900084D19000898
:1000B0004D1900084D1900084D1900084D19000888
:1000C0004D1900084D1900084D1900084D19000878
:1000D0004D1900084D1900084D1900084D19000868
:1000E0004D1900084D1900084D19000800000000C6
:1000F0000000000000000000000000000000000000
:0C01000000000000000000005FF808F1A3
:10010C0010B5054C237833B9044B13B10448AFF345
:10011C0000800123237010BD1C0000200000000093
:10012C00A819000808B5034B1BB103490348AFF3EA
:10013C00008008BD0000000020000020A819000865
:10014C0000B587B08DF80F006423009301230DF1E7
:10015C0017020DF10F01044801F039F99DF8170051
:10016C0007B05DF804FB00BF8000002070B50446AA
:10017C000D460B4E00224FF48051304600F0D7FC58
:10018C00600000F07E00FFF7DBFF2846FFF7D8FF8A
:10019C0001224FF48051304600F0C9FC70BD00BF05
:1001AC00000C014038B504460C4D00224FF4805130
:1001BC00284600F0BCFC600000F07E0040F080009F
:1001CC00FFF7BEFF0020FFF7BBFF044601224FF4F0
:1001DC008051284600F0ABFC204638BD000C014095
:1001EC0038B504460D46FFF7DDFF40EA0501C9B2FC
:1001FC002046FFF7BBFF38BD38B505460C46FFF768
:10020C00D1FFE44364B200EA0401C9B22846FFF707
:10021C00ADFF38BD08B51420FFF7C4FF032114202F
:10022C00FFF7DEFF08BD08B50F210120FFF79EFF89
:10023C0008BD000008B501224FF48051124800F0AF
:10024C0076FC01221021114800F071FCFFF7EBFF46
:10025C008D212A20FFF78AFF3E212B20FFF786FFF6
:10026C001E212D20FFF782FF00212C20FFF77EFF9F
:10027C0040211520FFF77AFF3D211120FFF776FF73
:10028C00FFF7C8FF08BD00BF000C0140000801408B
:10029C002DE9F04707468A46154699460C2817D093
:1002AC000E2819D110264FF0120848F080010220B8
:1002BC00FFF75CFF80210420FFF79EFF80210A20BE
:1002CC00FFF78EFF00210120FFF750FF00240CE008
:1002DC0030264FF07708E8E70026B046E5E71AF835
:1002EC0004100920FFF742FF0134A542F7D8394624
:1002FC000120FFF73BFF0C2F16D04FF4FA650420BA
:10030C00FFF750FF0446013D04D010F0010F01D15E
:10031C000642F4D080210D20FFF76EFF4DB94FF04F
:10032C0002084046BDE8F08780210D20FFF758FFFA
:10033C00E3E70620FFF736FF10F01B0F2BD108EA7E
:10034C00040818F0010801D04FF001080C2FE8D177
:10035C000A20FFF727FF05460C20FFF723FF10F0BC
:10036C00070009D06B1E00EBC300089B18603DB161
:10037C00102D06D9102504E0EB00089A1360F6E75F
:10038C0001250024A542CCD90920FFF70BFF09F861
:10039C0004000134F6E74FF00208C2E730B585B02F
:1003AC0005460C4607210D20FFF7E0FE257003AB38
:1003BC0000932346012221460C20FFF769FF20B948
:1003CC00039B102B02D0022000E0022005B030BDB0
:1003DC0010B584B0044600210D20FFF7C7FE93230F
:1003EC0023702023637003AB009323460222214623
:1003FC000C20FFF74DFF68B104B010BDA15C4B4061
:10040C00DBB20132D2B2032AF8D9A25C9A42F3D001
:10041C000220F1E703460246F5E7F8B507460D461C
:10042C00164604210520FFF7E7FE80210A20FFF77E
:10043C00D7FE002405E0395D0920FFF797FE013453
:10044C00E4B2AC42F7D303210120FFF78FFEFF2467
:10045C000520FFF7A7FE631E13F0FF0402D010F077
:10046C00040FF5D02220FFF79DFE30702120FFF7FE
:10047C0099FE7070F8BD10B584B050238DF808301B
:10048C0000238DF8093002AC0DF10A02022120463E
:10049C00FFF7C3FF03AB00932346042221460C2035
:1004AC00FFF7F6FE04B010BD2DE9F04389B004ADA2
:1004BC00002404940594069407942A4B9A6942F0FC
:1004CC0010029A619A6902F010020092009A9A69DD
:1004DC0042F020029A619A6902F020020192019A7C
:1004EC009A6942F004029A619A6902F0040202923B
:1004FC00029A9A6942F008029A619B6903F0080318
:10050C000393039BDFF8609022464FF4005148465A
:10051C0000F00DFBDFF85480224641F20201404608
:10052C0000F005FB4FF40053049301270597069444
:10053C00022607962946484600F0E8F904970594E8
:10054C00069629460A4800F0E1F941F202030493A9
:10055C000597069407962946404600F0D7F909B04E
:10056C00BDE8F0830010024000100140000C014077
:10057C000008014000B58646002102E0012090B938
:10058C00013103290EDC0023032BF7DC1EF803C01A
:10059C00064A02EB8102D25C944501D10133F3E7A8
:1005AC000020ECE700205DF804FB00BF00000020F9
:1005BC0072B6FEE708B50D480D4B03604FF482731D
:1005CC00436000238360C360036143614FF4007296
:1005DC008261C3610362436283620A23C36200F0D7
:1005EC009BFE00B908BDFFF7E3FF00BF80000020B1
:1005FC000038004000B587B00023029303930493A6
:10060C0005930093019314484FF080420260072237
:10061C00426083604FF6FF72C26003618023836186
:10062C0001F06EF890B94FF48053029302A90A4876
:10063C0001F09EF860B900230093019369460648C7
:10064C0001F016F930B907B05DF804FBFFF7B0FF05
:10065C00FFF7AEFFFFF7ACFF3800002010B590B0ED
:10066C0006AC28220021204601F06BF900230193EF
:10067C000293039304930593012206924FF4803363
:10068C0007930A9202220D920E93204600F0D6FA9E
:10069C0080B90F23019302230293802303934FF419
:1006AC00806304930021059101A800F0F9FC18B9AE
:1006BC0010B010BDFFF77CFFFFF77AFF10B584B0C8
:1006CC0000F082F8FFF7CAFFFFF7EEFEFFF772FFAC
:1006DC00FFF790FF01224FF40051244800F027FA55
:1006EC0000220221224800F022FAFFF7A3FD22E0AB
:1006FC00013C002C0BDD01211E4800F011FA0128F1
:10070C00F6D1012202211A4800F011FAF0E74FF459
:10071C00967000F07DF8FFF7AEFE0022022114481F
:10072C0000F005FA01224FF40051104800F0FFF9D7
:10073C00642000F06DF801A92620FFF72FFE002899
:10074C00EBD102A8FFF744FE0028E0D102A8FFF786
:10075C0011FF0028DBD000224FF40051034800F0B9
:10076C00E6F90A2000F054F8034CC2E700100140EF
:10077C00000C01400008014040420F0010B5044637
:10078C000E4B1A784FF47A73B3FBF2F30C4A1068E1
:10079C00B0FBF3F000F0A6F868B90F2C01D90120DA
:1007AC000AE0002221464FF0FF3000F08BF8054B99
:1007BC001C60002000E0012010BD00BF10000020D4
:1007CC00180000201400002008B5074A136843F0F5
:1007DC0010031360032000F063F80F20FFF7CEFF27
:1007EC0000F0ACF9002008BD00200240034A11685B
:1007FC00034B1B780B441360704700BFD8000020DC
:10080C0010000020014B1868704700BFD800002072
:10081C0038B50446FFF7F6FF0546B4F1FF3F02D0AA
:10082C00044B1B781C44FFF7EDFF401BA042FAD38E
:10083C0038BD00BF10000020002808DB0901C9B238
:10084C0000F1604000F5614080F80013704700F043
:10085C000F000901C9B2014B1954704714ED00E0A7
:10086C0000B500F00700C0F1070CBCF1040F28BF65
:10087C004FF0040C031D062B0FD9C31E4FF0FF3E87
:10088C000EFA0CF021EA000199400EFA03FE22EA5E
:10089C000E0241EA02005DF804FB0023EEE70000C3
:1008AC00074AD36823F4E0631B041B0C000200F41A
:1008BC00E060034343F0BF6343F40033D3607047FD
:1008CC0000ED00E010B50446054BD868C0F30220DB
:1008DC00FFF7C6FF01462046FFF7AEFF10BD00BF75
:1008EC0000ED00E00138B0F1807F0BD24FF0E02337
:1008FC005861054AF02182F82310002098610722E4
:10090C001A6170470120704700ED00E070B582B0AD
:10091C000024A4469EE07C4DAB4214D00CD8A5F527
:10092C008015AB420FD005F57025AB420BD0A5F569
:10093C008015AB421FD106E0744DAB4203D005F5D8
:10094C008035AB4217D18B68A3B1012B0DD042611E
:10095C00082410E0CC680EE0CC6804340BE0CC68C2
:10096C00083408E0CC680C3405E00261082402E08D
:10097C00002400E00424BEF1FF0F37D806464FEAEE
:10098C008C0233680F25954023EA050304FA02F222
:10099C00134333604B6813F0805F59D05C4B9A69FA
:1009AC0042F001029A619B6903F001030193019BE0
:1009BC004FEA9C02951C574B53F825600CF003052D
:1009CC00AD000F23AB4026EA0306534B984214D0DC
:1009DC0003F58063984279D003F58063984277D011
:1009EC0003F58063984206D0042307E0061DACF1A2
:1009FC0008029200C5E7032300E00023AB40334319
:100A0C000232444D45F822304B6813F4801F61D0FC
:100A1C00424A936843EA0E0393604B6813F4001F39
:100A2C005ED03E4AD36843EA0E03D3604B6813F49E
:100A3C00003F5BD0394A536843EA0E0353604B685E
:100A4C0013F4803F58D0354A136843EA0E03136001
:100A5C000CF1010C0B6833FA0CF253D0012202FAA0
:100A6C000CF203EA020E32EA0303F1D14B68122BAB
:100A7C003FF651AF122B3FF67EAF01A555F823F090
:100A8C0053090008610900086B0900087D0900087A
:100A9C0083090008830900088309000883090008FA
:100AAC0083090008830900088309000883090008EA
:100ABC0083090008830900088309000883090008DA
:100ACC00830900086509000871090008012395E7EE
:100ADC00022393E7114A936823EA0E0393609CE781
:100AEC000E4AD36823EA0E03D3609FE70B4A536880
:100AFC0023EA0E035360A2E7084A136823EA0E03A5
:100B0C001360A5E702B070BD000022100000311088
:100B1C0000100240000001400008014000040140A8
:100B2C008368194201D001207047002070470AB138
:100B3C0001617047090401617047000082B00A4BE3
:100B4C009A6942F001029A619A6902F001020092DC
:100B5C00009ADA6942F08052DA61DB6903F0805363
:100B6C000193019B02B070470010024030B587B072
:100B7C00002302930393049305930268184B9A4243
:100B8C0001D007B030BD03F5EC33DA6942F4804292
:100B9C00DA61DA6902F480420092009A9A6942F0B2
:100BAC0008029A619B6903F008030193019B4FF4BF
:100BBC0020430293022303930323059302AD094CB4
:100BCC0029462046FFF7A2FE4FF4804302930023F0
:100BDC000393049329462046FFF798FED1E700BF04
:100BEC0000380040000C01400368B3F1804F00D086
:100BFC00704782B003F50433DA6942F00102DA611E
:100C0C00DB6903F001030193019B02B07047000004
:100C1C0082B0084B1B68084AA2FB03235B0A00FB4B
:100C2C0003F3019300BF019B5A1E0192002BF9D1D3
:100C3C0002B0704718000020D34D6210002800F05D
:100C4C00F18170B582B00446036813F0010F2CD00B
:100C5C00994B5B6803F00C03042B1DD0964B5B681F
:100C6C0003F00C03082B12D06368B3F5803F41D01E
:100C7C00002B55D103F1804303F504331A6822F499
:100C8C0080321A601A6822F480221A6037E08A4B8C
:100C9C005B6813F4803FE7D0874B1B6813F4003F6D
:100CAC0003D06368002B00F0BF81236813F0020FA0
:100CBC0075D0814B5B6813F00C0F5FD07E4B5B687B
:100CCC0003F00C03082B54D02369002B00F08A800E
:100CDC007A4B01221A60FFF795FD0546764B1B688F
:100CEC0013F0020F75D1FFF78DFD401B0228F5D9CB
:100CFC0003209EE1704A136843F4803313606368E9
:100D0C0043B3FFF77FFD05466B4B1B6813F4003FA5
:100D1C00CBD1FFF777FD401B6428F5D9032088E180
:100D2C00B3F5A02F09D0644B1A6822F480321A60F4
:100D3C001A6822F480221A60E1E703F18043A3F5DC
:100D4C003C331A6842F480221A601A6842F48032EA
:100D5C001A60D4E7FFF756FD0546574B1B6813F492
:100D6C00003FA2D0FFF74EFD401B6428F5D90320AD
:100D7C005FE1514B5B6813F4803FA5D14E4B1B6870
:100D8C0013F0020F03D02369012B40F04F814A4A24
:100D9C00136823F0F803616943EAC1031360236805
:100DAC0013F0080F33D0A369002B5CD0434B012206
:100DBC00C3F88024FFF726FD05463F4B5B6A13F012
:100DCC00020F21D1FFF71EFD401B0228F5D903208D
:100DDC002FE1394A136823F0F803616943EAC10330
:100DEC001360DCE7354B00221A60FFF70BFD05465C
:100DFC00314B1B6813F0020FD1D0FFF703FD401BE2
:100E0C000228F5D9032014E10120FFF701FF236824
:100E1C0013F0040F00F09680274BDB6913F0805F12
:100E2C0034D1254BDA6942F08052DA61DB6903F088
:100E3C0080530193019B0125214B1B6813F4807F88
:100E4C0026D0E368012B3DD0002B53D103F1804316
:100E5C0003F504331A6A22F001021A621A6A22F0AC
:100E6C0004021A6233E0154B0022C3F88024FFF70A
:100E7C00C9FC0546104B5B6A13F0020FC7D0FFF795
:100E8C00C1FC401B0228F5D90320D2E00025D3E792
:100E9C000B4A136843F480731360FFF7B3FC0646E8
:100EAC00074B1B6813F4807FCBD1FFF7ABFC801B87
:100EBC006428F5D90320BCE0001002400000424237
:100ECC00007000405F4A136A43F001031362E36849
:100EDC0033B3FFF797FC06465A4B1B6A13F0020F0D
:100EEC002FD1FFF78FFC801B41F288339842F3D946
:100EFC0003209EE0052B09D0524B1A6A22F0010206
:100F0C001A621A6A22F004021A62E0E74D4B1A6A5E
:100F1C0042F004021A621A6A42F001021A62D6E71F
:100F2C00FFF770FC0646474B1B6A13F0020F08D004
:100F3C00FFF768FC801B41F288339842F3D90320F9
:100F4C0077E0E5B9E369002B72D03E4A526802F0B3
:100F5C000C02082A56D0022B17D03B4B00221A66E3
:100F6C00FFF750FC0446374B1B6813F0007F47D04B
:100F7C00FFF748FC001B0228F5D9032059E0314A41
:100F8C00D36923F08053D361DCE72F4B00221A6620
:100F9C00FFF738FC05462B4B1B6813F0007F06D07F
:100FAC00FFF730FC401B0228F5D9032041E0236AEF
:100FBC00B3F5803F1AD023494B6823F47413226A8B
:100FCC00606A024313434B601F4B01221A66FFF702
:100FDC0019FC04461B4B1B6813F0007F0ED1FFF766
:100FEC0011FC001B0228F5D9032022E0154A536896
:100FFC0023F40033A1680B435360DCE7002018E0B6
:10100C00002016E0012B16D00E4B5B6803F48031E8
:10101C00226A914211D103F47013626A93420ED189
:10102C00002006E001207047012002E0012000E0D2
:10103C00002002B070BD0120FBE70120F9E7012080
:10104C00F7E700BF00100240000042420F4B5B6804
:10105C0003F00C02082A01D00D487047C3F38342F9
:10106C000C49885C13F4803F0BD0084B5B68C3F3CE
:10107C004043094AD35C064A02FB00F0B0FBF3F094
:10108C007047064B03FB00F0704700BF0010024096
:10109C0000127A00C4190008C019000800093D00AC
:1010AC00002800F0A08070B50D460446524B1B681A
:1010BC0003F007038B420BD24F4A136823F007034C
:1010CC000B431360136803F007038B4240F08D80D1
:1010DC00236813F0020F17D013F0040F04D0474A03
:1010EC00536843F4E0635360236813F0080F04D093
:1010FC00424A536843F460535360404A536823F0A8
:10110C00F003A1680B435360236813F0010F31D037
:10111C006368012B20D0022B25D0384A126812F0BC
:10112C00020F64D035494A6822F0030213434B6026
:10113C00FFF768FB0646314B5B6803F00C036268F3
:10114C00B3EB820F16D0FFF75DFB801B41F28833A7
:10115C009842F0D9032045E0284A126812F4003F67
:10116C00E0D101203EE0254A126812F0007FD9D16F
:10117C00012037E0204B1B6803F00703AB420AD970
:10118C001D4A136823F007032B431360136803F005
:10119C000703AB422DD1236813F0040F06D0174A76
:1011AC00536823F4E063E1680B435360236813F046
:1011BC00080F07D0114A536823F46053216943EA9E
:1011CC00C1035360FFF742FF0C4B5B68C3F303137F
:1011DC000B4AD35CD8400B4B18600B4B1868FFF7CD
:1011EC00CDFA002070BD012070470120FAE70120E4
:1011FC00F8E70120F6E700BF002002400010024093
:10120C00D419000818000020140000202DE9F04724
:10121C0082B00546884617461E46FFF7F3FA0A9B2E
:10122C001B1A03EB0609FFF7EDFA8246284B1B68E5
:10123C00C3F3CB3309FB03F301932B689C6838EAA7
:10124C0004040CBF01230023BB423DD0B6F1FF3F89
:10125C00F3D0FFF7D7FAA0EB0A00484507D2019A62
:10126C0002B14A46019B013B01939146E5E72A688E
:10127C00536823F0E00353606B68B3F5827F0BD0A7
:10128C00AB6AB3F5005F14D0012385F8513000230D
:10129C0085F85030032018E0AB68B3F5004F02D04E
:1012AC00B3F5806FECD12A68136823F04003136008
:1012BC00E6E72A68136823F4005313602A6813685E
:1012CC0043F400531360DFE7002002B0BDE8F08761
:1012DC001800002070B582B006460C4615460092E8
:1012EC000B4601220221FFF791FF48B900952346D6
:1012FC00002280213046FFF789FF38B902B070BD5B
:10130C00736D43F0200373650320F7E7736D43F0AF
:10131C00200373650320F1E7002856D010B504466E
:10132C00436A33B94368B3F5827F05D00023C361A8
:10133C0002E00023036143610023A36294F851305F
:10134C00002B3CD0022384F851302268136823F020
:10135C0040031360636803F48273A26802F40442CE
:10136C001343E26802F400621343226902F00202A2
:10137C001343626902F001021343A26902F4007282
:10138C001343E26902F038021343226A02F080022E
:10139C001343A26A02F40052216813430B60638B5F
:1013AC00226803F0040353602268D36923F40063BA
:1013BC00D36100206065012384F8513010BD84F89E
:1013CC0050302046FFF7D2FBBCE7012070472DE9D7
:1013DC00F04383B00446884691461F460A9DFFF7AA
:1013EC0011FA064694F851306268012B0BD0D9B231
:1013FC00B2F5827F40F00481A368002B40F0048199
:10140C00042940F00381B8F1000F00F00181B9F11B
:10141C00000F00F0FF80002F00F0FE8094F8503099
:10142C00012B00F0FB80012384F8503094F85130EC
:10143C00042B02D0052384F8513000236365C4F8D3
:10144C003890E787A787C4F83080E786A78623649F
:10145C00636423681A6812F0400F03D11A6842F0D3
:10146C0040021A60E368B3F5006F11D063680BB1EA
:10147C00012F0BD1226B236812781A73236B013363
:10148C002363E38E9BB2013B9BB2E386012771E0A1
:10149C0063680BB1012F0BD1226B23681288DA60C1
:1014AC00236B02332363E38E9BB2013B9BB2E38637
:1014BC0001271BE023689A6812F0010F0ED0E28F0F
:1014CC0092B25AB1DA68A36B1A80A36B0233A3638E
:1014DC00E38F9BB2013B9BB2E3870127FFF792F9A5
:1014EC00801BA84202D3B5F1FF3F1ED1E38E9BB205
:1014FC001BB9E38F9BB2002B62D023689A6812F061
:10150C00020FD7D0E28E92B2002AD3D0002FD1D0C6
:10151C00226B1288DA60236B02332363E38E9BB257
:10152C00013B9BB2E3860027C4E7012384F85130CA
:10153C00002384F85030032063E023689A6812F08B
:10154C00010F0ED0E28F92B25AB1DA68A36B1A7007
:10155C00A36B0133A363E38F9BB2013B9BB2E38785
:10156C000127FFF74FF9831BAB4202D3B5F1FF3FC5
:10157C001ED1EDB1E38E9BB213B9E38F9BB2FBB1DD
:10158C0023689A6812F0020FD7D0E28E92B2002A2A
:10159C00D3D0002FD1D0226B12781A73236B013366
:1015AC002363E38E9BB2013B9BB2E3860027C4E727
:1015BC00012384F85130002384F85030032020E0BC
:1015CC00324629462046FFF785FE90B9A36833B909
:1015DC0001932368DA6801929B680193019B0123B4
:1015EC0084F85130002384F85030636D4BB10120E6
:1015FC0007E020236365002384F85030012000E0CD
:10160C00022003B0BDE8F0830220FAE70220F8E7DD
:10161C000120F6E70120F4E70120F2E70220F0E7D1
:10162C0010B4036A046A24F001040462846924F08F
:10163C00F00C4CEA021223F00A030B4382610362A2
:10164C0010BC704710B4036A046A24F010040462DE
:10165C00846924F4704C4CEA023223F0A00343EA70
:10166C0001138261036210BC7047836823F070031E
:10167C000B4343F0070383607047000003681F4A65
:10168C0090420AD0B0F1804F07D0A2F5943290422C
:10169C0003D002F58062904203D123F070034A68B4
:1016AC001343164A90420AD0B0F1804F07D0A2F5EE
:1016BC009432904203D002F58062904203D123F41D
:1016CC004073CA68134323F080034A6913430360D1
:1016DC008B68C3620B688362084B98420AD0012363
:1016EC004361036913F0010F03D0036923F0010375
:1016FC00036170470B690363F1E700BF002C0140E5
:10170C0040B310B5044690F83D30F3B1022384F891
:10171C003D30214651F8040BFFF7B0FF012384F84C
:10172C00463084F83E3084F83F3084F8403084F8FA
:10173C00413084F8423084F8433084F8443084F8E3
:10174C00453084F83D30002010BD80F83C30FFF768
:10175C004BFADBE70120704710B4846824F47F4C0B
:10176C0042EA03220A4342EA0C02826010BC704730
:10177C0090F83C30012B78D010B50446012380F84A
:10178C003C30022380F83D300268936823F47F4399
:10179C0023F0770393600B68602B4CD023D8402B3D
:1017AC0054D011D8202B03D00AD80BB1102B05D153
:1017BC0019462068FFF759FF002028E0012026E099
:1017CC00302BF5D0012022E0502B0AD1CA68496891
:1017DC000068FFF725FF50212068FFF746FF002027
:1017EC0015E0012013E0B3F5805F3AD0B3F5005F4C
:1017FC0014D0702B37D1CB684A6889680068FFF722
:10180C00ABFF2268936843F07703936000200123B9
:10181C0084F83D30002384F83C3010BDCB684A6816
:10182C0089680068FFF798FF2268936843F4804347
:10183C0093600020EBE7CA6849680068FFF702FF75
:10184C0060212068FFF711FF0020E0E7CA684968B3
:10185C000068FFF7E5FE40212068FFF706FF002037
:10186C00D5E70020D3E70120D1E702207047000024
:10187C0090F83C20012A2CD010B40346012280F8A9
:10188C003C20022280F83D2002685068946820F0C9
:10189C00700C086840EA0C0050601A680E488242CE
:1018AC000AD0B2F1804F07D0A0F59430824203D019
:1018BC0000F58060824204D124F080044968214301
:1018CC009160012283F83D20002083F83C0010BC7D
:1018DC0070470220704700BF002C0140FEE7FEE776
:1018EC00FEE7FEE7FEE770477047704708B5FEF766
:1018FC007DFF08BD70470000FFF7FCFF0B480C494B
:10190C000C4A002302E0D458C4500433C4188C424F
:10191C00F9D3094A094C002301E013600432A242B6
:10192C00FBD300F017F8FEF7C9FE7047000000204B
:10193C001C000020EC1900081C000020DC0000201A
:10194C00FEE703460244934200D1704703F8011BA3
:10195C00F9E7000070B500260C4D0D4B5B1B9C107D
:10196C00A64209D1002600F019F80A4D0A4B5B1B60
:10197C009C10A64205D170BD55F8043B9847013622
:10198C00EEE755F8043B98470136F2E7E4190008F6
:10199C00E4190008E4190008E8190008F8B500BFBC
:1019AC00F8BC08BC9E467047F8B500BFF8BC08BC34
:0419BC009E4670478C
:1019C0000102000002030405060708090A0B0C0DBA
:1019D0000E0F1010000000000000000001020304C0
:0419E00006070809E5
:0419E40031010008C5
:0419E8000D010008E5
:1019EC009250ECCACA4FF874FA8AB45FC7BA85959C
:0C19FC00010000001000000000127A0042
:0400000508001905D1
:00000001FF
