:020000040800F2
:1000000000500020211700080517000807170008F6
:10001000091700080B1700080D1700080000000062
:100020000000000000000000000000000F170008A2
:10003000111700080000000013170008151700082A
:100040006917000869170008691700086917000890
:100050006917000869170008691700086917000880
:100060006917000869170008691700086917000870
:100070006917000869170008691700086917000860
:100080006917000869170008691700086917000850
:100090006917000869170008691700086917000840
:1000A0006917000869170008691700086917000830
:1000B0006917000869170008691700086917000820
:1000C0006917000869170008691700086917000810
:1000D0006917000869170008691700086917000800
:1000E0006917000869170008691700080000000078
:1000F0000000000000000000000000000000000000
:0C01000000000000000000005FF808F1A3
:10010C0010B5054C237833B9044B13B10448AFF345
:10011C0000800123237010BD0C00002000000000A3
:10012C00C417000808B5034B1BB103490348AFF3D0
:10013C00008008BD0000000010000020C41700085B
:10014C0070B588B004AD002404940594069407940B
:10015C001C4B9A6942F010029A619A6902F01002E3
:10016C000192019A9A6942F020029A619A6902F00E
:10017C0020020292029A9A6942F004029A619B69E7
:10018C0003F004030393039B0F4E22464FF40051DC
:10019C00304600F0FFFB4FF400530493012305930A
:1001AC000694022407942946304600F0E9FA4FF4ED
:1001BC0080630493059407942946044800F0E0FA00
:1001CC0008B070BD00100240001001400008014052
:1001DC0072B6FEE700B585B000230193029303933A
:1001EC000F48104A02608360037303754FF460225A
:1001FC00C26143600123036100F0D4F960B90023AC
:10020C00019301220292039301A9054800F0FEF824
:10021C0020B905B05DF804FBFFF7DAFFFFF7D8FF54
:10022C00B80000200024014000B58BB000230893D7
:10023C0009930193029303930493059306930793F5
:10024C0017484FF080420260436083604FF6FF72A4
:10025C00C2600361836101F0D7F8D0B90023089321
:10026C00099308A90E4801F097F9A0B960230193EE
:10027C00002302930393059304220DEB020108481B
:10028C0001F01CF948B9064800F0F0FB0BB05DF822
:10029C0004FBFFF79DFFFFF79BFFFFF799FF00BFE4
:1002AC007000002008B50A480A4B03604FF416533F
:1002BC00436000238360C36003610C22426183614D
:1002CC00C36101F0E9F900B908BDFFF781FF00BF78
:1002DC00280000200044004010B594B00AAC28223D
:1002EC000021204601F03BFA002305930693079367
:1002FC0008930993019302930393049301220A92A6
:10030C004FF480330B930E920222119212934FF4FE
:10031C00E0131393204600F01FFCC0B90F23059384
:10032C0002210691002307934FF4806208920993EF
:10033C0005A800F043FE60B9022301934FF400437B
:10034C00039301A800F016FF28B914B010BDFFF7F5
:10035C003FFFFFF73DFFFFF73BFF08B500F032F81A
:10036C00FFF7BAFFFFF7ECFEFFF734FFFFF75CFF78
:10037C00FFF798FFFEE7000010B504460E4B1A7805
:10038C004FF47A73B3FBF2F30C4A1068B0FBF3F042
:10039C0000F0E2F968B90F2C01D901200AE0002223
:1003AC0021464FF0FF3000F0C7F9054B1C600020D0
:1003BC0000E0012010BD00BF00000020080000205C
:1003CC000400002008B5074A136843F010031360BB
:1003DC00032000F09FF90F20FFF7CEFF00F0E0FAAA
:1003EC00002008BD00200240034A1168034B1B7813
:1003FC000B441360704700BFE80000200000002091
:10040C00014B1868704700BFE800002030B482B080
:10041C000022019290F82420012A00F08F800346DC
:10042C00012280F824204A68062A2DD80468606BC3
:10043C0002EB8202053A4FF01F0C0CFA02FC20EA88
:10044C000C000D6805FA02F2024362630A68092A7D
:10045C0038D91C68E06802EB42021E3A4FF0070CD8
:10046C000CFA02FC20EA0C008D6805FA02F2024339
:10047C00E2600A68103A012A34D90020002283F87D
:10048C00242002B030BC70470C2A0DD80568286BAC
:10049C0002EB8202233A1F24944020EA04000C68E9
:1004AC00944020432863D1E70568E86A02EB820296
:1004BC00413A1F24944020EA04000C6894402043E5
:1004CC00E862C3E71C68206902EB42024FF0070C9C
:1004DC000CFA02FC20EA0C008D6805FA02F20243C9
:1004EC002261C6E71A681648824205D09A6A42F021
:1004FC0020029A620120C1E7906810F4000F1BD112
:10050C00906840F4000090600A68102A01D0002026
:10051C00B4E70C4A12680C49A1FB0212920C02EBD4
:10052C0082025200019202E0019A013A0192019A70
:10053C00002AF9D10020A1E700209FE70220A0E7C4
:10054C00002401400800002083DE1B4338B50368FB
:10055C009A6812F0010F01D1002038BD04469A6848
:10056C0022F001029A60FFF74BFF054623689B6857
:10057C0013F0010F13D0FFF743FF431B022BF5D9E8
:10058C0023689B6813F0010FF0D0A36A43F01003AB
:10059C00A362E36A43F00103E3620120DDE700207C
:1005AC00DBE7000000287BD070B50446836A002B83
:1005BC004DD02046FFF7CAFFA36A13F0100369D190
:1005CC00002867D1A26A22F4885222F0020242F07B
:1005DC000202A2626268E1690A43217B42EA41029B
:1005EC00A568B5F5807F02D0012D36D01D46267D3D
:1005FC00012E35D02668716821F469412943716058
:10060C002568AE68274931401143A960A168B1F54E
:10061C00807F01D0012902D12369013B1B0525688C
:10062C00E96A21F470010B43EB62236899681E4B55
:10063C000B409A4225D0A36A23F0120343F0100317
:10064C00A362E36A43F00103E362012027E0C36283
:10065C0080F8243000F0C6F9ABE74FF48075C6E79C
:10066C0031B9A169013945EA413141F40065C1E76D
:10067C00A16A41F02001A162E16A41F00101E1624D
:10068C00B8E70023E362A36A23F0030343F00103FA
:10069C00A36204E0A36A43F01003A362012070BDBF
:1006AC0001207047FDF7E1FFFE0E1FFF002808DB5D
:1006BC000901C9B200F1604000F5614080F80013F7
:1006CC00704700F00F000901C9B2014B1954704773
:1006DC0014ED00E000B500F00700C0F1070CBCF110
:1006EC00040F28BF4FF0040C031D062B0FD9C31E9B
:1006FC004FF0FF3E0EFA0CF021EA000199400EFA81
:10070C0003FE22EA0E0241EA02005DF804FB00231C
:10071C00EEE70000074AD36823F4E0631B041B0CCC
:10072C00000200F4E060034343F0BF6343F4003382
:10073C00D360704700ED00E010B50446054BD86857
:10074C00C0F30220FFF7C6FF01462046FFF7AEFFBD
:10075C0010BD00BF00ED00E00138B0F1807F0BD27E
:10076C004FF0E0235861054AF02182F82310002055
:10077C00986107221A6170470120704700ED00E074
:10078C0070B582B00024A4469EE07C4DAB4214D0E0
:10079C000CD8A5F58015AB420FD005F57025AB42F2
:1007AC000BD0A5F58015AB421FD106E0744DAB42C2
:1007BC0003D005F58035AB4217D18B68A3B1012B63
:1007CC000DD04261082410E0CC680EE0CC680434F3
:1007DC000BE0CC68083408E0CC680C3405E002610E
:1007EC00082402E0002400E00424BEF1FF0F37D8F7
:1007FC0006464FEA8C0233680F25954023EA050321
:10080C0004FA02F2134333604B6813F0805F59D043
:10081C005C4B9A6942F001029A619B6903F00103F7
:10082C000193019B4FEA9C02951C574B53F8256092
:10083C000CF00305AD000F23AB4026EA0306534B27
:10084C00984214D003F58063984279D003F5806305
:10085C00984277D003F58063984206D0042307E0D2
:10086C00061DACF108029200C5E7032300E000234B
:10087C00AB4033430232444D45F822304B6813F4FD
:10088C00801F61D0424A936843EA0E0393604B6821
:10089C0013F4001F5ED03E4AD36843EA0E03D360C4
:1008AC004B6813F4003F5BD0394A536843EA0E039C
:1008BC0053604B6813F4803F58D0354A136843EAB1
:1008CC000E0313600CF1010C0B6833FA0CF253D0CD
:1008DC00012202FA0CF203EA020E32EA0303F1D10E
:1008EC004B68122B3FF651AF122B3FF67EAF01A592
:1008FC0055F823F0C7070008D5070008DF070008E4
:10090C00F1070008F7070008F7070008F7070008C9
:10091C00F7070008F7070008F7070008F7070008B3
:10092C00F7070008F7070008F7070008F7070008A3
:10093C00F7070008F7070008D9070008E5070008C3
:10094C00012395E7022393E7114A936823EA0E03E8
:10095C0093609CE70E4AD36823EA0E03D3609FE7AB
:10096C000B4A536823EA0E035360A2E7084A136844
:10097C0023EA0E031360A5E702B070BD000022103D
:10098C00000031100010024000000140000801403E
:10099C00000401400AB1016170470904016170470C
:1009AC0082B00E4B9A6942F001029A619A6902F088
:1009BC0001020092009ADA6942F08052DA61DB6936
:1009CC0003F080530193019B054A536823F0E063C5
:1009DC0043F00073536002B0704700BF0010024038
:1009EC000000014000B587B00023029303930493E9
:1009FC0005930268114B9A4202D007B05DF804FBD4
:100A0C0003F56C439A6942F400729A619A6902F494
:100A1C0000720092009A9A6942F004029A619B69F2
:100A2C0003F004030193019B01230293032303931B
:100A3C0002A90348FFF7A4FEDFE700BF0024014032
:100A4C00000801400368B3F1804F00D0704782B0BA
:100A5C0003F50433DA6942F00102DA61DB6903F071
:100A6C0001030193019B02B07047000000B587B0F1
:100A7C00002302930393049305930368B3F1804F0F
:100A8C0002D007B05DF804FB03F504339A6942F019
:100A9C0004029A619B6903F004030193019B0223F6
:100AAC0002930393059302A90148FFF769FEE8E757
:100ABC000008014030B587B00023029303930493E0
:100ACC0005930268174B9A4201D007B030BD03F56D
:100ADC00E633DA6942F40032DA61DA6902F40032A0
:100AEC000092009A9A6942F004029A619B6903F0A1
:100AFC0004030193019B0423029302230393032316
:100B0C00059302AD084C29462046FFF739FE082311
:100B1C00029300230393049329462046FFF730FEEB
:100B2C00D3E700BF004400400008014082B0084BEE
:100B3C001B68084AA2FB03235B0A00FB03F3019327
:100B4C0000BF019B5A1E0192002BF9D102B07047D5
:100B5C0008000020D34D6210002800F0F18170B520
:100B6C0082B00446036813F0010F2CD0994B5B68DC
:100B7C0003F00C03042B1DD0964B5B6803F00C03A5
:100B8C00082B12D06368B3F5803F41D0002B55D1B0
:100B9C0003F1804303F504331A6822F480321A609F
:100BAC001A6822F480221A6037E08A4B5B6813F4CF
:100BBC00803FE7D0874B1B6813F4003F03D063687A
:100BCC00002B00F0BF81236813F0020F75D0814B0E
:100BDC005B6813F00C0F5FD07E4B5B6803F00C036B
:100BEC00082B54D02369002B00F08A807A4B012209
:100BFC001A60FFF705FC0546764B1B6813F0020FD5
:100C0C0075D1FFF7FDFB401B0228F5D903209EE1AF
:100C1C00704A136843F480331360636843B3FFF77F
:100C2C00EFFB05466B4B1B6813F4003FCBD1FFF772
:100C3C00E7FB401B6428F5D9032088E1B3F5A02F0E
:100C4C0009D0644B1A6822F480321A601A6822F4B4
:100C5C0080221A60E1E703F18043A3F53C331A6864
:100C6C0042F480221A601A6842F480321A60D4E787
:100C7C00FFF7C6FB0546574B1B6813F4003FA2D089
:100C8C00FFF7BEFB401B6428F5D903205FE1514BF5
:100C9C005B6813F4803FA5D14E4B1B6813F0020F19
:100CAC0003D02369012B40F04F814A4A136823F08B
:100CBC00F803616943EAC1031360236813F0080F5A
:100CCC0033D0A369002B5CD0434B0122C3F88024A2
:100CDC00FFF796FB05463F4B5B6A13F0020F21D1E1
:100CEC00FFF78EFB401B0228F5D903202FE1394A70
:100CFC00136823F0F803616943EAC1031360DCE76E
:100D0C00354B00221A60FFF77BFB0546314B1B6805
:100D1C0013F0020FD1D0FFF773FB401B0228F5D95B
:100D2C00032014E10120FFF701FF236813F0040FE7
:100D3C0000F09680274BDB6913F0805F34D1254B94
:100D4C00DA6942F08052DA61DB6903F08053019377
:100D5C00019B0125214B1B6813F4807F26D0E3688F
:100D6C00012B3DD0002B53D103F1804303F5043309
:100D7C001A6A22F001021A621A6A22F004021A623A
:100D8C0033E0154B0022C3F88024FFF739FB0546EE
:100D9C00104B5B6A13F0020FC7D0FFF731FB401BFF
:100DAC000228F5D90320D2E00025D3E70B4A1368BB
:100DBC0043F480731360FFF723FB0646074B1B6855
:100DCC0013F4807FCBD1FFF71BFB801B6428F5D974
:100DDC000320BCE0001002400000424200700040C2
:100DEC005F4A136A43F001031362E36833B3FFF7FE
:100DFC0007FB06465A4B1B6A13F0020F2FD1FFF765
:100E0C00FFFA801B41F288339842F3D903209EE00D
:100E1C00052B09D0524B1A6A22F001021A621A6A87
:100E2C0022F004021A62E0E74D4B1A6A42F0040207
:100E3C001A621A6A42F001021A62D6E7FFF7E0FA68
:100E4C000646474B1B6A13F0020F08D0FFF7D8FA7F
:100E5C00801B41F288339842F3D9032077E0E5B93F
:100E6C00E369002B72D03E4A526802F00C02082A49
:100E7C0056D0022B17D03B4B00221A66FFF7C0FA54
:100E8C000446374B1B6813F0007F47D0FFF7B8FAC6
:100E9C00001B0228F5D9032059E0314AD36923F00D
:100EAC008053D361DCE72F4B00221A66FFF7A8FAB8
:100EBC0005462B4B1B6813F0007F06D0FFF7A0FAFA
:100ECC00401B0228F5D9032041E0236AB3F5803F8B
:100EDC001AD023494B6823F47413226A606A0243C4
:100EEC0013434B601F4B01221A66FFF789FA044625
:100EFC001B4B1B6813F0007F0ED1FFF781FA001B10
:100F0C000228F5D9032022E0154A536823F4003354
:100F1C00A1680B435360DCE7002018E0002016E0CA
:100F2C00012B16D00E4B5B6803F48031226A914280
:100F3C0011D103F47013626A93420ED1002006E0C3
:100F4C0001207047012002E0012000E0002002B0E7
:100F5C0070BD0120FBE70120F9E70120F7E700BF96
:100F6C0000100240000042420F4B5B6803F00C0281
:100F7C00082A01D00D487047C3F383420C49885CA2
:100F8C0013F4803F0BD0084B5B68C3F34043094A12
:100F9C00D35C064A02FB00F0B0FBF3F07047064B43
:100FAC0003FB00F0704700BF0010024000127A00F3
:100FBC00E0170008DC17000800093D00002800F0CD
:100FCC00A08070B50D460446524B1B6803F0070316
:100FDC008B420BD24F4A136823F007030B43136069
:100FEC00136803F007038B4240F08D80236813F0E5
:100FFC00020F17D013F0040F04D0474A536843F480
:10100C00E0635360236813F0080F04D0424A53681E
:10101C0043F460535360404A536823F0F003A168D3
:10102C000B435360236813F0010F31D06368012B1D
:10103C0020D0022B25D0384A126812F0020F64D04F
:10104C0035494A6822F0030213434B60FFF7D8F985
:10105C000646314B5B6803F00C036268B3EB820FFE
:10106C0016D0FFF7CDF9801B41F288339842F0D9A6
:10107C00032045E0284A126812F4003FE0D1012019
:10108C003EE0254A126812F0007FD9D1012037E0EA
:10109C00204B1B6803F00703AB420AD91D4A1368A7
:1010AC0023F007032B431360136803F00703AB42D1
:1010BC002DD1236813F0040F06D0174A536823F47C
:1010CC00E063E1680B435360236813F0080F07D00B
:1010DC00114A536823F46053216943EAC1035360F6
:1010EC00FFF742FF0C4B5B68C3F303130B4AD35C53
:1010FC00D8400B4B18600B4B1868FFF73DF90020DC
:10110C0070BD012070470120FAE70120F8E70120AB
:10111C00F6E700BF0020024000100240F81700085C
:10112C000800002004000020014B1868704700BF25
:10113C000800002008B5FFF7F7FF044B5B68C3F30A
:10114C000223034AD35CD84008BD00BF0010024004
:10115C00F017000808B5FFF7E7FF044B5B68C3F313
:10116C00C223034AD35CD84008BD00BF0010024024
:10117C00F017000870B582B00446036813F0010F35
:10118C0036D03F4BDB6913F0805F4AD13C4BDA69B8
:10119C0042F08052DA61DB6903F080530193019BCA
:1011AC000125384B1B6813F4807F3CD0344B1B6AF1
:1011BC0013F4407313D0626802F440729A420ED05A
:1011CC002F4A136A23F440702F490126C1F840645A
:1011DC000026C1F84064106213F0010F37D1284A81
:1011EC00136A23F4407361680B431362002D3FD1E3
:1011FC00236813F0020F06D0214A536823F44043AE
:10120C00A1680B435360236813F0100F35D01C4AB0
:10121C00536823F48003E1680B435360002002B051
:10122C0070BD0025BDE7174A136843F48073136043
:10123C00FFF7E6F80646134B1B6813F4807FB5D115
:10124C00FFF7DEF8801B6428F5D90320E7E7FFF7EA
:10125C00D7F806460A4B1B6A13F0020FBFD1FFF7F3
:10126C00CFF8801B41F288339842F3D90320D6E79C
:10127C00D36923F08053D361BAE70020CFE700BFD6
:10128C0000100240007000400000424230B4026A7C
:10129C00036A23F0010303624568836923F0730337
:1012AC000C681C4322F002028B6813430B4A9042D9
:1012BC0006D0456084614A684263036230BC704763
:1012CC0023F00803CA681A4322F0040325F440757E
:1012DC004A692A438D691543EBE700BF002C014096
:1012EC0030B4036A026A22F4807202624468C269F2
:1012FC0022F073020D68154323F400738A6843EAE5
:10130C0002230D4A904206D04460C5614A68C2630C
:10131C00036230BC704723F40063CA6843EA0223BB
:10132C0023F4806324F440544A6944EA02148A6921
:10133C0044EA0214E8E700BF002C014030B4036A11
:10134C00026A22F4805202624468C26922F4E642C4
:10135C000D6842EA052223F400538D6843EA0533F5
:10136C00074DA84206D04460C2614A680264036219
:10137C0030BC704724F480444D6944EA8514F2E78C
:10138C00002C014003681F4A90420AD0B0F1804FF4
:10139C0007D0A2F59432904203D002F580629042BD
:1013AC0003D123F070034A681343164A90420AD0C3
:1013BC00B0F1804F07D0A2F59432904203D002F5E1
:1013CC008062904203D123F44073CA68134323F024
:1013DC0080034A69134303608B68C3620B688362A2
:1013EC00084B98420AD001234361036913F0010FA3
:1013FC0003D0036923F00103036170470B69036396
:10140C00F1E700BF002C014040B310B5044690F842
:10141C003D30F3B1022384F83D30214651F8040BE2
:10142C00FFF7B0FF012384F8463084F83E3084F88F
:10143C003F3084F8403084F8413084F8423084F8EE
:10144C00433084F8443084F8453084F83D30002033
:10145C0010BD80F83C30FFF7F5FADBE70120704750
:10146C0030B4036A026A22F0100202624468826994
:10147C0022F4E6420D6842EA052223F020038D682F
:10148C0043EA05130C4DA84206D0446082614A68B9
:10149C008263036230BC704723F08003CD6843EA5B
:1014AC00051323F0400324F440644D6944EA850499
:1014BC008D6944EA8504E8E7002C014038B590F8C2
:1014CC003C30012B66D004460D46012380F83C309D
:1014DC000C2A5AD8DFE802F0075959591B595959A7
:1014EC003059595944000068FFF7D0FE22689369BF
:1014FC0043F0080393612268936923F0040393611A
:10150C002268936929690B43936100203EE00068CF
:10151C00FFF7A6FF2268936943F400639361226886
:10152C00936923F48063936122689369296943EA80
:10153C0001239361002029E00068FFF7D1FE2268A7
:10154C00D36943F00803D3612268D36923F0040301
:10155C00D3612268D36929690B43D361002015E05C
:10156C000068FFF7EBFE2268D36943F40063D36194
:10157C002268D36923F48063D3612268D369296913
:10158C0043EA0123D361002000E00120002384F80A
:10159C003C3038BD0220FCE790F83C20012A2CD0CE
:1015AC0010B40346012280F83C20022280F83D2032
:1015BC0002685068946820F0700C086840EA0C00CF
:1015CC0050601A680E4882420AD0B2F1804F07D0A0
:1015DC00A0F59430824203D000F58060824204D1A1
:1015EC0024F08004496821439160012283F83D2056
:1015FC00002083F83C0010BC70470220704700BFED
:10160C00002C014010B504460268136923F44053C2
:10161C00C1680B43136183680269134342691A431F
:10162C000168CB6823F4B05323F00C031343CB6055
:10163C000268536923F4407381690B435361026858
:10164C00134B9A4220D0FFF775FD024602EB820243
:10165C0002EB820263689B00B2FBF3F20D48A0FB25
:10166C0002314909642303FB11231B013233A0FB14
:10167C0003035B0903F0F00202EB011203F00F030A
:10168C00216813448B6010BDFFF764FD0246DDE753
:10169C00003801401F85EB5160B310B5044690F83B
:1016AC00413013B3242384F841302268D36823F4E7
:1016BC000053D3602046FFF7A5FF2268136923F47B
:1016CC00904313612268536923F02A035361226803
:1016DC00D36843F40053D36000206064202384F863
:1016EC00413084F84230606310BD80F84030FFF721
:1016FC00E1F9D7E701207047FEE7FEE7FEE7FEE7DA
:10170C00FEE770477047704708B5FEF76DFE08BDE1
:10171C0070470000FFF7FCFF0B480C490C4A0023F4
:10172C0002E0D458C4500433C4188C42F9D3094A8B
:10173C00094C002301E013600432A242FBD300F0F9
:10174C0017F8FEF70AFE7047000000200C0000207E
:10175C00101800080C000020EC000020FEE70346E7
:10176C000244934200D1704703F8011BF9E70000D3
:10177C0070B500260C4D0D4B5B1B9C10A64209D17D
:10178C00002600F019F80A4D0A4B5B1B9C10A64270
:10179C0005D170BD55F8043B98470136EEE755F876
:1017AC00043B98470136F2E70818000808180008AF
:1017BC00081800080C180008F8B500BFF8BC08BCE5
:1017CC009E467047F8B500BFF8BC08BC9E467047F3
:1017DC000102000002030405060708090A0B0C0DA0
:1017EC000E0F1010000000000102030400000000A6
:0C17FC00000000000102030406070809B9
:0418080031010008A2
:04180C000D010008C2
:0C181000010000001000000000127A002F
:0400000508001721B7
:00000001FF
