:020000040800F2
:1000000000500020791E0008151E0008171E000869
:10001000191E00081B1E00081D1E0008000000001D
:100020000000000000000000000000001F1E00088B
:10003000211E000800000000231E0008251E0008E5
:10004000C11E0008C11E0008C11E0008C11E000814
:10005000C11E0008C11E0008C11E0008C11E000804
:10006000C11E0008C11E0008C11E0008C11E0008F4
:10007000C11E0008C11E0008C11E0008C11E0008E4
:10008000C11E0008C11E0008C11E0008C11E0008D4
:10009000C11E0008C11E0008C11E0008C11E0008C4
:1000A000C11E0008C11E0008C11E0008C11E0008B4
:1000B000C11E0008C11E0008C11E0008C11E0008A4
:1000C000C11E0008C11E0008C11E0008C11E000894
:1000D000C11E0008C11E0008C11E0008C11E000884
:1000E000C11E0008C11E0008C11E0008000000005B
:1000F0000000000000000000000000000000000000
:0C01000000000000000000005FF808F1A3
:10010C0010B5054C237833B9044B13B10448AFF345
:10011C0000800123237010BD8C0000200000000023
:10012C003028000808B5034B1BB103490348AFF353
:10013C00008008BD0000000090000020302800085E
:10014C0082B00A4B9A6942F020029A619A6902F0D5
:10015C0020020092009A9A6942F004029A619B690B
:10016C0003F004030193019B02B07047001002409E
:10017C0072B6FEE700B585B000230193029303939A
:10018C000F48104A026083600122027303754FF41A
:10019C006021C1614360026100F0A6FB60B90023DD
:1001AC00019301220292039301A9054800F018FA69
:1001BC0020B905B05DF804FBFFF7DAFFFFF7D8FFB5
:1001CC00380100200024014010B592B00024109496
:1001DC00119409940A940B940C940D940E940F940E
:1001EC002022214601A801F089FE2048204B036003
:1001FC004723436084606423C36004614461846169
:10020C0001F010FB002829D100231093119310A9A1
:10021C00164801F049FC18BB6023099300220A928E
:10022C000B920C920D920E920F9209A90F4801F0AD
:10023C0053FBB8B9002301930293039304930593E2
:10024C004FF400520692089301A9084801F062FC91
:10025C0050B9064800F0A8FD12B010BDFFF788FF9A
:10026C00FFF786FFFFF784FFFFF782FFF000002007
:10027C00002C014008B50A480A4B03604FF4E133E7
:10028C00436000238360C36003610C22426183617D
:10029C00C36101F024FD00B908BDFFF769FF00BF81
:1002AC00A80000200044004010B594B00AAC2822ED
:1002BC000021204601F022FE0023059306930793AC
:1002CC0008930993019302930393049301220A92D6
:1002DC004FF480330B930E920222119212934FF42F
:1002EC00E0131393204600F0D9FDC0B90F230593FA
:1002FC0002210691002307934FF480620892099320
:10030C0005A800F0FDFF60B9022301934FF40043F0
:10031C00039301A801F0D0F828B914B010BDFFF771
:10032C0027FFFFF725FFFFF723FF000008B500F0BC
:10033C006DF8FFF7B9FFFFF703FFFFF71BFFFFF7A0
:10034C0043FFFFF797FF164800F02EFA00211548DF
:10035C0001F040FB124C6421204600F07BF8204653
:10036C0000F03AF9104B1860642303FB00F00F4BBC
:10037C0083FB00230344C217C2EBE3220C4B1A602D
:10038C00084B1B685A630B4C0B49204601F094FD3B
:10039C004FF47A7332222146084801F0D0FCD9E799
:1003AC0038010020F0000020680100208100088046
:1003BC006C0100200000002048280008A800002044
:1003CC0010B504460E4B1A784FF47A73B3FBF2F364
:1003DC000C4A1068B0FBF3F000F060FB68B90F2C0E
:1003EC0001D901200AE0002221464FF0FF3000F035
:1003FC0045FB054B1C60002000E0012010BD00BF38
:10040C0032000020380000203400002008B5074AD4
:10041C00136843F010031360032000F01DFB0F2042
:10042C00FFF7CEFF00F058FC002008BD0020024072
:10043C00034A1168034B1B780B441360704700BFD1
:10044C007001002032000020014B1868704700BF7B
:10045C0070010020F0B583B005460C4600230193D3
:10046C00FFF7F2FF2B689A6812F4807F23D10746BE
:10047C005A6812F4807F03D1DB6A13F4700F29D011
:10048C00504B1E68022001F0A3F8B6FBF0F62B6867
:10049C0019694D4A114236D1D96802F15C421142B8
:1004AC0031D11969494A114240D1DA68484B1A4294
:1004BC003ED0292341E0AB6A43F02003AB6200231A
:1004CC0085F82430012003B0F0BD2B681B6813F0B5
:1004DC00020F0FD02B681B6813F0020F4FD1B4F131
:1004EC00FF3FF7D0002CF0D0FFF7AEFFC31BA342A9
:1004FC00F0D9EAE7AB6A43F00403AB62002385F85A
:10050C0024300320DFE71969304A114204D1D9683D
:10051C0002F16E4211420DD019692E4A0A405AB9A5
:10052C00DA682C4B13405BB1FC2306E0292304E072
:10053C00142302E0542300E0FC2303FB06F607E03F
:10054C005423FAE7019BB34210D3019B013301936F
:10055C00019BB34213D2B4F1FF3FF6D0002CF1D083
:10056C00FFF772FFC01BA042EFD9EBE7AB6A43F079
:10057C000403AB62002385F824300320A3E72B6827
:10058C006FF012021A60AB6A43F40073AB622B6813
:10059C009B6803F46023B3F5602F01D0002092E731
:1005AC00287B60B9AB6A23F48073AB62AB6A13F43B
:1005BC00805F88D1AB6A43F00103AB6283E7002014
:1005CC0081E700BF3800002024499224922449126C
:1005DC0092244900499224000368D86C70470000AB
:1005EC0030B482B00022019290F82420012A00F04D
:1005FC008F800346012280F824204A68062A2DD8D1
:10060C000468606B02EB8202053A4FF01F0C0CFA87
:10061C0002FC20EA0C000D6805FA02F20243626348
:10062C000A68092A38D91C68E06802EB42021E3AB3
:10063C004FF0070C0CFA02FC20EA0C008D6805FA4E
:10064C0002F20243E2600A68103A012A34D900200F
:10065C00002283F8242002B030BC70470C2A0DD83D
:10066C000568286B02EB8202233A1F24944020EA8F
:10067C0004000C68944020432863D1E70568E86ABD
:10068C0002EB8202413A1F24944020EA04000C68D9
:10069C0094402043E862C3E71C68206902EB4202E5
:1006AC004FF0070C0CFA02FC20EA0C008D6805FADE
:1006BC0002F202432261C6E71A681648824205D04C
:1006CC009A6A42F020029A620120C1E7906810F405
:1006DC00000F1BD1906840F4000090600A68102A4B
:1006EC0001D00020B4E70C4A12680C49A1FB02129D
:1006FC00920C02EB82025200019202E0019A013A42
:10070C000192019A002AF9D10020A1E700209FE76D
:10071C000220A0E7002401403800002083DE1B43A8
:10072C0030B583B00023019303689A6812F0010F6F
:10073C0033D104469A6842F001029A60184B1B6848
:10074C00184AA2FB03239B0C019302E0019B013B83
:10075C000193019B002BF9D1FFF776FE0546236828
:10076C009B6813F0010F16D1FFF76EFE431B022B93
:10077C00F5D923689B6813F0010FF0D1A36A43F0FD
:10078C001003A362E36A43F00103E362002384F8DD
:10079C002430012002E0002000E0002003B030BD36
:1007AC003800002083DE1B4390F82430012B68D0E6
:1007BC0010B50446012380F82430FFF7B1FF002860
:1007CC005BD1A36A23F4407323F0010343F48073D9
:1007DC00A36223682C4A934227D0A26A22F4801287
:1007EC00A2625A6812F4806F05D0A26A22F44052B9
:1007FC0042F48052A262A26A12F4805F2BD0E26AA9
:10080C0022F00602E262002284F824206FF0020239
:10081C001A6023689A6802F46022B2F5602F1DD02A
:10082C009A6842F480129A602AE0A2F580625268BB
:10083C0012F4702FD1D0A26A42F48012A262134A31
:10084C00526812F4806FD6D0A26A22F4405242F45D
:10085C008052A262CFE70022E262D4E70A4A9342B6
:10086C0004D09A6842F4A0029A6009E0A2F5806272
:10087C00526812F4702FD3D1F3E7002384F824309C
:10088C0010BD0220704700BF002801400024014029
:10089C0038B503689A6812F0010F01D1002038BDF9
:1008AC0004469A6822F001029A60FFF7CDFD0546D6
:1008BC0023689B6813F0010F13D0FFF7C5FD431B92
:1008CC00022BF5D923689B6813F0010FF0D0A36AB3
:1008DC0043F01003A362E36A43F00103E3620120D7
:1008EC00DDE70020DBE7000000287BD070B5044674
:1008FC00836A002B4DD02046FFF7CAFFA36A13F082
:10090C00100369D1002867D1A26A22F4885222F020
:10091C00020242F00202A2626268E1690A43217B90
:10092C0042EA4102A568B5F5807F02D0012D36D090
:10093C001D46267D012E35D02668716821F469414B
:10094C00294371602568AE68274931401143A9607D
:10095C00A168B1F5807F01D0012902D12369013B47
:10096C001B052568E96A21F470010B43EB622368CF
:10097C0099681E4B0B409A4225D0A36A23F01203B0
:10098C0043F01003A362E36A43F00103E362012026
:10099C0027E0C36280F8243000F0C0F9ABE74FF4D5
:1009AC008075C6E731B9A169013945EA413141F495
:1009BC000065C1E7A16A41F02001A162E16A41F042
:1009CC000101E162B8E70023E362A36A23F00303A9
:1009DC0043F00103A36204E0A36A43F01003A36293
:1009EC00012070BD01207047FDF7E1FFFE0E1FFFD7
:1009FC00002808DB0901C9B200F1604000F5614034
:100A0C0080F80013704700F00F000901C9B2014BC8
:100A1C001954704714ED00E000B500F00700C0F168
:100A2C00070CBCF1040F28BF4FF0040C031D062B60
:100A3C000FD9C31E4FF0FF3E0EFA0CF021EA000155
:100A4C0099400EFA03FE22EA0E0241EA02005DF81A
:100A5C0004FB0023EEE70000074AD36823F4E063AD
:100A6C001B041B0C000200F4E060034343F0BF6363
:100A7C0043F40033D360704700ED00E010B504463A
:100A8C00054BD868C0F30220FFF7C6FF014620468D
:100A9C00FFF7AEFF10BD00BF00ED00E00138B0F174
:100AAC00807F0BD24FF0E0235861054AF02182F889
:100ABC0023100020986107221A61704701207047AB
:100ACC0000ED00E070B582B00024A4469EE07C4DA1
:100ADC00AB4214D00CD8A5F58015AB420FD005F560
:100AEC007025AB420BD0A5F58015AB421FD106E0AB
:100AFC00744DAB4203D005F58035AB4217D18B68F2
:100B0C00A3B1012B0DD04261082410E0CC680EE09B
:100B1C00CC6804340BE0CC68083408E0CC680C34A6
:100B2C0005E00261082402E0002400E00424BEF188
:100B3C00FF0F37D806464FEA8C0233680F259540D5
:100B4C0023EA050304FA02F2134333604B6813F0F3
:100B5C00805F59D05C4B9A6942F001029A619B69A3
:100B6C0003F001030193019B4FEA9C02951C574B28
:100B7C0053F825600CF00305AD000F23AB4026EABB
:100B8C000306534B984214D003F58063984279D0F6
:100B9C0003F58063984277D003F58063984206D0C2
:100BAC00042307E0061DACF108029200C5E70323FD
:100BBC0000E00023AB4033430232444D45F8223071
:100BCC004B6813F4801F61D0424A936843EA0E03CA
:100BDC0093604B6813F4001F5ED03E4AD36843EA1F
:100BEC000E03D3604B6813F4003F5BD0394A536853
:100BFC0043EA0E0353604B6813F4803F58D0354AD8
:100C0C00136843EA0E0313600CF1010C0B6833FA02
:100C1C000CF253D0012202FA0CF203EA020E32EA71
:100C2C000303F1D14B68122B3FF651AF122B3FF659
:100C3C007EAF01A555F823F00B0B0008190B00082B
:100C4C00230B0008350B00083B0B00083B0B00087E
:100C5C003B0B00083B0B00083B0B00083B0B000850
:100C6C003B0B00083B0B00083B0B00083B0B000840
:100C7C003B0B00083B0B00083B0B00081D0B00084E
:100C8C00290B0008012395E7022393E7114A936887
:100C9C0023EA0E0393609CE70E4AD36823EA0E0303
:100CAC00D3609FE70B4A536823EA0E035360A2E715
:100CBC00084A136823EA0E031360A5E702B070BD5F
:100CCC000000221000003110001002400000014012
:100CDC00000801400004014082B00E4B9A6942F0BA
:100CEC0001029A619A6902F001020092009ADA6993
:100CFC0042F08052DA61DB6903F080530193019B6F
:100D0C00054A536823F0E06343F00073536002B06C
:100D1C00704700BF001002400000014000B587B0D2
:100D2C00002302930393049305930268114B9A4298
:100D3C0002D007B05DF804FB03F56C439A6942F4EA
:100D4C0000729A619A6902F400720092009A9A6990
:100D5C0042F004029A619B6903F004030193019B26
:100D6C00012302930323039302A90348FFF7AAFE6E
:100D7C00DFE700BF00240140000801400268094B76
:100D8C009A4200D0704782B003F564439A6942F4EA
:100D9C0000629A619B6903F400630193019B02B0AA
:100DAC00704700BF002C014000B587B000230293B0
:100DBC0003930493059302680D4B9A4202D007B03B
:100DCC005DF804FB03F564439A6942F004029A61EE
:100DDC009B6903F004030193019B4FF4807302930E
:100DEC0002230393059302A90248FFF76BFEE6E783
:100DFC00002C01400008014030B587B0002302935D
:100E0C000393049305930268174B9A4201D007B0E1
:100E1C0030BD03F5E633DA6942F40032DA61DA699F
:100E2C0002F400320092009A9A6942F004029A612C
:100E3C009B6903F004030193019B04230293022397
:100E4C0003930323059302AD084C29462046FFF774
:100E5C0039FE08230293002303930493294620466A
:100E6C00FFF730FED3E700BF00440040000801400C
:100E7C0082B0084B1B68084AA2FB03235B0A00FBE9
:100E8C0003F3019300BF019B5A1E0192002BF9D171
:100E9C0002B0704738000020D34D6210002800F0DB
:100EAC00F18170B582B00446036813F0010F2CD0A9
:100EBC00994B5B6803F00C03042B1DD0964B5B68BD
:100ECC0003F00C03082B12D06368B3F5803F41D0BC
:100EDC00002B55D103F1804303F504331A6822F437
:100EEC0080321A601A6822F480221A6037E08A4B2A
:100EFC005B6813F4803FE7D0874B1B6813F4003F0B
:100F0C0003D06368002B00F0BF81236813F0020F3D
:100F1C0075D0814B5B6813F00C0F5FD07E4B5B6818
:100F2C0003F00C03082B54D02369002B00F08A80AB
:100F3C007A4B01221A60FFF787FA0546764B1B683D
:100F4C0013F0020F75D1FFF77FFA401B0228F5D979
:100F5C0003209EE1704A136843F480331360636886
:100F6C0043B3FFF771FA05466B4B1B6813F4003F54
:100F7C00CBD1FFF769FA401B6428F5D9032088E12F
:100F8C00B3F5A02F09D0644B1A6822F480321A6092
:100F9C001A6822F480221A60E1E703F18043A3F57A
:100FAC003C331A6842F480221A601A6842F4803288
:100FBC001A60D4E7FFF748FA0546574B1B6813F441
:100FCC00003FA2D0FFF740FA401B6428F5D903205C
:100FDC005FE1514B5B6813F4803FA5D14E4B1B680E
:100FEC0013F0020F03D02369012B40F04F814A4AC2
:100FFC00136823F0F803616943EAC10313602368A3
:10100C0013F0080F33D0A369002B5CD0434B0122A3
:10101C00C3F88024FFF718FA05463F4B5B6A13F0C0
:10102C00020F21D1FFF710FA401B0228F5D903203B
:10103C002FE1394A136823F0F803616943EAC103CD
:10104C001360DCE7354B00221A60FFF7FDF905460B
:10105C00314B1B6813F0020FD1D0FFF7F5F9401B91
:10106C000228F5D9032014E10120FFF701FF2368C2
:10107C0013F0040F00F09680274BDB6913F0805FB0
:10108C0034D1254BDA6942F08052DA61DB6903F026
:10109C0080530193019B0125214B1B6813F4807F26
:1010AC0026D0E368012B3DD0002B53D103F18043B4
:1010BC0003F504331A6A22F001021A621A6A22F04A
:1010CC0004021A6233E0154B0022C3F88024FFF7A8
:1010DC00BBF90546104B5B6A13F0020FC7D0FFF744
:1010EC00B3F9401B0228F5D90320D2E00025D3E741
:1010FC000B4A136843F480731360FFF7A5F9064697
:10110C00074B1B6813F4807FCBD1FFF79DF9801B35
:10111C006428F5D90320BCE00010024000004242D4
:10112C00007000405F4A136A43F001031362E368E6
:10113C0033B3FFF789F906465A4B1B6A13F0020FBB
:10114C002FD1FFF781F9801B41F288339842F3D9F4
:10115C0003209EE0052B09D0524B1A6A22F00102A3
:10116C001A621A6A22F004021A62E0E74D4B1A6AFC
:10117C0042F004021A621A6A42F001021A62D6E7BD
:10118C00FFF762F90646474B1B6A13F0020F08D0B3
:10119C00FFF75AF9801B41F288339842F3D90320A8
:1011AC0077E0E5B9E369002B72D03E4A526802F051
:1011BC000C02082A56D0022B17D03B4B00221A6681
:1011CC00FFF742F90446374B1B6813F0007F47D0FA
:1011DC00FFF73AF9001B0228F5D9032059E0314AF0
:1011EC00D36923F08053D361DCE72F4B00221A66BE
:1011FC00FFF72AF905462B4B1B6813F0007F06D02E
:10120C00FFF722F9401B0228F5D9032041E0236A9D
:10121C00B3F5803F1AD023494B6823F47413226A28
:10122C00606A024313434B601F4B01221A66FFF79F
:10123C000BF904461B4B1B6813F0007F0ED1FFF714
:10124C0003F9001B0228F5D9032022E0154A536844
:10125C0023F40033A1680B435360DCE7002018E053
:10126C00002016E0012B16D00E4B5B6803F4803186
:10127C00226A914211D103F47013626A93420ED127
:10128C00002006E001207047012002E0012000E070
:10129C00002002B070BD0120FBE70120F9E701201E
:1012AC00F7E700BF00100240000042420F4B5B68A2
:1012BC0003F00C02082A01D00D487047C3F3834297
:1012CC000C49885C13F4803F0BD0084B5B68C3F36C
:1012DC004043094AD35C064A02FB00F0B0FBF3F032
:1012EC007047064B03FB00F0704700BF0010024034
:1012FC0000127A00542800085028000800093D000C
:10130C00002800F0A08070B50D460446524B1B68B7
:10131C0003F007038B420BD24F4A136823F00703E9
:10132C000B431360136803F007038B4240F08D806E
:10133C00236813F0020F17D013F0040F04D0474AA0
:10134C00536843F4E0635360236813F0080F04D030
:10135C00424A536843F460535360404A536823F045
:10136C00F003A1680B435360236813F0010F31D0D5
:10137C006368012B20D0022B25D0384A126812F05A
:10138C00020F64D035494A6822F0030213434B60C4
:10139C00FFF75AF80646314B5B6803F00C036268A2
:1013AC00B3EB820F16D0FFF74FF8801B41F2883356
:1013BC009842F0D9032045E0284A126812F4003F05
:1013CC00E0D101203EE0254A126812F0007FD9D10D
:1013DC00012037E0204B1B6803F00703AB420AD90E
:1013EC001D4A136823F007032B431360136803F0A3
:1013FC000703AB422DD1236813F0040F06D0174A14
:10140C00536823F4E063E1680B435360236813F0E3
:10141C00080F07D0114A536823F46053216943EA3B
:10142C00C1035360FFF742FF0C4B5B68C3F303131C
:10143C000B4AD35CD8400B4B18600B4B1868FEF76B
:10144C00BFFF002070BD012070470120FAE701208A
:10145C00F8E70120F6E700BF002002400010024030
:10146C00802800083800002034000020014B186848
:10147C00704700BF3800002008B5FFF7F7FF044B9A
:10148C005B68C3F30223034AD35CD84008BD00BF9A
:10149C00001002407828000808B5FFF7E7FF044B5E
:1014AC005B68C3F3C223034AD35CD84008BD00BFBA
:1014BC00001002407828000870B582B0044603681A
:1014CC0013F0010F36D03F4BDB6913F0805F4AD12C
:1014DC003C4BDA6942F08052DA61DB6903F08053ED
:1014EC000193019B0125384B1B6813F4807F3CD082
:1014FC00344B1B6A13F4407313D0626802F44072CD
:10150C009A420ED02F4A136A23F440702F490126B9
:10151C00C1F840640026C1F84064106213F0010F5A
:10152C0037D1284A136A23F4407361680B43136262
:10153C00002D3FD1236813F0020F06D0214A5368C7
:10154C0023F44043A1680B435360236813F0100F3E
:10155C0035D01C4A536823F48003E1680B43536075
:10156C00002002B070BD0025BDE7174A136843F494
:10157C0080731360FEF768FF0646134B1B6813F469
:10158C00807FB5D1FEF760FF801B6428F5D903205E
:10159C00E7E7FEF759FF06460A4B1B6A13F0020FEA
:1015AC00BFD1FEF751FF801B41F288339842F3D92B
:1015BC000320D6E7D36923F08053D361BAE7002028
:1015CC00CFE700BF00100240007000400000424214
:1015DC0008B502284ED0102803D0012828D00020AE
:1015EC0052E02B4B5A68186810F080704CD0C2F344
:1015FC0083432849C85C12F4803F15D0244B5B68A8
:10160C00C3F34043244AD25C244BB3FBF2F303FBF9
:10161C0000F01F4B5B6813F4800F35D14000204B5A
:10162C00A3FB003040082FE01E4B03FB00F0F0E75B
:10163C00174B1B6A40F202321A40B2F5817F24D05C
:10164C0003F44073B3F5007F04D0B3F5407F09D0A9
:10165C00002019E00E4A526A12F0020FF5D049F63A
:10166C00404011E00A4B186810F400300CD04FF2D7
:10167C00244009E0FFF710FF054B5B68C3F381338F
:10168C0001335B00B0FBF3F008BD4FF40040FBE707
:10169C0000100240682800086428000800127A0034
:1016AC00ABAAAAAA00093D0030B4026A036A23F06F
:1016BC00010303624568836923F073030C681C43C0
:1016CC0022F002028B6813430B4A904206D045600D
:1016DC0084614A684263036230BC704723F008039C
:1016EC00CA681A4322F0040325F440754A692A4358
:1016FC008D691543EBE700BF002C014030B4036A41
:10170C00026A22F4807202624468C26922F0730297
:10171C000D68154323F400738A6843EA02230D4ACB
:10172C00904206D04460C5614A68C263036230BC13
:10173C00704723F40063CA6843EA022323F48063EE
:10174C0024F440544A6944EA02148A6944EA0214B3
:10175C00E8E700BF002C014030B4036A026A22F4AF
:10176C00805202624468C26922F4E6420D6842EA81
:10177C00052223F400538D6843EA0533074DA84234
:10178C0006D04460C2614A680264036230BC704790
:10179C0024F480444D6944EA8514F2E7002C01409E
:1017AC0003681F4A90420AD0B0F1804F07D0A2F5CF
:1017BC009432904203D002F58062904203D123F020
:1017CC0070034A681343164A90420AD0B0F1804F16
:1017DC0007D0A2F59432904203D002F58062904279
:1017EC0003D123F44073CA68134323F080034A697E
:1017FC00134303608B68C3620B688362084B984287
:10180C000AD001234361036913F0010F03D003696C
:10181C0023F00103036170470B690363F1E700BF19
:10182C00002C014040B310B5044690F83D30F3B1A4
:10183C00022384F83D30214651F8040BFFF7B0FF2A
:10184C00012384F8463084F83E3084F83F3084F825
:10185C00403084F8413084F8423084F8433084F8C6
:10186C00443084F8453084F83D30002010BD80F8B9
:10187C003C30FFF783FADBE70120704730B4036A92
:10188C00026A22F0100202624468826922F4E64283
:10189C000D6842EA052223F020038D6843EA051304
:1018AC000C4DA84206D0446082614A688263036290
:1018BC0030BC704723F08003CD6843EA051323F056
:1018CC00400324F440644D6944EA85048D6944EA7C
:1018DC008504E8E7002C014038B590F83C30012B2A
:1018EC0066D004460D46012380F83C300C2A5AD8A9
:1018FC00DFE802F0075959591B59595930595959B0
:10190C0044000068FFF7D0FE2268936943F0080397
:10191C0093612268936923F00403936122689369AD
:10192C0029690B43936100203EE00068FFF7A6FF96
:10193C002268936943F4006393612268936923F4EA
:10194C008063936122689369296943EA0123936157
:10195C00002029E00068FFF7D1FE2268D36943F02C
:10196C000803D3612268D36923F00403D36122688E
:10197C00D36929690B43D361002015E00068FFF798
:10198C00EBFE2268D36943F40063D3612268D36908
:10199C0023F48063D3612268D369296943EA012364
:1019AC00D361002000E00120002384F83C3038BDD6
:1019BC000220FCE701F01F014FF0010C0CFA01FCB6
:1019CC00036A23EA0C030362036A8A40134303622B
:1019DC007047000010B50446084649BB94F83E30E9
:1019EC00013B18BF0123002B58D1002836D102230C
:1019FC0084F83E30012201462068FFF7DBFF2368A4
:101A0C00284A93423AD02368264A93423BD0B3F1FA
:101A1C00804F38D0A2F59432934234D002F58062D4
:101A2C00934230D01A6842F001021A60002036E06E
:101A3C00042907D008290BD094F84130013B18BF7A
:101A4C000123D0E794F83F30013B18BF0123CAE7CC
:101A5C0094F84030013B18BF0123C4E7042805D09B
:101A6C00082807D0022384F84130C3E7022384F806
:101A7C003F30BFE7022384F84030BBE75A6C42F496
:101A8C0000425A64BFE79A6802F00702062A07D0A0
:101A9C001A6842F001021A60002000E0012010BD1B
:101AAC000020FCE7002C014090F83C20012A2CD0AF
:101ABC0010B40346012280F83C20022280F83D201D
:101ACC0002685068946820F0700C086840EA0C00BA
:101ADC0050601A680E4882420AD0B2F1804F07D08B
:101AEC00A0F59430824203D000F58060824204D18C
:101AFC0024F08004496821439160012283F83D2041
:101B0C00002083F83C0010BC70470220704700BFD7
:101B1C00002C0140024690F83C30012B21D00123CF
:101B2C0080F83C30CB6823F440738868034323F47B
:101B3C0080634868034323F400630868034323F479
:101B4C0080530869034323F400534869034323F487
:101B5C008043C9690B4311684B64002082F83C0038
:101B6C00704702207047026802F10C0353E8003FF3
:101B7C0023F490730C3242E800310029F3D102684F
:101B8C0002F1140353E8003F23F00103143242E83E
:101B9C0000310029F3D1036B012B05D0202380F8F1
:101BAC004230002303637047026802F10C0353E8D0
:101BBC00003F23F010030C3242E800310029F3D12E
:101BCC00ECE7000010B504460268136923F4405397
:101BDC00C1680B43136183680269134342691A435A
:101BEC000168CB6823F4B05323F00C031343CB6090
:101BFC000268536923F4407381690B435361026893
:101C0C00134B9A4220D0FFF737FC024602EB8202BC
:101C1C0002EB820263689B00B2FBF3F20D48A0FB5F
:101C2C0002314909642303FB11231B013233A0FB4E
:101C3C0003035B0903F0F00202EB011203F00F0344
:101C4C00216813448B6010BDFFF726FC0246DDE7CC
:101C5C00003801401F85EB512DE9F04383B0054658
:101C6C000E4617469946DDF828802B681C6836EA24
:101C7C0004040CBF01240024BC4228D1B8F1FF3F5E
:101C8C00F3D0FEF7E1FBA0EB0900404523D8B8F1F7
:101C9C00000F22D02B68DA6812F0040FE5D0802EEA
:101CAC00E3D0402EE1D01A6812F0080FDDD00024EA
:101CBC0001941A6801925B680193019B2846FFF717
:101CCC0052FF08236B6485F84040012000E000209F
:101CDC0003B0BDE8F0830320FAE70320F8E760B314
:101CEC0010B5044690F8413013B3242384F84130E6
:101CFC002268D36823F40053D3602046FFF762FFB9
:101D0C002268136923F4904313612268536923F00A
:101D1C002A0353612268D36843F40053D360002034
:101D2C006064202384F8413084F84230606310BD35
:101D3C0080F84030FFF760F8D7E7012070472DE9B5
:101D4C00F04182B01E4690F84130202B56D104460B
:101D5C000D469046002955D00AB901204FE00023CA
:101D6C004364212380F84130FEF76EFB0746A4F84C
:101D7C002480A4F82680A368B3F5805F02D04FF0CE
:101D8C00000814E023692BB34FF000080FE0202368
:101D9C0084F84130032032E038F8023B2268C3F368
:101DAC0008035360E28C92B2013A92B2E284E38C63
:101DBC009BB293B100963B46002280212046FFF750
:101DCC004BFF0028E3D1002DE6D015F8012B23683A
:101DDC005A60E7E7A8460025E9E700963B46002253
:101DEC0040212046FFF738FF18B9202384F84130F2
:101DFC0005E0202384F84130032000E0022002B0EB
:101E0C00BDE8F0810120FAE7FEE7FEE7FEE7FEE71A
:101E1C00FEE770477047704708B5FEF709FB08BD31
:101E2C0010B503460C4A0D490D48006840B10C48EA
:101E3C0000680344521A934206D8094A136010BD35
:101E4C000748084C0460F2E700F060F80C230360CC
:101E5C004FF0FF30F3E700BF0050002000040000FB
:101E6C0074010020C002002070470000FFF7FCFF47
:101E7C000B480C490C4A002302E0D458C4500433DC
:101E8C00C4188C42F9D3094A094C002301E01360B1
:101E9C000432A242FBD300F03FF8FEF747FA70473A
:101EAC00000000208C000020CC2800088C000020B2
:101EBC00C0020020FEE700000EB46FF0004110B528
:101ECC0000249DB01FAB0290069007910491094825
:101EDC00094953F8042B0591006802A901931B943E
:101EEC0000F096F9029B1C701DB0BDE8104003B0C9
:101EFC00704700BF3C0000200802FFFF034602446D
:101F0C00934200D1704703F8011BF9E7014B1868A5
:101F1C00704700BF3C00002070B500260C4D0D4BE7
:101F2C005B1B9C10A64209D1002600F07BFC0A4DDD
:101F3C000A4B5B1B9C10A64205D170BD55F8043BA7
:101F4C0098470136EEE755F8043B98470136F2E71F
:101F5C00C4280008C4280008C4280008C8280008A1
:101F6C007047704738B50546002940D051F8043CFD
:101F7C000C1F002BB8BFE41800F0DEF81C4A1368E5
:101F8C0033B9636014602846BDE8384000F0DAB815
:101F9C00A34208D9206821188B4201BF19685B68DD
:101FAC0009182160EDE71A465B680BB1A342FAD918
:101FBC0011685018A0420BD120680144501883427C
:101FCC001160E0D118685B68084410605360DAE770
:101FDC0002D90C232B60D6E7206821188B4201BF55
:101FEC0019685B680918216063605460CBE738BDE1
:101FFC00BC02002070B50F4E0C463168054611B975
:10200C0000F0AEFB30602146284600F0A9FB431CD3
:10201C0003D14FF0FF34204670BDC41C24F00304E0
:10202C00A042F8D0211A284600F09AFB0130F2D1D8
:10203C00EFE700BFB80200202DE9F843CD1C25F0D6
:10204C00030508350C2D38BF0C25002D064601DB89
:10205C00A94204D90C2333600020BDE8F883DFF8D3
:10206C00D48000F069F8D8F800301C4644BB2946EF
:10207C003046FFF7BFFF431C044658D1D8F8004048
:10208C002746002F43D1002C4BD0236839463046CD
:10209C0004EB030900F064FB814542D12168304612
:1020AC006D1A2946FFF7A6FF01303AD023682B445E
:1020BC002360D8F800305A6862BBC8F800700FE093
:1020CC002268521B20D40B2A17D96119A342256010
:1020DC0018BF5960636808BFC8F8001062514B60A4
:1020EC00304600F02FF804F10B00231D20F0070000
:1020FC00C21A1CBF1B1AA350AFE76268A3420CBFE5
:10210C00C8F800205A60EBE723466468AEE73C460B
:10211C007F68B6E71A465B68A342FBD10023536085
:10212C00DEE70C233046336000F00CF894E70560D2
:10213C00D6E700BFBC0200200148FFF711BF00BF6B
:10214C00B40200200148FFF70CBF00BFB40200200E
:10215C002DE9F0471F468E688246BE420C469046DB
:10216C00334653D8B1F90C0010F4906F2BD065693D
:10217C002368096905EB4505A3EB010905EBD5754A
:10218C007B1C6D104B44AB422A4684BF1D462A462D
:10219C00430527D511465046FFF74EFF064658B368
:1021AC004A46216900F0FAFAA38923F4906343F0BC
:1021BC008003A38126614E4426603B463E46656102
:1021CC00A5EB0905A5601F463A464146206800F07C
:1021DC00ADFA0020A3689B1BA36023683B442360DB
:1021EC00BDE8F087504600F0E7FA06460028E1D13A
:1021FC0050462169FFF7B6FE0C23CAF80030A389BC
:10220C004FF0FF3043F04003A381E9E73E46DBE7A4
:10221C002DE9F04F98468B8907461B060D46144650
:10222C009DB010D50B6973B94021FFF705FF2860ED
:10223C00286130B90C233B604FF0FF301DB0BDE876
:10224C00F08F40236B610023099320238DF82930F4
:10225C0030234FF00109CDF80C80DFF898818DF810
:10226C002A3023469A4613F8012B0AB1252AF9D1B4
:10227C00BAEB040B0BD05B46224629463846FFF7D7
:10228C0067FF013000F0A780099A5A4409929AF826
:10229C000030002B00F09F8000234FF0FF32CDE97F
:1022AC0005230AF1010A049307938DF853301A930E
:1022BC005446052214F8011B4E4800F061FA049AAA
:1022CC00D8B9D00644BF20238DF85330110744BF32
:1022DC002B238DF853309AF800302A2B15D0544606
:1022EC0000204FF00A0C079A214611F8013B303BB5
:1022FC00092B4BD9B0B1079214E0A0EB080309FAF3
:10230C0003F31343A2460493D2E7039B191D1B68E6
:10231C000391002BBBBF5B4242F002020793079371
:10232C00B8BF049223782E2B0AD163782A2B32D192
:10233C00039B02341A1D1B68039243EAE373059353
:10234C00DFF8B4A003225046217800F019FA38B116
:10235C004022049BA0EB0A008240134301340493F7
:10236C0014F8011B062225488DF8281000F008FAF5
:10237C00002836D0224B1BBB039B073323F00703EB
:10238C0008330393099B334409936AE70C460120F5
:10239C000CFB0232A8E700234FF00A0C194601345B
:1023AC000593204610F8012B303A092A03D9002B4B
:1023BC00C6D00591C4E7044601230CFB0121F0E7CC
:1023CC0003AB00932A4638460E4B04A9AFF30080AA
:1023DC00421C0646D6D1AB895B063FF52DAF09985A
:1023EC002CE703AB00932A463846064B04A900F0B1
:1023FC007DF8EDE790280008962800089A28000838
:10240C00000000005D2100082DE9F04716469846B3
:10241C008A680B6907469342B8BF1346336091F83C
:10242C0043200C46DDF820900AB101333360236859
:10243C00990642BF336802333360256815F00605F0
:10244C0006D104F1190AE36832689B1AAB422BDC03
:10245C0094F843302268003B18BF0123920630D415
:10246C004146384604F14302C847013023D0236863
:10247C00226903F00603042B14BF002533684FF0C8
:10248C00000608BFE56804F11A0408BFED1A54F8F9
:10249C00123C08BF25EAE5759342C4BF9B1AED18A0
:1024AC00B5421AD1002008E0012352464146384675
:1024BC00C847013003D14FF0FF30BDE8F08701353C
:1024CC00C1E73020E11881F843005A1C94F84510FC
:1024DC002244023382F84310C2E7012322464146CC
:1024EC003846C8470130E6D00136D9E72DE9FF4719
:1024FC000F7E9146782F80460C469A460C9E01F131
:10250C00430207D8622F0AD8002F00F0D280582F30
:10251C0000F0B78004F1420684F842703AE0A7F16B
:10252C006303152BF6D801A151F823F0912500086F
:10253C00A5250008212500082125000821250008D3
:10254C0021250008A52500082125000821250008C3
:10255C002125000821250008A5260008CF25000804
:10256C005B2600082125000821250008C726000845
:10257C0021250008CF250008212500082125000869
:10258C006326000833681A1D1B68326004F142068A
:10259C0084F8423001239DE033682068191D3160B6
:1025AC00060601D51D6803E04506FBD5B3F90050BE
:1025BC00002D03DA2D236D4284F843300A23594849
:1025CC0010E021683368080653F8045B02D449060E
:1025DC0048BFADB26F2F5348336059D10823002147
:1025EC0084F843106668002EA66005DB21682E4334
:1025FC0021F0040121604DD01646B5FBF3F103FB2D
:10260C001157C75D06F8017D2F46BB420D46F4D924
:10261C00082B0BD12368DF0708D523696168994221
:10262C00DEBF302306F8013C06F1FF36921B226117
:10263C004B4621464046CDF800A003AAFFF7E4FE26
:10264C0001304CD14FF0FF3004B0BDE8F087236867
:10265C0043F0200323607827334884F845702368BF
:10266C0031681F0651F8045B02D45F0648BFADB257
:10267C003160D90744BF43F0200323601DB1102300
:10268C00ADE72848E9E7236823F020032360F6E749
:10269C000A23A4E71646BBE733682568181D616951
:1026AC0030602E061B6801D5196002E06806FBD568
:1026BC001980002316462361BAE7336800211A1DDE
:1026CC0032601E686268304600F05AF808B1801B10
:1026DC00606063682361002384F84330A8E73246C6
:1026EC00494640462369D0470130ABD023689B074D
:1026FC0013D4E068039B9842B8BF1846A4E70123A3
:10270C00324649464046D04701309BD00135E368FC
:10271C0003995B1AAB42F2DCEBE7002504F11906D6
:10272C00F5E700BFA1280008B2280008884210B5C0
:10273C0001EB020402D98442234607D8431EA1426E
:10274C0007D011F8012B03F8012FF8E7024482425D
:10275C0000D110BD13F8011D02F8011DF7E70000B0
:10276C0038B50023054D044608462B60FFF758FB8F
:10277C00431C02D12B6803B1236038BDB00200208A
:10278C00034610B5C9B202449342184601D1002049
:10279C0003E0047801338C42F6D110BD0A44914217
:1027AC0000F1FF3300D1704710B511F8014B914285
:1027BC0003F8014FF9D110BD2DE9F041074614463D
:1027CC000D4621B91146BDE8F041FFF735BC2AB9D9
:1027DC00FFF7C8FB25462846BDE8F08100F01AF843
:1027EC008442064602D8B4EB500FF4D82146384642
:1027FC00FFF722FC804608B94546ECE7B442224676
:10280C00294628BF3246FFF7C9FF29463846FFF74D
:10281C00A9FBF1E751F8043C181F002BBCBF0B5867
:10282C00C0187047F8B500BFF8BC08BC9E4670478E
:0C283C00F8B500BFF8BC08BC9E46704711
:1028480025640D0A000000000102000002030405CF
:10285800060708090A0B0C0D0E0F101001020000E4
:1028680002030405060708090A0B0C0D0E0F1010C9
:102878000000000001020304000000000000000046
:102888000102030406070809232D302B2000686C79
:102898004C0065666745464700303132333435367B
:1028A80037383941424344454600303132333435B4
:0C28B800363738396162636465660000E1
:0428C40031010008D6
:0428C8000D010008F6
:1028CC0020000000000000000000000000000000DC
:1028DC0000000000000000000000000000000000EC
:1028EC0000000000000000000000000000000000DC
:1028FC00000001001000000000127A0040000020CF
:10290C000000000078010020E001002048020020B7
:10291C0000000000000000000000000000000000AB
:10292C00000000000000000000000000000000009B
:10293C00000000000000000000000000000000008B
:0C294C000000000000000000000000007F
:0400000508001E7958
:00000001FF
