:020000040800F2
:10000000005000204115000825150008271500089C
:10001000291500082B1500082D1500080000000008
:100020000000000000000000000000002F15000884
:1000300031150008000000003315000835150008D0
:100040008915000889150008891500088915000818
:100050008915000889150008891500088915000808
:1000600089150008891500088915000889150008F8
:1000700089150008891500088915000889150008E8
:1000800089150008891500088915000889150008D8
:1000900089150008891500088915000889150008C8
:1000A00089150008891500088915000889150008B8
:1000B00089150008891500088915000889150008A8
:1000C0008915000889150008891500088915000898
:1000D0008915000889150008891500088915000888
:1000E000891500088915000889150008000000001E
:1000F0000000000000000000000000000000000000
:0C01000000000000000000005FF808F1A3
:10010C0010B5054C237833B9044B13B10448AFF345
:10011C0000800123237010BD10000020000000009F
:10012C00E415000808B5034B1BB103490348AFF3B2
:10013C00008008BD0000000014000020E415000839
:10014C0000B587B08DF80F006423009301230DF1E7
:10015C0017020DF10F01044801F0B5F89DF81700D6
:10016C0007B05DF804FB00BF2C00002070B50446FE
:10017C000D460A4E00220121304600F06BFC600057
:10018C0000F07E00FFF7DCFF2846FFF7D9FF0122C5
:10019C001146304600F05EFC70BD00BF000C014003
:1001AC0038B504460B4D00220121284600F052FCC4
:1001BC00600000F07E0040F08000FFF7C1FF0020DF
:1001CC00FFF7BEFF044601221146284600F042FC10
:1001DC00204638BD000C014038B504460D46FFF7EB
:1001EC00DFFF40EA0501C9B22046FFF7BFFF38BD6B
:1001FC0038B505460C46FFF7D3FFE44364B200EA7A
:10020C000401C9B22846FFF7B1FF38BD08B5142068
:10021C00FFF7C6FF03211420FFF7DEFF08BD08B56A
:10022C000F210120FFF7A2FF08BD000008B5012235
:10023C001146124800F00EFC01221146104800F045
:10024C0009FCFFF7ECFF8D212A20FFF78FFF3E21E1
:10025C002B20FFF78BFF1E212D20FFF787FF00219E
:10026C002C20FFF783FF40211520FFF77FFF3D2156
:10027C001120FFF77BFFFFF7C9FF08BD000C014001
:10028C00000801402DE9F04707468A461546994675
:10029C000C2817D00E2819D110264FF0120848F050
:1002AC0080010220FFF762FF80210420FFF7A0FFEE
:1002BC0080210A20FFF790FF00210120FFF756FF55
:1002CC0000240CE030264FF07708E8E70026B04613
:1002DC00E5E71AF804100920FFF748FF0134A5429E
:1002EC00F7D839460120FFF741FF0C2F16D04FF4F9
:1002FC00FA650420FFF754FF0446013D04D010F0CA
:10030C00010F01D10642F4D080210D20FFF770FFC0
:10031C004DB94FF002084046BDE8F08780210D2012
:10032C00FFF75AFFE3E70620FFF73AFF10F01B0F29
:10033C002BD108EA040818F0010801D04FF001088D
:10034C000C2FE8D10A20FFF72BFF05460C20FFF7F6
:10035C0027FF10F0070009D06B1E00EBC300089BB1
:10036C0018603DB1102D06D9102504E0EB00089A59
:10037C001360F6E701250024A542CCD90920FFF72C
:10038C000FFF09F804000134F6E74FF00208C2E74A
:10039C0030B585B005460C4607210D20FFF7E6FE6B
:1003AC00257003AB00932346012221460C20FFF756
:1003BC0069FF20B9039B102B02D0022000E0022021
:1003CC0005B030BD10B584B0044600210D20FFF7F8
:1003DC00CDFE932323702023637003AB009323463D
:1003EC00022221460C20FFF74DFF68B104B010BD6E
:1003FC00A15C4B40DBB20132D2B2032AF8D9A25C29
:10040C009A42F3D00220F1E703460246F5E7F8B52D
:10041C0007460D46164604210520FFF7E9FE80210C
:10042C000A20FFF7D9FE002405E0395D0920FFF70B
:10043C009DFE0134E4B2AC42F7D303210120FFF757
:10044C0095FEFF240520FFF7ABFE631E13F0FF049F
:10045C0002D010F0040FF5D02220FFF7A1FE30706F
:10046C002120FFF79DFE7070F8BD10B584B05023AD
:10047C008DF8083000238DF8093002AC0DF10A021A
:10048C0002212046FFF7C3FF03AB0093234604224F
:10049C0021460C20FFF7F6FE04B010BD2DE9F04309
:1004AC0089B004AD00240494059406940794264B5B
:1004BC009A6942F010029A619A6902F01002009255
:1004CC00009A9A6942F020029A619A6902F020021D
:1004DC000192019A9A6942F004029A619A6902F0B7
:1004EC0004020292029A9A6942F008029A619B698C
:1004FC0003F008030393039BDFF8509022464FF45C
:10050C000051484600F0A6FA114F22460121384608
:10051C0000F0A0FA4FF400530493012605960694BC
:10052C004FF00208CDF81C802946484600F088F9A7
:10053C00049605960694CDF81C802946384600F0A2
:10054C007FF909B0BDE8F0830010024000100140B3
:10055C00000C014008B50021002908DD0023D3B1AF
:10056C0000224FF400510F4800F074FA08BD00232C
:10057C00032B09DC10F803C00B4A02EB8102D25C9E
:10058C00944506D10133F3E70123002BE7D1013168
:10059C00E2E70023F9E701224FF40051014800F093
:1005AC0059FAE3E7001001400000002072B6FEE7A4
:1005BC0008B50D480D4B03604FF482734360002364
:1005CC008360C360036143614FF400728261102247
:1005DC00C2610362436283620A23C36200F018FEA5
:1005EC0000B908BDFFF7E2FF2C00002000300140ED
:1005FC0010B590B006AC28220021204600F0BFFFB9
:10060C000023019302930393049305930122069212
:10061C004FF4803307930A9202220D920E934FF4FB
:10062C00E0130F93204600F085FA78B90F2301935D
:10063C0002210291002303934FF4806204920593EC
:10064C0001A800F0A9FC18B910B010BDFFF7AEFF5F
:10065C00FFF7ACFF00B585B000F050F8FFF7C8FF0E
:10066C00FFF71CFFFFF7A4FF01224FF400510F48C6
:10067C0000F0F0F9FFF7DAFD02E0642000F062F818
:10068C0001A92620FFF784FE0028F6D102A8FFF767
:10069C0099FE0028F1D102A8FFF75CFF4FF47A70A5
:1006AC0000F050F8FFF7E1FEE7E700BF0010014053
:1006BC0010B504460E4B1A784FF47A73B3FBF2F371
:1006CC000C4A1068B0FBF3F000F0A6F868B90F2CD8
:1006DC0001D901200AE0002221464FF0FF3000F042
:1006EC008BF8054B1C60002000E0012010BD00BF02
:1006FC00040000200C0000200800002008B5074A68
:10070C00136843F010031360032000F063F80F200C
:10071C00FFF7CEFF00F0A4F9002008BD0020024036
:10072C00034A1168034B1B780B441360704700BFDE
:10073C008400002004000020014B1868704700BFA3
:10074C008400002038B50446FFF7F6FF0546B4F1E7
:10075C00FF3F02D0044B1B781C44FFF7EDFF401BFE
:10076C00A042FAD338BD00BF04000020002808DBEB
:10077C000901C9B200F1604000F5614080F8001336
:10078C00704700F00F000901C9B2014B19547047B2
:10079C0014ED00E000B500F00700C0F1070CBCF14F
:1007AC00040F28BF4FF0040C031D062B0FD9C31EDA
:1007BC004FF0FF3E0EFA0CF021EA000199400EFAC0
:1007CC0003FE22EA0E0241EA02005DF804FB00235C
:1007DC00EEE70000074AD36823F4E0631B041B0C0C
:1007EC00000200F4E060034343F0BF6343F40033C2
:1007FC00D360704700ED00E010B50446054BD86897
:10080C00C0F30220FFF7C6FF01462046FFF7AEFFFC
:10081C0010BD00BF00ED00E00138B0F1807F0BD2BD
:10082C004FF0E0235861054AF02182F82310002094
:10083C00986107221A6170470120704700ED00E0B3
:10084C0070B582B00024A4469EE07C4DAB4214D01F
:10085C000CD8A5F58015AB420FD005F57025AB4231
:10086C000BD0A5F58015AB421FD106E0744DAB4201
:10087C0003D005F58035AB4217D18B68A3B1012BA2
:10088C000DD04261082410E0CC680EE0CC68043432
:10089C000BE0CC68083408E0CC680C3405E002614D
:1008AC00082402E0002400E00424BEF1FF0F37D836
:1008BC0006464FEA8C0233680F25954023EA050360
:1008CC0004FA02F2134333604B6813F0805F59D083
:1008DC005C4B9A6942F001029A619B6903F0010337
:1008EC000193019B4FEA9C02951C574B53F82560D2
:1008FC000CF00305AD000F23AB4026EA0306534B67
:10090C00984214D003F58063984279D003F5806344
:10091C00984277D003F58063984206D0042307E011
:10092C00061DACF108029200C5E7032300E000238A
:10093C00AB4033430232444D45F822304B6813F43C
:10094C00801F61D0424A936843EA0E0393604B6860
:10095C0013F4001F5ED03E4AD36843EA0E03D36003
:10096C004B6813F4003F5BD0394A536843EA0E03DB
:10097C0053604B6813F4803F58D0354A136843EAF0
:10098C000E0313600CF1010C0B6833FA0CF253D00C
:10099C00012202FA0CF203EA020E32EA0303F1D14D
:1009AC004B68122B3FF651AF122B3FF67EAF01A5D1
:1009BC0055F823F087080008950800089F080008E0
:1009CC00B1080008B7080008B7080008B708000805
:1009DC00B7080008B7080008B7080008B7080008EF
:1009EC00B7080008B7080008B7080008B7080008DF
:1009FC00B7080008B708000899080008A5080008FF
:100A0C00012395E7022393E7114A936823EA0E0327
:100A1C0093609CE70E4AD36823EA0E03D3609FE7EA
:100A2C000B4A536823EA0E035360A2E7084A136883
:100A3C0023EA0E031360A5E702B070BD000022107C
:100A4C00000031100010024000000140000801407D
:100A5C00000401400AB1016170470904016170474B
:100A6C0082B00A4B9A6942F001029A619A6902F0CB
:100A7C0001020092009ADA6942F08052DA61DB6975
:100A8C0003F080530193019B02B0704700100240A9
:100A9C0030B587B000230293039304930593026847
:100AAC00174B9A4201D007B030BD03F560439A69E9
:100ABC0042F480529A619A6902F480520092009A30
:100ACC009A6942F004029A619B6903F00403019352
:100ADC00019BA0230293022303930323059302ADEE
:100AEC00084C29462046FFF7ABFE40230293002317
:100AFC000393049329462046FFF7A2FED3E700BFD9
:100B0C00003001400008014082B0084B1B68084AC5
:100B1C00A2FB03235B0A00FB03F3019300BF019BC1
:100B2C005A1E0192002BF9D102B070470C00002024
:100B3C00D34D6210002800F0F18170B582B00446EC
:100B4C00036813F0010F2CD0994B5B6803F00C0376
:100B5C00042B1DD0964B5B6803F00C03082B12D0B2
:100B6C006368B3F5803F41D0002B55D103F180432E
:100B7C0003F504331A6822F480321A601A6822F4DE
:100B8C0080221A6037E08A4B5B6813F4803FE7D011
:100B9C00874B1B6813F4003F03D06368002B00F0F5
:100BAC00BF81236813F0020F75D0814B5B6813F083
:100BBC000C0F5FD07E4B5B6803F00C03082B54D0FA
:100BCC002369002B00F08A807A4B01221A60FFF710
:100BDC00B3FD0546764B1B6813F0020F75D1FFF77A
:100BEC00ABFD401B0228F5D903209EE1704A136827
:100BFC0043F480331360636843B3FFF79DFD0546F0
:100C0C006B4B1B6813F4003FCBD1FFF795FD401BDA
:100C1C006428F5D9032088E1B3F5A02F09D0644BE3
:100C2C001A6822F480321A601A6822F480221A6040
:100C3C00E1E703F18043A3F53C331A6842F48022C8
:100C4C001A601A6842F480321A60D4E7FFF774FD18
:100C5C000546574B1B6813F4003FA2D0FFF76CFD01
:100C6C00401B6428F5D903205FE1514B5B6813F4FA
:100C7C00803FA5D14E4B1B6813F0020F03D02369A4
:100C8C00012B40F04F814A4A136823F0F803616945
:100C9C0043EAC1031360236813F0080F33D0A36930
:100CAC00002B5CD0434B0122C3F88024FFF744FD9A
:100CBC0005463F4B5B6A13F0020F21D1FFF73CFD59
:100CCC00401B0228F5D903202FE1394A136823F081
:100CDC00F803616943EAC1031360DCE7354B00227A
:100CEC001A60FFF729FD0546314B1B6813F0020F04
:100CFC00D1D0FFF721FD401B0228F5D9032014E1C8
:100D0C000120FFF701FF236813F0040F00F0968019
:100D1C00274BDB6913F0805F34D1254BDA6942F045
:100D2C008052DA61DB6903F080530193019B01254A
:100D3C00214B1B6813F4807F26D0E368012B3DD038
:100D4C00002B53D103F1804303F504331A6A22F0CC
:100D5C0001021A621A6A22F004021A6233E0154B7D
:100D6C000022C3F88024FFF7E7FC0546104B5B6AB2
:100D7C0013F0020FC7D0FFF7DFFC401B0228F5D998
:100D8C000320D2E00025D3E70B4A136843F48073A9
:100D9C001360FFF7D1FC0646074B1B6813F4807FEA
:100DAC00CBD1FFF7C9FC801B6428F5D90320BCE02C
:100DBC000010024000004242007000405F4A136A7B
:100DCC0043F001031362E36833B3FFF7B5FC064647
:100DDC005A4B1B6A13F0020F2FD1FFF7ADFC801B8F
:100DEC0041F288339842F3D903209EE0052B09D0B9
:100DFC00524B1A6A22F001021A621A6A22F0040299
:100E0C001A62E0E74D4B1A6A42F004021A621A6A3F
:100E1C0042F001021A62D6E7FFF78EFC0646474BFA
:100E2C001B6A13F0020F08D0FFF786FC801B41F2FF
:100E3C0088339842F3D9032077E0E5B9E369002BB6
:100E4C0072D03E4A526802F00C02082A56D0022B8D
:100E5C0017D03B4B00221A66FFF76EFC0446374B4B
:100E6C001B6813F0007F47D0FFF766FC001B0228BD
:100E7C00F5D9032059E0314AD36923F08053D3616B
:100E8C00DCE72F4B00221A66FFF756FC05462B4B6E
:100E9C001B6813F0007F06D0FFF74EFC401B0228A6
:100EAC00F5D9032041E0236AB3F5803F1AD02349DA
:100EBC004B6823F47413226A606A024313434B6039
:100ECC001F4B01221A66FFF737FC04461B4B1B68AD
:100EDC0013F0007F0ED1FFF72FFC001B0228F5D971
:100EEC00032022E0154A536823F40033A1680B4316
:100EFC005360DCE7002018E0002016E0012B16D030
:100F0C000E4B5B6803F48031226A914211D103F4D9
:100F1C007013626A93420ED1002006E001207047E4
:100F2C00012002E0012000E0002002B070BD012091
:100F3C00FBE70120F9E70120F7E700BF00100240B2
:100F4C00000042420F4B5B6803F00C02082A01D0F0
:100F5C000D487047C3F383420C49885C13F4803FFF
:100F6C000BD0084B5B68C3F34043094AD35C064A79
:100F7C0002FB00F0B0FBF3F07047064B03FB00F0F4
:100F8C00704700BF0010024000127A0000160008E3
:100F9C00FC15000800093D00002800F0A08070B589
:100FAC000D460446524B1B6803F007038B420BD2D1
:100FBC004F4A136823F007030B431360136803F0C5
:100FCC0007038B4240F08D80236813F0020F17D07B
:100FDC0013F0040F04D0474A536843F4E0635360A2
:100FEC00236813F0080F04D0424A536843F460534B
:100FFC005360404A536823F0F003A1680B435360DD
:10100C00236813F0010F31D06368012B20D0022B21
:10101C0025D0384A126812F0020F64D035494A685C
:10102C0022F0030213434B60FFF786FB0646314B5D
:10103C005B6803F00C036268B3EB820F16D0FFF70A
:10104C007BFB801B41F288339842F0D9032045E0AA
:10105C00284A126812F4003FE0D101203EE0254AF4
:10106C00126812F0007FD9D1012037E0204B1B68A9
:10107C0003F00703AB420AD91D4A136823F0070398
:10108C002B431360136803F00703AB422DD1236885
:10109C0013F0040F06D0174A536823F4E063E16899
:1010AC000B435360236813F0080F07D0114A5368A1
:1010BC0023F46053216943EAC1035360FFF742FFF5
:1010CC000C4B5B68C3F303130B4AD35CD8400B4B3C
:1010DC0018600B4B1868FFF7EBFA002070BD01206D
:1010EC0070470120FAE70120F8E70120F6E700BF7E
:1010FC000020024000100240101600080C000020D6
:10110C00080000202DE9F04782B0054688461746B6
:10111C001E46FFF711FB0A9B1B1A03EB0609FFF790
:10112C000BFB8246284B1B68C3F3CB3309FB03F341
:10113C0001932B689C6838EA04040CBF012300233C
:10114C00BB423DD0B6F1FF3FF3D0FFF7F5FAA0EB71
:10115C000A00484507D2019A02B14A46019B013B5D
:10116C0001939146E5E72A68536823F0E003536046
:10117C006B68B3F5827F0BD0AB6AB3F5005F14D00C
:10118C00012385F85130002385F85030032018E0F6
:10119C00AB68B3F5004F02D0B3F5806FECD12A6881
:1011AC00136823F040031360E6E72A68136823F4FE
:1011BC00005313602A68136843F400531360DFE78D
:1011CC00002002B0BDE8F0870C00002070B582B0A2
:1011DC0006460C46154600920B4601220221FFF7EB
:1011EC0091FF48B900952346002280213046FFF735
:1011FC0089FF38B902B070BD736D43F0200373657D
:10120C000320F7E7736D43F0200373650320F1E7C8
:10121C00002856D010B50446436A33B94368B3F579
:10122C00827F05D00023C36102E000230361436188
:10123C000023A36294F85130002B3CD0022384F895
:10124C0051302268136823F040031360636803F481
:10125C008273A26802F404421343E26802F400624F
:10126C001343226902F002021343626902F0010285
:10127C001343A26902F400721343E26902F03802CC
:10128C001343226A02F080021343A26A02F4005252
:10129C00216813430B60638B226803F004035360D3
:1012AC002268D36923F40063D361002060650123B5
:1012BC0084F8513010BD84F850302046FFF7E8FB1D
:1012CC00BCE7012070472DE9F04383B00446884603
:1012DC0091461F460A9DFFF72FFA064694F85130A7
:1012EC006268012B0BD0D9B2B2F5827F40F0048139
:1012FC00A368002B40F00481042940F00381B8F16D
:10130C00000F00F00181B9F1000F00F0FF80002FF9
:10131C0000F0FE8094F85030012B00F0FB8001238C
:10132C0084F8503094F85130042B02D0052384F803
:10133C00513000236365C4F83890E787A787C4F859
:10134C003080E786A7862364636423681A6812F0EA
:10135C00400F03D11A6842F040021A60E368B3F5FB
:10136C00006F11D063680BB1012F0BD1226B236876
:10137C0012781A73236B01332363E38E9BB2013B08
:10138C009BB2E386012771E063680BB1012F0BD18F
:10139C00226B23681288DA60236B02332363E38E9B
:1013AC009BB2013B9BB2E38601271BE023689A6842
:1013BC0012F0010F0ED0E28F92B25AB1DA68A36B21
:1013CC001A80A36B0233A363E38F9BB2013B9BB2E6
:1013DC00E3870127FFF7B0F9801BA84202D3B5F1D0
:1013EC00FF3F1ED1E38E9BB21BB9E38F9BB2002B48
:1013FC0062D023689A6812F0020FD7D0E28E92B2B4
:10140C00002AD3D0002FD1D0226B1288DA60236B44
:10141C0002332363E38E9BB2013B9BB2E38600272E
:10142C00C4E7012384F85130002384F850300320A2
:10143C0063E023689A6812F0010F0ED0E28F92B22B
:10144C005AB1DA68A36B1A70A36B0133A363E38FF1
:10145C009BB2013B9BB2E3870127FFF76DF9831B1E
:10146C00AB4202D3B5F1FF3F1ED1EDB1E38E9BB27F
:10147C0013B9E38F9BB2FBB123689A6812F0020F89
:10148C00D7D0E28E92B2002AD3D0002FD1D0226BCB
:10149C0012781A73236B01332363E38E9BB2013BE7
:1014AC009BB2E3860027C4E7012384F85130002364
:1014BC0084F85030032020E0324629462046FFF7BE
:1014CC0085FE90B9A36833B901932368DA68019259
:1014DC009B680193019B012384F85130002384F80D
:1014EC005030636D4BB1012007E02023636500236E
:1014FC0084F85030012000E0022003B0BDE8F083F6
:10150C000220FAE70220F8E70120F6E70120F4E7D1
:10151C000120F2E70220F0E7FEE7FEE7FEE7FEE738
:10152C00FEE770477047704708B5FFF7F9F808BD3C
:10153C0070470000FFF7FCFF0B480C490C4A0023D6
:10154C0002E0D458C4500433C4188C42F9D3094A6D
:10155C00094C002301E013600432A242FBD300F0DB
:10156C0017F8FFF777F870470000002010000020F4
:10157C00281600081000002088000020FEE7034613
:10158C000244934200D1704703F8011BF9E70000B5
:10159C0070B500260C4D0D4B5B1B9C10A64209D15F
:1015AC00002600F019F80A4D0A4B5B1B9C10A64252
:1015BC0005D170BD55F8043B98470136EEE755F858
:1015CC00043B98470136F2E7201600082016000865
:1015DC002016000824160008F8B500BFF8BC08BC9B
:1015EC009E467047F8B500BFF8BC08BC9E467047D5
:1015FC000102000002030405060708090A0B0C0D82
:10160C000E0F101000000000000000000102030487
:04161C0006070809AC
:04162000310100088C
:041624000D010008AC
:101628009250ECCA010000001000000000127A007D
:040000050800154199
:00000001FF
