:020000040800F2
:1000000000500020491100088F10000891100008CE
:1000100093100008951000089710000800000000D9
:10002000000000000000000000000000991000081F
:100030009B100008000000009D1000089F100008A1
:100040009111000891110008911100089111000808
:1000500091110008911100089111000891110008F8
:1000600091110008911100089111000891110008E8
:1000700091110008911100089111000891110008D8
:1000800091110008911100089111000891110008C8
:1000900091110008911100089111000891110008B8
:1000A00091110008911100089111000891110008A8
:1000B0009111000891110008911100089111000898
:1000C0009111000891110008911100089111000888
:1000D0009111000891110008911100089111000878
:1000E0009111000891110008911100080000000012
:1000F0000000000000000000000000000000000000
:0C01000000000000000000005FF808F1A3
:10010C0010B5054C237833B9044B13B10448AFF345
:10011C0000800123237010BD680000200000000047
:10012C00FC1F000808B5034B1BB103490348AFF390
:10013C00008008BD000000006C000020FC1F0008BF
:10014C0082B00A4B9A6942F020029A619A6902F0D5
:10015C0020020092009A9A6942F004029A619B690B
:10016C0003F004030193019B02B07047001002409E
:10017C0072B6FEE708B50A480A4B03604FF4E13348
:10018C00436000238360C36003610C22426183617E
:10019C00C36100F078FE00B908BDFFF7E9FF00BFAE
:1001AC00840000200044004010B590B006AC28221A
:1001BC000021204601F002F90023019302930393DE
:1001CC00049305930223069301220A9210220B92A8
:1001DC000D93204600F08EFA78B90F230193022379
:1001EC000293002103914FF480630493059101A8BD
:1001FC0000F0B2FC18B910B010BDFFF7B9FFFFF753
:10020C00B7FF000000B585B0144B93E803000190D4
:10021C00ADF808100023CDF80A3000F04BF8FFF7CA
:10022C00C3FFFFF78DFFFFF7A5FF0D4C64230A22D8
:10023C0001A9204600F057FE4FF47A7000F05EF8EA
:10024C00642301220DF10301204600F0B1FE9DF85C
:10025C000310044801F05CF8E7E700BF1420000825
:10026C00840000202020000810B504460E4B1A789C
:10027C004FF47A73B3FBF2F30C4A1068B0FBF3F053
:10028C0000F0A6F868B90F2C01D901200AE0002271
:10029C0021464FF0FF3000F08BF8054B1C6000201E
:1002AC0000E0012010BD00BF00000020080000206D
:1002BC000400002008B5074A136843F010031360CC
:1002CC00032000F063F80F20FFF7CEFF00F09EF93B
:1002DC00002008BD00200240034A1168034B1B7824
:1002EC000B441360704700BFCC00002000000020BE
:1002FC00014B1868704700BFCC00002038B504468D
:10030C00FFF7F6FF0546B4F1FF3F02D0044B1B7814
:10031C001C44FFF7EDFF401BA042FAD338BD00BFD1
:10032C0000000020002808DB0901C9B200F1604080
:10033C0000F5614080F80013704700F00F000901D0
:10034C00C9B2014B1954704714ED00E000B500F030
:10035C000700C0F1070CBCF1040F28BF4FF0040CD0
:10036C00031D062B0FD9C31E4FF0FF3E0EFA0CF0E7
:10037C0021EA000199400EFA03FE22EA0E0241EA3C
:10038C0002005DF804FB0023EEE70000074AD36887
:10039C0023F4E0631B041B0C000200F4E060034335
:1003AC0043F0BF6343F40033D360704700ED00E0CB
:1003BC0010B50446054BD868C0F30220FFF7C6FF02
:1003CC0001462046FFF7AEFF10BD00BF00ED00E078
:1003DC000138B0F1807F0BD24FF0E0235861054A11
:1003EC00F02182F823100020986107221A617047CF
:1003FC000120704700ED00E070B582B00024A446E7
:10040C009EE07C4DAB4214D00CD8A5F58015AB42C8
:10041C000FD005F57025AB420BD0A5F58015AB427E
:10042C001FD106E0744DAB4203D005F58035AB42CD
:10043C0017D18B68A3B1012B0DD04261082410E0B9
:10044C00CC680EE0CC6804340BE0CC68083408E0CF
:10045C00CC680C3405E00261082402E0002400E0C2
:10046C000424BEF1FF0F37D806464FEA8C023368DE
:10047C000F25954023EA050304FA02F21343336077
:10048C004B6813F0805F59D05C4B9A6942F00102C3
:10049C009A619B6903F001030193019B4FEA9C0253
:1004AC00951C574B53F825600CF00305AD000F233A
:1004BC00AB4026EA0306534B984214D003F58063F5
:1004CC00984279D003F58063984277D003F5806326
:1004DC00984206D0042307E0061DACF108029200F6
:1004EC00C5E7032300E00023AB4033430232444D05
:1004FC0045F822304B6813F4801F61D0424A936850
:10050C0043EA0E0393604B6813F4001F5ED03E4A1F
:10051C00D36843EA0E03D3604B6813F4003F5BD0FF
:10052C00394A536843EA0E0353604B6813F4803F17
:10053C0058D0354A136843EA0E0313600CF1010CD2
:10054C000B6833FA0CF253D0012202FA0CF203EAD4
:10055C00020E32EA0303F1D14B68122B3FF651AF76
:10056C00122B3FF67EAF01A555F823F03F0400088F
:10057C004D04000857040008690400086F040008C3
:10058C006F0400086F0400086F0400086F04000873
:10059C006F0400086F0400086F0400086F04000863
:1005AC006F0400086F0400086F0400086F04000853
:1005BC00510400085D040008012395E7022393E72A
:1005CC00114A936823EA0E0393609CE70E4AD368A2
:1005DC0023EA0E03D3609FE70B4A536823EA0E030A
:1005EC005360A2E7084A136823EA0E031360A5E7D9
:1005FC0002B070BD0000221000003110001002404B
:10060C0000000140000801400004014082B00E4B84
:10061C009A6942F001029A619A6902F00102009211
:10062C00009ADA6942F08052DA61DB6903F0805398
:10063C000193019B054A536823F0E06343F0007378
:10064C00536002B0704700BF001002400000014030
:10065C0030B587B00023029303930493059302688B
:10066C00174B9A4201D007B030BD03F5E633DA6977
:10067C0042F40032DA61DA6902F400320092009A34
:10068C009A6942F004029A619B6903F00403019396
:10069C00019B04230293022303930323059302ADCE
:1006AC00084C29462046FFF7A7FE08230293002397
:1006BC000393049329462046FFF79EFED3E700BF21
:1006CC00004400400008014082B0084B1B68084AF7
:1006DC00A2FB03235B0A00FB03F3019300BF019B06
:1006EC005A1E0192002BF9D102B07047080000206D
:1006FC00D34D6210002800F0F18170B582B0044631
:10070C00036813F0010F2CD0994B5B6803F00C03BA
:10071C00042B1DD0964B5B6803F00C03082B12D0F6
:10072C006368B3F5803F41D0002B55D103F1804372
:10073C0003F504331A6822F480321A601A6822F422
:10074C0080221A6037E08A4B5B6813F4803FE7D055
:10075C00874B1B6813F4003F03D06368002B00F039
:10076C00BF81236813F0020F75D0814B5B6813F0C7
:10077C000C0F5FD07E4B5B6803F00C03082B54D03E
:10078C002369002B00F08A807A4B01221A60FFF754
:10079C00AFFD0546764B1B6813F0020F75D1FFF7C2
:1007AC00A7FD401B0228F5D903209EE1704A13686F
:1007BC0043F480331360636843B3FFF799FD054638
:1007CC006B4B1B6813F4003FCBD1FFF791FD401B23
:1007DC006428F5D9032088E1B3F5A02F09D0644B28
:1007EC001A6822F480321A601A6822F480221A6085
:1007FC00E1E703F18043A3F53C331A6842F480220D
:10080C001A601A6842F480321A60D4E7FFF770FD60
:10081C000546574B1B6813F4003FA2D0FFF768FD49
:10082C00401B6428F5D903205FE1514B5B6813F43E
:10083C00803FA5D14E4B1B6813F0020F03D02369E8
:10084C00012B40F04F814A4A136823F0F803616989
:10085C0043EAC1031360236813F0080F33D0A36974
:10086C00002B5CD0434B0122C3F88024FFF740FDE2
:10087C0005463F4B5B6A13F0020F21D1FFF738FDA1
:10088C00401B0228F5D903202FE1394A136823F0C5
:10089C00F803616943EAC1031360DCE7354B0022BE
:1008AC001A60FFF725FD0546314B1B6813F0020F4C
:1008BC00D1D0FFF71DFD401B0228F5D9032014E110
:1008CC000120FFF701FF236813F0040F00F096805E
:1008DC00274BDB6913F0805F34D1254BDA6942F08A
:1008EC008052DA61DB6903F080530193019B01258F
:1008FC00214B1B6813F4807F26D0E368012B3DD07D
:10090C00002B53D103F1804303F504331A6A22F010
:10091C0001021A621A6A22F004021A6233E0154BC1
:10092C000022C3F88024FFF7E3FC0546104B5B6AFA
:10093C0013F0020FC7D0FFF7DBFC401B0228F5D9E0
:10094C000320D2E00025D3E70B4A136843F48073ED
:10095C001360FFF7CDFC0646074B1B6813F4807F32
:10096C00CBD1FFF7C5FC801B6428F5D90320BCE074
:10097C000010024000004242007000405F4A136ABF
:10098C0043F001031362E36833B3FFF7B1FC06468F
:10099C005A4B1B6A13F0020F2FD1FFF7A9FC801BD7
:1009AC0041F288339842F3D903209EE0052B09D0FD
:1009BC00524B1A6A22F001021A621A6A22F00402DD
:1009CC001A62E0E74D4B1A6A42F004021A621A6A84
:1009DC0042F001021A62D6E7FFF78AFC0646474B43
:1009EC001B6A13F0020F08D0FFF782FC801B41F248
:1009FC0088339842F3D9032077E0E5B9E369002BFB
:100A0C0072D03E4A526802F00C02082A56D0022BD1
:100A1C0017D03B4B00221A66FFF76AFC0446374B93
:100A2C001B6813F0007F47D0FFF762FC001B022805
:100A3C00F5D9032059E0314AD36923F08053D361AF
:100A4C00DCE72F4B00221A66FFF752FC05462B4BB6
:100A5C001B6813F0007F06D0FFF74AFC401B0228EE
:100A6C00F5D9032041E0236AB3F5803F1AD023491E
:100A7C004B6823F47413226A606A024313434B607D
:100A8C001F4B01221A66FFF733FC04461B4B1B68F5
:100A9C0013F0007F0ED1FFF72BFC001B0228F5D9B9
:100AAC00032022E0154A536823F40033A1680B435A
:100ABC005360DCE7002018E0002016E0012B16D074
:100ACC000E4B5B6803F48031226A914211D103F41E
:100ADC007013626A93420ED1002006E00120704729
:100AEC00012002E0012000E0002002B070BD0120D6
:100AFC00FBE70120F9E70120F7E700BF00100240F7
:100B0C00000042420F4B5B6803F00C02082A01D034
:100B1C000D487047C3F383420C49885C13F4803F43
:100B2C000BD0084B5B68C3F34043094AD35C064ABD
:100B3C0002FB00F0B0FBF3F07047064B03FB00F038
:100B4C00704700BF0010024000127A0028200008F5
:100B5C002420000800093D00002800F0A08070B59A
:100B6C000D460446524B1B6803F007038B420BD215
:100B7C004F4A136823F007030B431360136803F009
:100B8C0007038B4240F08D80236813F0020F17D0BF
:100B9C0013F0040F04D0474A536843F4E0635360E6
:100BAC00236813F0080F04D0424A536843F460538F
:100BBC005360404A536823F0F003A1680B43536021
:100BCC00236813F0010F31D06368012B20D0022B66
:100BDC0025D0384A126812F0020F64D035494A68A1
:100BEC0022F0030213434B60FFF782FB0646314BA6
:100BFC005B6803F00C036268B3EB820F16D0FFF74F
:100C0C0077FB801B41F288339842F0D9032045E0F2
:100C1C00284A126812F4003FE0D101203EE0254A38
:100C2C00126812F0007FD9D1012037E0204B1B68ED
:100C3C0003F00703AB420AD91D4A136823F00703DC
:100C4C002B431360136803F00703AB422DD12368C9
:100C5C0013F0040F06D0174A536823F4E063E168DD
:100C6C000B435360236813F0080F07D0114A5368E5
:100C7C0023F46053216943EAC1035360FFF742FF39
:100C8C000C4B5B68C3F303130B4AD35CD8400B4B80
:100C9C0018600B4B1868FFF7E7FA002070BD0120B5
:100CAC0070470120FAE70120F8E70120F6E700BFC2
:100CBC0000200240001002404020000808000020E4
:100CCC0004000020014B1868704700BF080000208A
:100CDC0008B5FFF7F7FF044B5B68C3F30223034A25
:100CEC00D35CD84008BD00BF00100240382000087B
:100CFC0008B5FFF7E7FF044B5B68C3F3C223034A55
:100D0C00D35CD84008BD00BF00100240382000085A
:100D1C00026802F10C0353E8003F23F490730C3289
:100D2C0042E800310029F3D1026802F1140353E8C0
:100D3C00003F23F00103143242E800310029F3D1C3
:100D4C00036B012B05D0202380F842300023036372
:100D5C007047026802F10C0353E8003F23F01003C4
:100D6C000C3242E800310029F3D1ECE710B504460F
:100D7C000268136923F44053C1680B431361836801
:100D8C000269134342691A430168CB6823F4B053D8
:100D9C0023F00C031343CB600268536923F44073B4
:100DAC0081690B4353610268134B9A4220D0FFF7C1
:100DBC008FFF024602EB820202EB820263689B0009
:100DCC00B2FBF3F20D48A0FB02314909642303FB8B
:100DDC0011231B013233A0FB03035B0903F0F00268
:100DEC0002EB011203F00F03216813448B6010BD5A
:100DFC00FFF77EFF0246DDE7003801401F85EB510F
:100E0C002DE9F04383B005460E4617469946DDF8AA
:100E1C0028802B681C6836EA04040CBF01240024CB
:100E2C00BC4228D1B8F1FF3FF3D0FFF761FAA0EB39
:100E3C000900404523D8B8F1000F22D02B68DA689E
:100E4C0012F0040FE5D0802EE3D0402EE1D01A68CA
:100E5C0012F0080FDDD0002401941A6801925B682F
:100E6C000193019B2846FFF753FF08236B6485F819
:100E7C004040012000E0002003B0BDE8F0830320D7
:100E8C00FAE70320F8E760B310B5044690F8413058
:100E9C0013B3242384F841302268D36823F400531D
:100EAC00D3602046FFF762FF2268136923F4904356
:100EBC0013612268536923F02A0353612268D368B3
:100ECC0043F40053D36000206064202384F8413045
:100EDC0084F84230606310BD80F84030FFF7B8FBF7
:100EEC00D7E7012070472DE9F04182B01E4690F8FB
:100EFC004130202B56D104460D469046002955D042
:100F0C000AB901204FE000234364212380F84130CB
:100F1C00FFF7EEF90746A4F82480A4F82680A3680E
:100F2C00B3F5805F02D04FF0000814E023692BB3B7
:100F3C004FF000080FE0202384F84130032032E00A
:100F4C0038F8023B2268C3F308035360E28C92B278
:100F5C00013A92B2E284E38C9BB293B100963B4689
:100F6C00002280212046FFF74BFF0028E3D1002D03
:100F7C00E6D015F8012B23685A60E7E7A846002550
:100F8C00E9E700963B46002240212046FFF738FF58
:100F9C0018B9202384F8413005E0202384F841302F
:100FAC00032000E0022002B0BDE8F0810120FAE746
:100FBC002DE9F04182B01E4690F84230202B5AD1D8
:100FCC0004460D469046002959D00AB9012053E039
:100FDC0000234364222280F842200363FFF788F940
:100FEC000746A4F82C80A4F82E80A368B3F5805F84
:100FFC0002D04FF000081AE02369002B33D04FF0D9
:10100C00000814E0202384F84230032034E02368E5
:10101C005B68C3F3080328F8023B03E023685B68B2
:10102C002B700135E28D92B2013A92B2E285E38DDA
:10103C009BB2DBB100963B46002220212046FFF7F5
:10104C00DFFE0028DED1002DE1D0A368B3F5805F70
:10105C00E4D013B92369002BE0D023685B6803F05C
:10106C007F032B70DDE7A8460025E0E7202384F8FA
:10107C004230002000E0022002B0BDE8F0810120E7
:10108C00FAE7FEE7FEE7FEE7FEE7FEE7704770478C
:10109C00704708B5FFF720F908BD70B50C46164629
:1010AC00002506E0AFF30080214601F8010B013565
:1010BC000C46B542F6DB304670BD70B50C46164694
:1010CC00002504E014F8010BAFF300800135B542A4
:1010DC00F8DB304670BD4FF0FF3070474FF40053D3
:1010EC004B600020704701207047002070470000C3
:1010FC0010B503460C4A0D490D48006840B10C4828
:10110C0000680344521A934206D8094A136010BD72
:10111C000748084C0460F2E700F09EF90C230360CA
:10112C004FF0FF30F3E700BF005000200004000038
:10113C00D00000202002002070470000FFF7FCFFC9
:10114C000B480C490C4A002302E0D458C450043319
:10115C00C4188C42F9D3094A094C002301E01360EE
:10116C000432A242FBD300F07DF9FFF74BF8704735
:10117C0000000020680000208C200008680000207F
:10118C0020020020FEE70000002310B50446C0E951
:10119C000033C0E90433836081814366C28183617B
:1011AC00194608225C3000F009F90D4B2462636289
:1011BC000C4BA3620C4BE3620C4B23630C4B9C4219
:1011CC0006D003F16802944202D0D0339C4205D180
:1011DC0004F15800BDE8104000F068B910BD00BF24
:1011EC0041130008631300089B130008C113000887
:1011FC00D4000020024A0349034800F06BB800BF3A
:10120C000C0000204D1D00081C00002041680C4BF8
:10121C0010B59942044601D000F092FDA168094B2B
:10122C00994202D0204600F08BFDE168064B9942B2
:10123C0004D02046BDE8104000F082BD10BD00BFB8
:10124C00D40000203C010020A40100200C4B0D4ACE
:10125C0010B504211A600C480022FFF795FF0A4BC9
:10126C0001221C46092103F16800FFF78DFF04F1F0
:10127C00D0000222BDE810401221FFF785BF00BF4D
:10128C000C02002001120008D4000020014800F0DC
:10129C000EB900BF15020020014800F009B900BFCB
:1012AC001502002010B50446FFF7F0FF236A1BB1AE
:1012BC00BDE81040FFF7F0BF044B2362044B1B68E2
:1012CC00002BF5D1FFF7C2FFF2E700BF191200089F
:1012DC000C0200202DE9F8430746884614460026E8
:1012EC00D4E90195B9F1010905D52468002CF7D191
:1012FC003046BDE8F883AB89012B07D9B5F90E3020
:10130C00013303D029463846C04706436835E9E720
:10131C000FB407B5064904AB086853F8042B816871
:10132C00019300F0E5F903B05DF804EB04B07047ED
:10133C001800002010B50C46B1F90E1000F068F83A
:10134C000028ABBF636DA3891B1823F48053ACBF7B
:10135C006365A38110BD2DE9F0411F468B890546BD
:10136C00DB050C46164605D502230022B1F90E10FA
:10137C0000F03CF8A389324623F48053A38128461D
:10138C003B46B4F90E10BDE8F04100F053B810B56F
:10139C000C46B1F90E1000F029F8B4F90C30421CCF
:1013AC000BBF23F4805343F48053A381A38118BF54
:1013BC00606510BDB1F90E1000F008B80346024488
:1013CC00934200D1704703F8011BF9E738B50023AD
:1013DC00054D044608462B60FFF77DFE431C02D1E9
:1013EC002B6803B1236038BD1002002038B50446C9
:1013FC00084611460022054D2A601A46FFF775FE75
:10140C00431C02D12B6803B1236038BD10020020AD
:10141C0038B50446084611460022054D2A601A4686
:10142C00FFF73BFE431C02D12B6803B1236038BD90
:10143C001002002038B50446084611460022054D1E
:10144C002A601A46FFF739FE431C02D12B6803B100
:10145C00236038BD10020020014B1868704700BF94
:10146C001800002070B500260C4D0D4B5B1B9C101A
:10147C00A64209D1002600F0BBFD0A4D0A4B5B1BAE
:10148C009C10A64205D170BD55F8043B9847013617
:10149C00EEE755F8043B98470136F2E78420000844
:1014AC0084200008842000088820000870477047BA
:1014BC007047000038B50546002940D051F8043C6F
:1014CC000C1F002BB8BFE41800F0DEF81C4A1368A0
:1014DC0033B9636014602846BDE8384000F0DAB8D0
:1014EC00A34208D9206821188B4201BF19685B6898
:1014FC0009182160EDE71A465B680BB1A342FAD9D3
:10150C0011685018A0420BD1206801445018834236
:10151C001160E0D118685B68084410605360DAE72A
:10152C0002D90C232B60D6E7206821188B4201BF0F
:10153C0019685B680918216063605460CBE738BD9B
:10154C001C02002070B50F4E0C463168054611B9CF
:10155C0000F0B0FC30602146284600F0ABFC431C88
:10156C0003D14FF0FF34204670BDC41C24F003049B
:10157C00A042F8D0211A284600F09CFC0130F2D190
:10158C00EFE700BF180200202DE9F843CD1C25F031
:10159C00030508350C2D38BF0C25002D064601DB44
:1015AC00A94204D90C2333600020BDE8F883DFF88E
:1015BC00D48000F069F8D8F800301C4644BB2946AA
:1015CC003046FFF7BFFF431C044658D1D8F8004003
:1015DC002746002F43D1002C4BD023683946304688
:1015EC0004EB030900F066FC814542D121683046CA
:1015FC006D1A2946FFF7A6FF01303AD023682B4419
:10160C002360D8F800305A6862BBC8F800700FE04D
:10161C002268521B20D40B2A17D96119A3422560CA
:10162C0018BF5960636808BFC8F8001062514B605E
:10163C00304600F02FF804F10B00231D20F00700BA
:10164C00C21A1CBF1B1AA350AFE76268A3420CBF9F
:10165C00C8F800205A60EBE723466468AEE73C46C6
:10166C007F68B6E71A465B68A342FBD10023536040
:10167C00DEE70C233046336000F00CF894E705608D
:10168C00D6E700BF1C0200200148FFF710BF00BFC7
:10169C00140200200148FFF70BBF00BF140200200A
:1016AC00936810B4013B002B936007DA9469A34252
:1016BC0001DB0A2902D110BC00F06ABB1368581C6C
:1016CC0010601970084610BC7047F8B506460F46F6
:1016DC001446D518AC4201D1002007E03A463046FA
:1016EC0014F8011BFFF7DCFF431CF3D1F8BD00001D
:1016FC002DE9F04F0D461446984606469DB018B19C
:10170C00036A0BB9FFF7CEFD6B6ED90705D4AB8915
:10171C009A0502D4A86DFFF7CAFEAB891B0701D549
:10172C002B699BB92946304600F070FB70B16B6E8B
:10173C00DC0704D54FF0FF301DB0BDE8F08FAB894E
:10174C009805F7D4A86DFFF7B3FEF3E700230993D0
:10175C0020238DF8293030234FF00109CDF80C806F
:10176C00DFF8A8818DF82A3023469A4613F8012B0E
:10177C000AB1252AF9D1BAEB040B0BD05B462246F1
:10178C0029463046FFF7A1FF013000F0A780099AE7
:10179C005A4409929AF80030002B00F09F800023E5
:1017AC004FF0FF32CDE905230AF1010A04930793A8
:1017BC008DF853301A935446052214F8011B5348E4
:1017CC0000F088FB049AD8B9D10644BF20238DF8C9
:1017DC005330130744BF2B238DF853309AF8003045
:1017EC002A2B15D0544600204FF00A0C079A21469C
:1017FC0011F8013B303B092B4BD9B0B1079214E0E7
:10180C00A0EB080309FA03F31343A2460493D2E7AF
:10181C00039B191D1B680391002BBBBF5B4242F05D
:10182C00020207930793B8BF049223782E2B0AD198
:10183C0063782A2B32D1039B02341A1D1B68039246
:10184C0043EAE3730593DFF8C8A0032250462178DE
:10185C0000F040FB38B14022049BA0EB0A00824010
:10186C0013430134049314F8011B062229488DF804
:10187C00281000F02FFB00283FD0274B1BBB039BED
:10188C00073323F0070308330393099B3B44099365
:10189C006AE70C4601200CFB0232A8E700234FF04C
:1018AC000A0C194601340593204610F8012B303AE6
:1018BC00092A03D9002BC6D00591C4E7044601239D
:1018CC000CFB0121F0E703AB00932A463046134B87
:1018DC0004A9AFF300800746781CD6D16B6ED907EC
:1018EC0005D4AB899A0502D4A86DFFF7E1FDAB894D
:1018FC005B063FF51FAF09981EE703AB00932A4622
:10190C003046064B04A900F07DF8E4E750200008AF
:10191C00562000085A20000800000000D7160008C6
:10192C002DE9F047164698468A680B69074693429C
:10193C00B8BF1346336091F843200C46DDF8209075
:10194C000AB1013333602368990642BF336802330E
:10195C003360256815F0060506D104F1190AE36811
:10196C0032689B1AAB422BDC94F843302268003B64
:10197C0018BF0123920630D44146384604F1430285
:10198C00C847013023D02368226903F00603042BD7
:10199C0014BF002533684FF0000608BFE56804F15A
:1019AC001A0408BFED1A54F8123C08BF25EAE57575
:1019BC009342C4BF9B1AED18B5421AD1002008E01F
:1019CC000123524641463846C847013003D14FF0F7
:1019DC00FF30BDE8F0870135C1E73020E11881F810
:1019EC0043005A1C94F845102244023382F84310E9
:1019FC00C2E70123224641463846C8470130E6D0AB
:101A0C000136D9E72DE9FF470F7E9146782F8046A6
:101A1C000C469A460C9E01F1430207D8622F0AD855
:101A2C00002F00F0D280582F00F0B78004F142064E
:101A3C0084F842703AE0A7F16303152BF6D801A1A4
:101A4C0051F823F0A91A0008BD1A0008391A000829
:101A5C00391A0008391A0008391A0008BD1A00088A
:101A6C00391A0008391A0008391A0008391A0008FE
:101A7C00BD1B0008E71A0008731B0008391A000880
:101A8C00391A0008DF1B0008391A0008E71A000889
:101A9C00391A0008391A00087B1B000833681A1D14
:101AAC001B68326004F1420684F8423001239DE049
:101ABC0033682068191D3160060601D51D6803E0E6
:101ACC004506FBD5B3F90050002D03DA2D236D42EA
:101ADC0084F843300A23594810E02168336808061B
:101AEC0053F8045B02D4490648BFADB26F2F53487C
:101AFC00336059D10823002184F843106668002E06
:101B0C00A66005DB21682E4321F0040121604DD035
:101B1C001646B5FBF3F103FB1157C75D06F8017DC3
:101B2C002F46BB420D46F4D9082B0BD12368DF0797
:101B3C0008D5236961689942DEBF302306F8013C61
:101B4C0006F1FF36921B22614B4621464046CDF8EA
:101B5C0000A003AAFFF7E4FE01304CD14FF0FF3098
:101B6C0004B0BDE8F087236843F020032360782796
:101B7C00334884F84570236831681F0651F8045BBC
:101B8C0002D45F0648BFADB23160D90744BF43F001
:101B9C00200323601DB11023ADE72848E9E7236833
:101BAC0023F020032360F6E70A23A4E71646BBE7DD
:101BBC0033682568181D616930602E061B6801D5D5
:101BCC00196002E06806FBD51980002316462361D4
:101BDC00BAE7336800211A1D32601E68626830460D
:101BEC0000F078F908B1801B606063682361002302
:101BFC0084F84330A8E73246494640462369D0472B
:101C0C000130ABD023689B0713D4E068039B984248
:101C1C00B8BF1846A4E70123324649464046D04790
:101C2C0001309BD00135E36803995B1AAB42F2DCBF
:101C3C00EBE7002504F11906F5E700BF6120000869
:101C4C0072200008B1F90C20F8B5160705460C46B1
:101C5C0051D44B68002B02DC0B6C002B49DDE66A7F
:101C6C00002E46D0002312F480522F682B6031D006
:101C7C00626DA389590705D56368D21A636B0BB1E2
:101C8C00236CD21A00232846E66A216AB047421C0C
:101C9C00B4F90C3006D129681D2945D8274ACA4009
:101CAC00D60741D5002262602269D904226004D58E
:101CBC00421C01D12B6803B96065616B2F60C1B107
:101CCC0004F14403994202D02846FFF7F3FB0023AA
:101CDC0063630EE001232846216AB0470246501C7C
:101CEC00C7D12B68002BC4D01D2B01D0162B19D1BA
:101CFC002F6000201DE00F69002FFAD0930718BF4A
:101D0C0000230E6808BF4B69F61B0F608B60002E1A
:101D1C00EFDD33463A462846216AD4F828C0E0471E
:101D2C00002807DCB4F90C304FF0FF3043F04003CF
:101D3C00A381F8BD0744361AE9E700BF0100402033
:101D4C0038B50B6905460C4613B90025284638BD35
:101D5C0018B1036A0BB9FFF7A5FAB4F90C30002BD4
:101D6C00F3D0626ED00704D4990502D4A06DFFF7AE
:101D7C009EFB28462146FFF765FF636E0546DA0792
:101D8C00E4D4A3899B05E1D4A06DFFF791FBDDE7BB
:101D9C00F8B50E461446054618B1036A0BB9FFF7A1
:101DAC0081FAA369A360A3891A0701D5236943B9F2
:101DBC002146284600F02AF818B14FF0FF37384674
:101DCC00F8BD23682269F6B2981A636937468342D4
:101DDC0005DC21462846FFF7B3FF0028EDD1A368A8
:101DEC00013BA36023685A1C22601E706269431C6D
:101DFC009A4204D0A389DB07E1D50A2EDFD1214614
:101E0C002846FFF79DFF0028D9D0D6E738B5284BD8
:101E1C00054618680C4618B1036A0BB9FFF742FA6D
:101E2C00B4F90C30190721D4DA0607D409222A6038
:101E3C0043F040034FF0FF30A38131E0580712D537
:101E4C00616B41B104F14403994202D02846FFF77B
:101E5C0031FB002363630022B4F90C306260226909
:101E6C0023F02403226043F00803A381226942B9C2
:101E7C0003F42073B3F5007F03D02146284600F00D
:101E8C005BF8B4F90C3013F001020AD00022A26006
:101E9C0062695242A261226942B913F08000C7D133
:101EAC0038BD990758BF6269A260F4E70020F7E7D4
:101EBC001800002038B50023054D044608462B6059
:101ECC00FFF716F9431C02D12B6803B1236038BD10
:101EDC0010020020034610B5C9B2024493421846C2
:101EEC0001D1002003E0047801338C42F6D110BDFF
:101EFC0070B50C46B1F90E10154600291E4696B069
:101F0C000ADAA18911F0800113D14FF4806200200C
:101F1C0031602A6016B070BD6A4600F047F80028A0
:101F2C00EFDB019901F47041A1F50053594259417D
:101F3C00EBE700214022EAE78B8973B59E07054643
:101F4C000C4607D504F14703236023610123636129
:101F5C0002B070BD01AB6A46FFF7CAFF009E28466F
:101F6C003146FFF711FBB4F90C3038B99A05EFD4B0
:101F7C0023F0030343F00203A381E3E743F0800360
:101F8C00A381019BC4E904062060002BE0D0284605
:101F9C00B4F90E1000F01CF80028D9D0A38923F056
:101FAC00030343F00103A381D2E7000038B50023FB
:101FBC00064D0446084611462B60FFF78FF8431C6C
:101FCC0002D12B6803B1236038BD00BF1002002082
:101FDC0038B50023054D044608462B60FFF783F8FF
:101FEC00431C02D12B6803B1236038BD10020020C2
:101FFC00F8B500BFF8BC08BC9E467047F8B500BFEA
:08200C00F8BC08BC9E467047B9
:1020140068656C6C6F00000000000000256400001F
:102024000102000002030405060708090A0B0C0D4F
:102034000E0F101000000000010203040000000055
:10204400000000000102030406070809232D302BB9
:102054002000686C4C0065666745464700303132A5
:1020640033343536373839414243444546003031FC
:10207400323334353637383961626364656600005B
:04208400310100081E
:042088000D0100083E
:10208C00010000001000000000127A0000000000A7
:10209C0003000000D40000201C0000200000000001
:1020AC00D40000203C010020A4010020000000000E
:1020BC000000000000000000000000000000000014
:1020CC000000000000000000000000000000000004
:1020DC0000000000000000000000000000000000F4
:0820EC000000000000000000EC
:040000050800114995
:00000001FF
