:020000040800F2
:1000000000500020FD1A0008E31A0008E51A000855
:10001000E71A0008E91A0008EB1A000800000000BF
:10002000000000000000000000000000ED1A0008C1
:10003000EF1A000800000000F11A0008F31A000887
:10004000451B0008451B0008451B0008451B000810
:10005000451B0008451B0008451B0008451B000800
:10006000451B0008451B0008451B0008451B0008F0
:10007000451B0008451B0008451B0008451B0008E0
:10008000451B0008451B0008451B0008451B0008D0
:10009000451B0008451B0008451B0008451B0008C0
:1000A000451B0008451B0008451B0008451B0008B0
:1000B000451B0008451B0008451B0008451B0008A0
:1000C000451B0008451B0008451B0008451B000890
:1000D000451B0008451B0008451B0008451B000880
:1000E000451B0008451B0008451B000800000000D8
:1000F0000000000000000000000000000000000000
:0C01000000000000000000005FF808F1A3
:10010C0010B5054C237833B9044B13B10448AFF345
:10011C0000800123237010BD0C00002000000000A3
:10012C00A01B000808B5034B1BB103490348AFF3F0
:10013C00008008BD0000000010000020A01B00087B
:10014C0070B586B002AD0024029403940494059417
:10015C00134B9A6942F020029A619A6902F02002CC
:10016C000092009A9A6942F004029A619B6903F02A
:10017C0004030193019B0B4E22464FF480513046F1
:10018C0000F0A8FD4FF480530293012303930494D1
:10019C00022305932946304600F092FC06B070BD50
:1001AC00001002400008014072B6FEE700B585B0B1
:1001BC0000230193029303930F48104A026083605B
:1001CC000122027303754FF46021C1614360026127
:1001DC0000F088FB60B90023019301220292039383
:1001EC0001A9054800F0FAF920B905B05DF804FB47
:1001FC00FFF7DAFFFFF7D8FF700000200024014062
:10020C0010B592B000241094119409940A940B9494
:10021C000C940D940E940F942022214601A801F009
:10022C008CFC2048204B036047234360846064238C
:10023C00C36004614461846101F0ACFA002829D1E7
:10024C0000231093119310A9164801F0E5FB18BB7D
:10025C006023099300220A920B920C920D920E923B
:10026C000F9209A90F4801F0EFFAB8B900230193D6
:10027C0002930393049305934FF400520692089350
:10028C0001A9084801F0FEFB50B9064800F090FDAA
:10029C0012B010BDFFF788FFFFF786FFFFF784FF52
:1002AC00FFF782FF28000020002C014010B594B00D
:1002BC000AAC28220021204601F03FFC00230593C4
:1002CC000693079308930993019302930393049362
:1002DC0001220A924FF480330B930E920222119258
:1002EC0012934FF4E0131393204600F09FFDC0B916
:1002FC000F23059302210691002307934FF480628C
:10030C000892099305A800F0C3FF60B9022301937A
:10031C004FF40043039301A801F086F828B914B0F8
:10032C0010BDFFF741FFFFF73FFFFFF73DFF000058
:10033C0010B500F055F8FFF7B9FFFFF701FFFFF715
:10034C0035FFFFF75DFF104800F02CFA00210F4835
:10035C0001F0F8FA0C4C6421204600F079F82046A4
:10036C0000F038F90246642000FB02F2084BA3FBB4
:10037C000213D21A03EB5203DB0A044A12685363CA
:10038C0000F052F8E6E700BF7000002028000020C3
:10039C000101100010B504460E4B1A784FF47A7315
:1003AC00B3FBF2F30C4A1068B0FBF3F000F074FBF3
:1003BC0068B90F2C01D901200AE0002221464FF028
:1003CC00FF3000F059FB054B1C60002000E00120C1
:1003DC0010BD00BF00000020080000200400002019
:1003EC0008B5074A136843F010031360032000F0AC
:1003FC0031FB0F20FFF7CEFF00F072FC002008BD90
:10040C0000200240034A1168034B1B780B44136015
:10041C00704700BFA000002000000020014B1868AE
:10042C00704700BFA000002038B50446FFF7F6FF68
:10043C000546B4F1FF3F02D0044B1B781C44FFF778
:10044C00EDFF401BA042FAD338BD00BF00000020D6
:10045C00F0B583B005460C4600230193FFF7DEFF91
:10046C002B689A6812F4807F23D107465A6812F4DD
:10047C00807F03D1DB6A13F4700F29D0504B1E68B8
:10048C00022001F05DF8B6FBF0F62B6819694D4AB5
:10049C00114236D1D96802F15C42114231D119694D
:1004AC00494A114240D1DA68484B1A423ED02923BE
:1004BC0041E0AB6A43F02003AB62002385F82430A3
:1004CC00012003B0F0BD2B681B6813F0020F0FD096
:1004DC002B681B6813F0020F4FD1B4F1FF3FF7D01C
:1004EC00002CF0D0FFF79AFFC31BA342F0D9EAE728
:1004FC00AB6A43F00403AB62002385F8243003207D
:10050C00DFE71969304A114204D1D96802F16E4211
:10051C0011420DD019692E4A0A405AB9DA682C4B8F
:10052C0013405BB1FC2306E0292304E0142302E012
:10053C00542300E0FC2303FB06F607E05423FAE700
:10054C00019BB34210D3019B01330193019BB34236
:10055C0013D2B4F1FF3FF6D0002CF1D0FFF75EFFC1
:10056C00C01BA042EFD9EBE7AB6A43F00403AB62CC
:10057C00002385F824300320A3E72B686FF01202C8
:10058C001A60AB6A43F40073AB622B689B6803F48C
:10059C006023B3F5602F01D0002092E7287B60B96F
:1005AC00AB6A23F48073AB62AB6A13F4805F88D1BF
:1005BC00AB6A43F00103AB6283E7002081E700BF25
:1005CC0008000020244992249224491292244900C4
:1005DC00499224000368D86C7047000030B482B094
:1005EC000022019290F82420012A00F08F8003460B
:1005FC00012280F824204A68062A2DD80468606BF2
:10060C0002EB8202053A4FF01F0C0CFA02FC20EAB6
:10061C000C000D6805FA02F2024362630A68092AAB
:10062C0038D91C68E06802EB42021E3A4FF0070C06
:10063C000CFA02FC20EA0C008D6805FA02F2024367
:10064C00E2600A68103A012A34D90020002283F8AB
:10065C00242002B030BC70470C2A0DD80568286BDA
:10066C0002EB8202233A1F24944020EA04000C6817
:10067C00944020432863D1E70568E86A02EB8202C4
:10068C00413A1F24944020EA04000C689440204313
:10069C00E862C3E71C68206902EB42024FF0070CCA
:1006AC000CFA02FC20EA0C008D6805FA02F20243F7
:1006BC002261C6E71A681648824205D09A6A42F04F
:1006CC0020029A620120C1E7906810F4000F1BD140
:1006DC00906840F4000090600A68102A01D0002055
:1006EC00B4E70C4A12680C49A1FB0212920C02EB03
:1006FC0082025200019202E0019A013A0192019A9F
:10070C00002AF9D10020A1E700209FE70220A0E7F2
:10071C00002401400800002083DE1B4330B583B069
:10072C000023019303689A6812F0010F33D1044639
:10073C009A6842F001029A60184B1B68184AA2FB97
:10074C0003239B0C019302E0019B013B0193019B52
:10075C00002BF9D1FFF762FE054623689B6813F066
:10076C00010F16D1FFF75AFE431B022BF5D9236854
:10077C009B6813F0010FF0D1A36A43F01003A3623E
:10078C00E36A43F00103E362002384F82430012080
:10079C0002E0002000E0002003B030BD0800002083
:1007AC0083DE1B4390F82430012B68D010B504462F
:1007BC00012380F82430FFF7B1FF00285BD1A36A36
:1007CC0023F4407323F0010343F48073A362236882
:1007DC002C4A934227D0A26A22F48012A2625A6851
:1007EC0012F4806F05D0A26A22F4405242F4805277
:1007FC00A262A26A12F4805F2BD0E26A22F0060297
:10080C00E262002284F824206FF002021A6023684E
:10081C009A6802F46022B2F5602F1DD09A6842F4F7
:10082C0080129A602AE0A2F58062526812F4702F4E
:10083C00D1D0A26A42F48012A262134A526812F416
:10084C00806FD6D0A26A22F4405242F48052A26247
:10085C00CFE70022E262D4E70A4A934204D09A68B6
:10086C0042F4A0029A6009E0A2F58062526812F488
:10087C00702FD3D1F3E7002384F8243010BD02206D
:10088C00704700BF002801400024014038B50368C0
:10089C009A6812F0010F01D1002038BD04469A6805
:1008AC0022F001029A60FFF7B9FD054623689B68A8
:1008BC0013F0010F13D0FFF7B1FD431B022BF5D939
:1008CC0023689B6813F0010FF0D0A36A43F0100368
:1008DC00A362E36A43F00103E3620120DDE7002039
:1008EC00DBE7000000287BD070B50446836A002B40
:1008FC004DD02046FFF7CAFFA36A13F0100369D14D
:10090C00002867D1A26A22F4885222F0020242F037
:10091C000202A2626268E1690A43217B42EA410257
:10092C00A568B5F5807F02D0012D36D01D46267DF9
:10093C00012E35D02668716821F469412943716014
:10094C002568AE68274931401143A960A168B1F50B
:10095C00807F01D0012902D12369013B1B05256849
:10096C00E96A21F470010B43EB62236899681E4B12
:10097C000B409A4225D0A36A23F0120343F01003D4
:10098C00A362E36A43F00103E362012027E0C36240
:10099C0080F8243000F0C6F9ABE74FF48075C6E759
:1009AC0031B9A169013945EA413141F40065C1E72A
:1009BC00A16A41F02001A162E16A41F00101E1620A
:1009CC00B8E70023E362A36A23F0030343F00103B7
:1009DC00A36204E0A36A43F01003A362012070BD7C
:1009EC0001207047FDF7E1FFFE0E1FFF002808DB1A
:1009FC000901C9B200F1604000F5614080F80013B4
:100A0C00704700F00F000901C9B2014B195470472F
:100A1C0014ED00E000B500F00700C0F1070CBCF1CC
:100A2C00040F28BF4FF0040C031D062B0FD9C31E57
:100A3C004FF0FF3E0EFA0CF021EA000199400EFA3D
:100A4C0003FE22EA0E0241EA02005DF804FB0023D9
:100A5C00EEE70000074AD36823F4E0631B041B0C89
:100A6C00000200F4E060034343F0BF6343F400333F
:100A7C00D360704700ED00E010B50446054BD86814
:100A8C00C0F30220FFF7C6FF01462046FFF7AEFF7A
:100A9C0010BD00BF00ED00E00138B0F1807F0BD23B
:100AAC004FF0E0235861054AF02182F82310002012
:100ABC00986107221A6170470120704700ED00E031
:100ACC0070B582B00024A4469EE07C4DAB4214D09D
:100ADC000CD8A5F58015AB420FD005F57025AB42AF
:100AEC000BD0A5F58015AB421FD106E0744DAB427F
:100AFC0003D005F58035AB4217D18B68A3B1012B20
:100B0C000DD04261082410E0CC680EE0CC680434AF
:100B1C000BE0CC68083408E0CC680C3405E00261CA
:100B2C00082402E0002400E00424BEF1FF0F37D8B3
:100B3C0006464FEA8C0233680F25954023EA0503DD
:100B4C0004FA02F2134333604B6813F0805F59D000
:100B5C005C4B9A6942F001029A619B6903F00103B4
:100B6C000193019B4FEA9C02951C574B53F825604F
:100B7C000CF00305AD000F23AB4026EA0306534BE4
:100B8C00984214D003F58063984279D003F58063C2
:100B9C00984277D003F58063984206D0042307E08F
:100BAC00061DACF108029200C5E7032300E0002308
:100BBC00AB4033430232444D45F822304B6813F4BA
:100BCC00801F61D0424A936843EA0E0393604B68DE
:100BDC0013F4001F5ED03E4AD36843EA0E03D36081
:100BEC004B6813F4003F5BD0394A536843EA0E0359
:100BFC0053604B6813F4803F58D0354A136843EA6E
:100C0C000E0313600CF1010C0B6833FA0CF253D089
:100C1C00012202FA0CF203EA020E32EA0303F1D1CA
:100C2C004B68122B3FF651AF122B3FF67EAF01A54E
:100C3C0055F823F0070B0008150B00081F0B0008D4
:100C4C00310B0008370B0008370B0008370B000876
:100C5C00370B0008370B0008370B0008370B000860
:100C6C00370B0008370B0008370B0008370B000850
:100C7C00370B0008370B0008190B0008250B000870
:100C8C00012395E7022393E7114A936823EA0E03A5
:100C9C0093609CE70E4AD36823EA0E03D3609FE768
:100CAC000B4A536823EA0E035360A2E7084A136801
:100CBC0023EA0E031360A5E702B070BD00002210FA
:100CCC0000003110001002400000014000080140FB
:100CDC00000401400AB101617047090401617047C9
:100CEC0082B00E4B9A6942F001029A619A6902F045
:100CFC0001020092009ADA6942F08052DA61DB69F3
:100D0C0003F080530193019B054A536823F0E06381
:100D1C0043F00073536002B0704700BF00100240F4
:100D2C000000014000B587B00023029303930493A5
:100D3C0005930268114B9A4202D007B05DF804FB90
:100D4C0003F56C439A6942F400729A619A6902F451
:100D5C0000720092009A9A6942F004029A619B69AF
:100D6C0003F004030193019B0123029303230393D8
:100D7C0002A90348FFF7A4FEDFE700BF00240140EF
:100D8C00000801400268094B9A4200D0704782B0BB
:100D9C0003F564439A6942F400629A619B6903F417
:100DAC0000630193019B02B0704700BF002C01400F
:100DBC0000B587B000230293039304930593026854
:100DCC000D4B9A4202D007B05DF804FB03F5644367
:100DDC009A6942F004029A619B6903F0040301933F
:100DEC00019B4FF48073029302230393059302A992
:100DFC000248FFF765FEE6E7002C014000080140C1
:100E0C0082B0084B1B68084AA2FB03235B0A00FB59
:100E1C0003F3019300BF019B5A1E0192002BF9D1E1
:100E2C0002B0704708000020D34D6210002800F07B
:100E3C00F18170B582B00446036813F0010F2CD019
:100E4C00994B5B6803F00C03042B1DD0964B5B682D
:100E5C0003F00C03082B12D06368B3F5803F41D02C
:100E6C00002B55D103F1804303F504331A6822F4A7
:100E7C0080321A601A6822F480221A6037E08A4B9A
:100E8C005B6813F4803FE7D0874B1B6813F4003F7B
:100E9C0003D06368002B00F0BF81236813F0020FAE
:100EAC0075D0814B5B6813F00C0F5FD07E4B5B6889
:100EBC0003F00C03082B54D02369002B00F08A801C
:100ECC007A4B01221A60FFF7A9FA0546764B1B688C
:100EDC0013F0020F75D1FFF7A1FA401B0228F5D9C8
:100EEC0003209EE1704A136843F4803313606368F7
:100EFC0043B3FFF793FA05466B4B1B6813F4003FA3
:100F0C00CBD1FFF78BFA401B6428F5D9032088E17D
:100F1C00B3F5A02F09D0644B1A6822F480321A6002
:100F2C001A6822F480221A60E1E703F18043A3F5EA
:100F3C003C331A6842F480221A601A6842F48032F8
:100F4C001A60D4E7FFF76AFA0546574B1B6813F48F
:100F5C00003FA2D0FFF762FA401B6428F5D90320AA
:100F6C005FE1514B5B6813F4803FA5D14E4B1B687E
:100F7C0013F0020F03D02369012B40F04F814A4A32
:100F8C00136823F0F803616943EAC1031360236813
:100F9C0013F0080F33D0A369002B5CD0434B012214
:100FAC00C3F88024FFF73AFA05463F4B5B6A13F00F
:100FBC00020F21D1FFF732FA401B0228F5D903208A
:100FCC002FE1394A136823F0F803616943EAC1033E
:100FDC001360DCE7354B00221A60FFF71FFA054659
:100FEC00314B1B6813F0020FD1D0FFF717FA401BDF
:100FFC000228F5D9032014E10120FFF701FF236833
:10100C0013F0040F00F09680274BDB6913F0805F20
:10101C0034D1254BDA6942F08052DA61DB6903F096
:10102C0080530193019B0125214B1B6813F4807F96
:10103C0026D0E368012B3DD0002B53D103F1804324
:10104C0003F504331A6A22F001021A621A6A22F0BA
:10105C0004021A6233E0154B0022C3F88024FFF718
:10106C00DDF90546104B5B6A13F0020FC7D0FFF792
:10107C00D5F9401B0228F5D90320D2E00025D3E78F
:10108C000B4A136843F480731360FFF7C7F90646E5
:10109C00074B1B6813F4807FCBD1FFF7BFF9801B84
:1010AC006428F5D90320BCE0001002400000424245
:1010BC00007000405F4A136A43F001031362E36857
:1010CC0033B3FFF7ABF906465A4B1B6A13F0020F0A
:1010DC002FD1FFF7A3F9801B41F288339842F3D943
:1010EC0003209EE0052B09D0524B1A6A22F0010214
:1010FC001A621A6A22F004021A62E0E74D4B1A6A6D
:10110C0042F004021A621A6A42F001021A62D6E72D
:10111C00FFF784F90646474B1B6A13F0020F08D001
:10112C00FFF77CF9801B41F288339842F3D90320F6
:10113C0077E0E5B9E369002B72D03E4A526802F0C1
:10114C000C02082A56D0022B17D03B4B00221A66F1
:10115C00FFF764F90446374B1B6813F0007F47D048
:10116C00FFF75CF9001B0228F5D9032059E0314A3E
:10117C00D36923F08053D361DCE72F4B00221A662E
:10118C00FFF74CF905462B4B1B6813F0007F06D07C
:10119C00FFF744F9401B0228F5D9032041E0236AEC
:1011AC00B3F5803F1AD023494B6823F47413226A99
:1011BC00606A024313434B601F4B01221A66FFF710
:1011CC002DF904461B4B1B6813F0007F0ED1FFF763
:1011DC0025F9001B0228F5D9032022E0154A536893
:1011EC0023F40033A1680B435360DCE7002018E0C4
:1011FC00002016E0012B16D00E4B5B6803F48031F7
:10120C00226A914211D103F47013626A93420ED197
:10121C00002006E001207047012002E0012000E0E0
:10122C00002002B070BD0120FBE70120F9E701208E
:10123C00F7E700BF00100240000042420F4B5B6812
:10124C0003F00C02082A01D00D487047C3F3834207
:10125C000C49885C13F4803F0BD0084B5B68C3F3DC
:10126C004043094AD35C064A02FB00F0B0FBF3F0A2
:10127C007047064B03FB00F0704700BF00100240A4
:10128C0000127A00BC1B0008B81B000800093D00C6
:10129C00002800F0A08070B50D460446524B1B6828
:1012AC0003F007038B420BD24F4A136823F007035A
:1012BC000B431360136803F007038B4240F08D80DF
:1012CC00236813F0020F17D013F0040F04D0474A11
:1012DC00536843F4E0635360236813F0080F04D0A1
:1012EC00424A536843F460535360404A536823F0B6
:1012FC00F003A1680B435360236813F0010F31D046
:10130C006368012B20D0022B25D0384A126812F0CA
:10131C00020F64D035494A6822F0030213434B6034
:10132C00FFF77CF80646314B5B6803F00C036268F0
:10133C00B3EB820F16D0FFF771F8801B41F28833A4
:10134C009842F0D9032045E0284A126812F4003F75
:10135C00E0D101203EE0254A126812F0007FD9D17D
:10136C00012037E0204B1B6803F00703AB420AD97E
:10137C001D4A136823F007032B431360136803F013
:10138C000703AB422DD1236813F0040F06D0174A84
:10139C00536823F4E063E1680B435360236813F054
:1013AC00080F07D0114A536823F46053216943EAAC
:1013BC00C1035360FFF742FF0C4B5B68C3F303138D
:1013CC000B4AD35CD8400B4B18600B4B1868FEF7DC
:1013DC00E1FF002070BD012070470120FAE70120D9
:1013EC00F8E70120F6E700BF0020024000100240A1
:1013FC00E81B00080800002004000020014B1868BE
:10140C00704700BF0800002008B5FFF7F7FF044B3A
:10141C005B68C3F3C223034AD35CD84008BD00BF4A
:10142C0000100240E01B000870B582B0044603684F
:10143C0013F0010F36D03F4BDB6913F0805F4AD1BC
:10144C003C4BDA6942F08052DA61DB6903F080537D
:10145C000193019B0125384B1B6813F4807F3CD012
:10146C00344B1B6A13F4407313D0626802F440725D
:10147C009A420ED02F4A136A23F440702F4901264A
:10148C00C1F840640026C1F84064106213F0010FEB
:10149C0037D1284A136A23F4407361680B431362F3
:1014AC00002D3FD1236813F0020F06D0214A536858
:1014BC0023F44043A1680B435360236813F0100FCF
:1014CC0035D01C4A536823F48003E1680B43536006
:1014DC00002002B070BD0025BDE7174A136843F425
:1014EC0080731360FEF79AFF0646134B1B6813F4C8
:1014FC00807FB5D1FEF792FF801B6428F5D90320BD
:10150C00E7E7FEF78BFF06460A4B1B6A13F0020F48
:10151C00BFD1FEF783FF801B41F288339842F3D989
:10152C000320D6E7D36923F08053D361BAE70020B8
:10153C00CFE700BF001002400070004000004242A4
:10154C0008B502284ED0102803D0012828D000203E
:10155C0052E02B4B5A68186810F080704CD0C2F3D4
:10156C0083432849C85C12F4803F15D0244B5B6838
:10157C00C3F34043244AD25C244BB3FBF2F303FB8A
:10158C0000F01F4B5B6813F4800F35D14000204BEB
:10159C00A3FB003040082FE01E4B03FB00F0F0E7EC
:1015AC00174B1B6A40F202321A40B2F5817F24D0ED
:1015BC0003F44073B3F5007F04D0B3F5407F09D03A
:1015CC00002019E00E4A526A12F0020FF5D049F6CB
:1015DC00404011E00A4B186810F400300CD04FF268
:1015EC00244009E0FFF710FF054B5B68C3F3813320
:1015FC0001335B00B0FBF3F008BD4FF40040FBE798
:10160C0000100240D01B0008CC1B000800127A000E
:10161C00ABAAAAAA00093D0030B4026A036A23F0FF
:10162C00010303624568836923F073030C681C4350
:10163C0022F002028B6813430B4A904206D045609D
:10164C0084614A684263036230BC704723F008032C
:10165C00CA681A4322F0040325F440754A692A43E8
:10166C008D691543EBE700BF002C014030B4036AD1
:10167C00026A22F4807202624468C26922F0730228
:10168C000D68154323F400738A6843EA02230D4A5C
:10169C00904206D04460C5614A68C263036230BCA4
:1016AC00704723F40063CA6843EA022323F480637F
:1016BC0024F440544A6944EA02148A6944EA021444
:1016CC00E8E700BF002C014030B4036A026A22F440
:1016DC00805202624468C26922F4E6420D6842EA12
:1016EC00052223F400538D6843EA0533074DA842C5
:1016FC0006D04460C2614A680264036230BC704721
:10170C0024F480444D6944EA8514F2E7002C01402E
:10171C0003681F4A90420AD0B0F1804F07D0A2F55F
:10172C009432904203D002F58062904203D123F0B0
:10173C0070034A681343164A90420AD0B0F1804FA6
:10174C0007D0A2F59432904203D002F58062904209
:10175C0003D123F44073CA68134323F080034A690E
:10176C00134303608B68C3620B688362084B984217
:10177C000AD001234361036913F0010F03D00369FD
:10178C0023F00103036170470B690363F1E700BFAA
:10179C00002C014040B310B5044690F83D30F3B135
:1017AC00022384F83D30214651F8040BFFF7B0FFBB
:1017BC00012384F8463084F83E3084F83F3084F8B6
:1017CC00403084F8413084F8423084F8433084F857
:1017DC00443084F8453084F83D30002010BD80F84A
:1017EC003C30FFF7CFFADBE70120704730B4036AD7
:1017FC00026A22F0100202624468826922F4E64214
:10180C000D6842EA052223F020038D6843EA051394
:10181C000C4DA84206D0446082614A688263036220
:10182C0030BC704723F08003CD6843EA051323F0E6
:10183C00400324F440644D6944EA85048D6944EA0C
:10184C008504E8E7002C014038B590F83C30012BBA
:10185C0066D004460D46012380F83C300C2A5AD839
:10186C00DFE802F0075959591B5959593059595940
:10187C0044000068FFF7D0FE2268936943F0080328
:10188C0093612268936923F004039361226893693E
:10189C0029690B43936100203EE00068FFF7A6FF27
:1018AC002268936943F4006393612268936923F47B
:1018BC008063936122689369296943EA01239361E8
:1018CC00002029E00068FFF7D1FE2268D36943F0BD
:1018DC000803D3612268D36923F00403D36122681F
:1018EC00D36929690B43D361002015E00068FFF729
:1018FC00EBFE2268D36943F40063D3612268D36999
:10190C0023F48063D3612268D369296943EA0123F4
:10191C00D361002000E00120002384F83C3038BD66
:10192C000220FCE701F01F014FF0010C0CFA01FC46
:10193C00036A23EA0C030362036A8A4013430362BB
:10194C007047000010B50446084649BB94F83E3079
:10195C00013B18BF0123002B58D1002836D102239C
:10196C0084F83E30012201462068FFF7DBFF236834
:10197C00284A93423AD02368264A93423BD0B3F18B
:10198C00804F38D0A2F59432934234D002F5806265
:10199C00934230D01A6842F001021A60002036E0FF
:1019AC00042907D008290BD094F84130013B18BF0B
:1019BC000123D0E794F83F30013B18BF0123CAE75D
:1019CC0094F84030013B18BF0123C4E7042805D02C
:1019DC00082807D0022384F84130C3E7022384F897
:1019EC003F30BFE7022384F84030BBE75A6C42F427
:1019FC0000425A64BFE79A6802F00702062A07D031
:101A0C001A6842F001021A60002000E0012010BDAB
:101A1C000020FCE7002C014090F83C20012A2CD03F
:101A2C0010B40346012280F83C20022280F83D20AD
:101A3C0002685068946820F0700C086840EA0C004A
:101A4C0050601A680E4882420AD0B2F1804F07D01B
:101A5C00A0F59430824203D000F58060824204D11C
:101A6C0024F08004496821439160012283F83D20D1
:101A7C00002083F83C0010BC70470220704700BF68
:101A8C00002C0140024690F83C30012B21D0012360
:101A9C0080F83C30CB6823F440738868034323F40C
:101AAC0080634868034323F400630868034323F40A
:101ABC0080530869034323F400534869034323F418
:101ACC008043C9690B4311684B64002082F83C00C9
:101ADC00704702207047FEE7FEE7FEE7FEE7FEE7F1
:101AEC0070477047704708B5FEF78CFC08BD70470F
:101AFC00FFF7FDFF0B480C490C4A002302E0D458B9
:101B0C00C4500433C4188C42F9D3094A094C00233D
:101B1C0001E013600432A242FBD300F017F8FEF789
:101B2C0007FC7047000000200C000020001C00087F
:101B3C000C000020A4000020FEE703460244934260
:101B4C0000D1704703F8011BF9E7000070B50026BF
:101B5C000C4D0D4B5B1B9C10A64209D1002600F0CE
:101B6C0019F80A4D0A4B5B1B9C10A64205D170BD9F
:101B7C0055F8043B98470136EEE755F8043B984777
:101B8C000136F2E7F81B0008F81B0008F81B0008E8
:101B9C00FC1B0008F8B500BFF8BC08BC9E4670479B
:0C1BAC00F8B500BFF8BC08BC9E467047AE
:101BB8000102000002030405060708090A0B0C0DC0
:101BC8000E0F1010010200000203040506070809A1
:101BD8000A0B0C0D0E0F1010000000000102030488
:101BE80000000000000000000102030406070809C5
:041BF80031010008AF
:041BFC000D010008CF
:0C1C0000010000001000000000127A003B
:0400000508001AFDD8
:00000001FF
